:10080000120B98120C098F28E528B4010CE527700B
:10081000047F0180027F008F27E528B40207E4F5FA
:1008200025F524F526E52864037033E525FD7C00D5
:10083000E4FF120B1E7F057E00120BC5E524FD7C34
:10084000007F01120B1E7F057E00120BC5E526FD01
:100850007C007F02120B1E7F057E00120BC5E5286F
:10086000B40415E4FF120A9E8F257F01120A9E8FA1
:10087000247F02120A9E8F26E52575F00A84FD7CEE
:10088000007F01120BF9E52575F00A84E5F0FD7C87
:10089000007F02120BF97D0B7C007F03120BF9E540
:1008A0002475F00A84FD7C007F04120BF9E52475A1
:1008B000F00A84E5F0FD7C007F05120BF97D0B7CCE
:1008C000007F06120BF9E52675F00A84FD7C007F97
:1008D00007120BF9E52675F00A84E5F0FD7C007F30
:0708E00008120BF9020803E6
:100AF700E52760220526E526C394644019E4F52618
:100B07000524E524943C400EE4F5240525E52594C9
:070B17003C4003E4F5252238
:03000B000208E701
:1008E700C0E0C0F0C083C082C0D075D000C000C0D7
:0D08F70001C002C003C004C005C006C00758
:10090400758A18758CFC051FE51F7002051EC394BB
:1009140014E51E94004009751E00751F00120A6537
:100924000521E52170020520C39402E520940040CE
:1009340009752000752100120B7D0523E523700243
:100944000522C3940AE52294004009752200752308
:0409540000120AF78C
:10095800D007D006D005D004D003D002D001D000F3
:0B096800D0D0D082D083D0F0D0E0329D
:100B1E008F2C8C2D8D2E120BF07FA0120ACE120B65
:100B2E00DAAF2C120ACE120BDAAF2E120ACE120B3D
:040B3E00DA020C02C9
:020A9E008F2C9B
:100AA000120BF07FA0120ACE120BDAAF2C120ACE74
:100AB000120BDA120BF07FA1120ACE120BDA120B14
:0D0AC000428F2D7F01120BE6120C02AF2DAC
:010ACD002206
:100BC500EF1FAC0670011E4C600A7D027CEFDCFE57
:040BD500DDFC80ECD7
:010BD90022F9
:090BF000D2A0D2A1C2A0C2A12230
:070C0200C2A0D2A1D2A02282
:020ACE00AD0772
:100AD000E4FB7E007480A803088006CEA2E713CE54
:100AE00013D8F8FFEDF582EF558224FF92A0D2A132
:060AF000C2A10BBB08DCF3
:010AF60022DD
:100B4200E4FFD2A0FED2A130A00DA80674800880D6
:0D0B520002C313D8FC4207C2A10EBE08E882
:010B5F002273
:0A0BE600EF24FF92A0D2A1C2A122C9
:0B0BDA00D2A0D2A1A2A0E433FFC2A170
:010BE50022ED
:050C0900E4AF2BF52B08
:010C0E0022C3
:100BAF00E4FF20B1010F20B0027F0220B2027F03C9
:050BBF0020B3027F04D9
:010BC400220E
:100A650085292A120BAF8F29E52AB40107E52970DC
:100A750003752B01E52AB40207E5297003752B02DE
:100A8500E52AB40307E5297003752B03E52AB404A9
:080A950007E5297003752B042D
:010A9D002236
:100B60000909000A0A0A0A0A0A0A0A0C123F065B65
:0C0B70004F666D7D077F6F00400108019B
:090BF900AE0574092FF8A60622CE
:1009FF00E4F580EF14B408005054900A1775F00313
:100A0F00A4C58325F0C58373020A2F020A33020A95
:100A1F0037020A3B020A3F020A47020A4F020A57ED
:100A2F00D2A4800ED2A48012D2A48016D2A4801A8F
:100A3F00C2A4D2A3D2A28016C2A4D2A3C2A2800EF5
:100A4F00C2A4C2A3D2A28006C2A4C2A3C2A274121D
:060A5F002DF8E6F58022EF
:100B7D0074092508F8E6FD7C00AF081209FF050889
:0A0B8D00E508C39409400375080150
:010B9700223B
:100B98005389F0438901758A18758CFCC28DD28CF3
:070BA800D2A9D2AFC2B922AD
:030000000209737F
:0C097300787FE4F6D8FD75812E0209BAE9
:10097F00020800E493A3F8E493A34003F68001F286
:10098F0008DFF48029E493A3F85407240CC8C33379
:10099F00C4540F4420C8834004F456800146F6DF48
:1009AF00E4800B0102040810204080900B60E47E6D
:1009BF00019360BCA3FF543F30E509541FFEE4933D
:1009CF00A360010ECF54C025E060A840B8E493A304
:1009DF00FAE493A3F8E493A3C8C582C8CAC583CA2F
:1009EF00F0A3C8C582C8CAC583CADFE9DEE780BEE7
:010B7C000078
:00000001FF
