BL51 BANKED LINKER/LOCATER V6.22.4.0                                                    05/19/2024  18:05:02  PAGE 1


BL51 BANKED LINKER/LOCATER V6.22.4.0, INVOKED BY:
C:\KEIL_V5\C51\BIN\BL51.EXE .\Objects\main.obj, .\Objects\Delay.obj, .\Objects\LCD1602.obj, .\Objects\AT24C02.obj, .\Obj
>> ects\I2C.obj, .\Objects\DS18B20.obj, .\Objects\OneWire.obj, .\Objects\Key.obj, .\Objects\Timer0.obj, .\Objects\Buzzer
>> .obj TO .\Objects\Project PRINT (.\Listings\Project.m51) RAMSIZE (256) DISABLEWARNING (16)


MEMORY MODEL: SMALL WITH FLOATING POINT ARITHMETIC


INPUT MODULES INCLUDED:
  .\Objects\main.obj (MAIN)
  .\Objects\Delay.obj (DELAY)
  .\Objects\LCD1602.obj (LCD1602)
  .\Objects\AT24C02.obj (AT24C02)
  .\Objects\I2C.obj (I2C)
  .\Objects\DS18B20.obj (DS18B20)
  .\Objects\OneWire.obj (ONEWIRE)
  .\Objects\Key.obj (KEY)
  .\Objects\Timer0.obj (TIMER0)
  .\Objects\Buzzer.obj (BUZZER)
  C:\KEIL_V5\C51\LIB\C51FPS.LIB (?C?FPMUL)
  C:\KEIL_V5\C51\LIB\C51FPS.LIB (?C?FPDIV)
  C:\KEIL_V5\C51\LIB\C51FPS.LIB (?C?FPCMP)
  C:\KEIL_V5\C51\LIB\C51FPS.LIB (?C?FPNEG)
  C:\KEIL_V5\C51\LIB\C51FPS.LIB (?C?FCAST)
  C:\KEIL_V5\C51\LIB\C51FPS.LIB (?C?CASTF)
  C:\KEIL_V5\C51\LIB\C51FPS.LIB (?C?FPGETOPN)
  C:\KEIL_V5\C51\LIB\C51S.LIB (?C_STARTUP)
  C:\KEIL_V5\C51\LIB\C51S.LIB (?C?CLDOPTR)
  C:\KEIL_V5\C51\LIB\C51S.LIB (?C?IMUL)
  C:\KEIL_V5\C51\LIB\C51S.LIB (?C?UIDIV)
  C:\KEIL_V5\C51\LIB\C51S.LIB (?C?ULDIV)
  C:\KEIL_V5\C51\LIB\C51S.LIB (?C?LNEG)


LINK MAP OF MODULE:  .\Objects\Project (MAIN)


            TYPE    BASE      LENGTH    RELOCATION   SEGMENT NAME
            -----------------------------------------------------

            * * * * * * *   D A T A   M E M O R Y   * * * * * * *
            REG     0000H     0008H     ABSOLUTE     "REG BANK 0"
            DATA    0008H     000DH     UNIT         ?DT?MAIN
            DATA    0015H     000BH     UNIT         _DATA_GROUP_
            DATA    0020H     0005H     UNIT         ?DT?_LCD_SHOWHEXNUM?LCD1602
            DATA    0025H     0005H     UNIT         ?DT?_LCD_SHOWBINNUM?LCD1602
            DATA    002AH     0003H     UNIT         ?DT?KEY
            DATA    002DH     0002H     UNIT         ?DT?BUZZER
            IDATA   002FH     0001H     UNIT         ?STACK

            * * * * * * *   C O D E   M E M O R Y   * * * * * * *
            CODE    0000H     0003H     ABSOLUTE     
                    0003H     0008H                  *** GAP ***
            CODE    000BH     0003H     ABSOLUTE     
                    000EH     07F2H                  *** GAP ***
            CODE    0800H     045FH     UNIT         ?C?LIB_CODE
            CODE    0C5FH     0226H     UNIT         ?PR?MAIN?MAIN
BL51 BANKED LINKER/LOCATER V6.22.4.0                                                  05/19/2024  18:05:02  PAGE 2


            CODE    0E85H     0058H     UNIT         ?PR?TIMER0_ROUTINE?MAIN
            CODE    0EDDH     003AH     UNIT         ?PR?_LCD_SHOWSIGNEDNUM?LCD1602
            CODE    0F17H     0039H     UNIT         ?PR?_LCD_SHOWHEXNUM?LCD1602
            CODE    0F50H     0039H     UNIT         ?PR?KEY_LOOP?KEY
            CODE    0F89H     0038H     UNIT         ?PR?_LCD_SHOWBINNUM?LCD1602
            CODE    0FC1H     0033H     UNIT         ?PR?_LCD_POW?LCD1602
            CODE    0FF4H     0030H     UNIT         ?PR?_AT24C02_READBYTE?AT24C02
            CODE    1024H     002BH     UNIT         ?PR?DS18B20_READT?DS18B20
            CODE    104FH     0029H     UNIT         ?PR?_I2C_SENDBYTE?I2C
            CODE    1078H     0029H     UNIT         ?PR?_BUZZER_TIME?BUZZER
            CODE    10A1H     0024H     UNIT         ?PR?_AT24C02_WRITEBYTE?AT24C02
            CODE    10C5H     0023H     UNIT         ?PR?_LCD_SHOWSTRING?LCD1602
            CODE    10E8H     001EH     UNIT         ?PR?_LCD_WRITEDATA?LCD1602
            CODE    1106H     001EH     UNIT         ?PR?I2C_RECEIVEBYTE?I2C
            CODE    1124H     001EH     UNIT         ?PR?ONEWIRE_INIT?ONEWIRE
            CODE    1142H     001DH     UNIT         ?PR?_LCD_SHOWNUM?LCD1602
            CODE    115FH     001DH     UNIT         ?PR?ONEWIRE_RECEIVEBYTE?ONEWIRE
            CODE    117CH     001CH     UNIT         ?PR?ONEWIRE_RECEIVEBIT?ONEWIRE
            CODE    1198H     001AH     UNIT         ?CO?MAIN
            CODE    11B2H     0019H     UNIT         ?PR?_ONEWIRE_SENDBYTE?ONEWIRE
            CODE    11CBH     0017H     UNIT         ?PR?TIMER0_INIT?TIMER0
            CODE    11E2H     0016H     UNIT         ?PR?_LCD_SETCURSOR?LCD1602
            CODE    11F8H     0016H     UNIT         ?PR?_ONEWIRE_SENDBIT?ONEWIRE
            CODE    120EH     0016H     UNIT         ?PR?KEY_GETSTATE?KEY
            CODE    1224H     0015H     UNIT         ?PR?_DELAY?DELAY
            CODE    1239H     0014H     UNIT         ?PR?LCD_INIT?LCD1602
            CODE    124DH     000FH     UNIT         ?PR?LCD_DELAY?LCD1602
            CODE    125CH     000DH     UNIT         ?PR?DS18B20_CONVERTT?DS18B20
            CODE    1269H     000CH     UNIT         ?PR?I2C_RECEIVEACK?I2C
            CODE    1275H     000CH     UNIT         ?C_C51STARTUP
            CODE    1281H     000AH     UNIT         ?PR?_LCD_WRITECOMMAND?LCD1602
            CODE    128BH     000AH     UNIT         ?PR?_LCD_SHOWCHAR?LCD1602
            CODE    1295H     000AH     UNIT         ?PR?_I2C_SENDACK?I2C
            CODE    129FH     0009H     UNIT         ?PR?I2C_START?I2C
            CODE    12A8H     0007H     UNIT         ?PR?I2C_STOP?I2C
            CODE    12AFH     0006H     UNIT         ?PR?KEY?KEY
            CODE    12B5H     0006H     UNIT         ?PR?BUZZER_DELAY500US?BUZZER



OVERLAY MAP OF MODULE:   .\Objects\Project (MAIN)


SEGMENT                                   DATA_GROUP 
  +--> CALLED SEGMENT                   START    LENGTH
-------------------------------------------------------
?PR?TIMER0_ROUTINE?MAIN                 -----    -----
  +--> ?PR?KEY_LOOP?KEY

?PR?KEY_LOOP?KEY                        -----    -----
  +--> ?PR?KEY_GETSTATE?KEY

*** NEW ROOT ***************************************************

?C_C51STARTUP                           -----    -----
  +--> ?PR?MAIN?MAIN

BL51 BANKED LINKER/LOCATER V6.22.4.0                                                  05/19/2024  18:05:02  PAGE 3


?PR?MAIN?MAIN                           -----    -----
  +--> ?PR?DS18B20_CONVERTT?DS18B20
  +--> ?PR?_DELAY?DELAY
  +--> ?PR?_AT24C02_READBYTE?AT24C02
  +--> ?PR?LCD_INIT?LCD1602
  +--> ?CO?MAIN
  +--> ?PR?_LCD_SHOWSTRING?LCD1602
  +--> ?PR?_LCD_SHOWSIGNEDNUM?LCD1602
  +--> ?PR?TIMER0_INIT?TIMER0
  +--> ?PR?KEY?KEY
  +--> ?PR?DS18B20_READT?DS18B20
  +--> ?PR?_LCD_SHOWCHAR?LCD1602
  +--> ?PR?_LCD_SHOWNUM?LCD1602
  +--> ?PR?_AT24C02_WRITEBYTE?AT24C02
  +--> ?PR?_BUZZER_TIME?BUZZER

?PR?DS18B20_CONVERTT?DS18B20            -----    -----
  +--> ?PR?ONEWIRE_INIT?ONEWIRE
  +--> ?PR?_ONEWIRE_SENDBYTE?ONEWIRE

?PR?_ONEWIRE_SENDBYTE?ONEWIRE           -----    -----
  +--> ?PR?_ONEWIRE_SENDBIT?ONEWIRE

?PR?_AT24C02_READBYTE?AT24C02           0015H    0002H
  +--> ?PR?I2C_START?I2C
  +--> ?PR?_I2C_SENDBYTE?I2C
  +--> ?PR?I2C_RECEIVEACK?I2C
  +--> ?PR?I2C_RECEIVEBYTE?I2C
  +--> ?PR?_I2C_SENDACK?I2C
  +--> ?PR?I2C_STOP?I2C

?PR?LCD_INIT?LCD1602                    -----    -----
  +--> ?PR?_LCD_WRITECOMMAND?LCD1602

?PR?_LCD_WRITECOMMAND?LCD1602           -----    -----
  +--> ?PR?LCD_DELAY?LCD1602

?PR?_LCD_SHOWSTRING?LCD1602             0015H    0003H
  +--> ?PR?_LCD_SETCURSOR?LCD1602
  +--> ?PR?_LCD_WRITEDATA?LCD1602

?PR?_LCD_SETCURSOR?LCD1602              -----    -----
  +--> ?PR?_LCD_WRITECOMMAND?LCD1602

?PR?_LCD_WRITEDATA?LCD1602              -----    -----
  +--> ?PR?LCD_DELAY?LCD1602

?PR?_LCD_SHOWSIGNEDNUM?LCD1602          0015H    0007H
  +--> ?PR?_LCD_SETCURSOR?LCD1602
  +--> ?PR?_LCD_WRITEDATA?LCD1602
  +--> ?PR?_LCD_POW?LCD1602

?PR?_LCD_POW?LCD1602                    001CH    0004H

?PR?DS18B20_READT?DS18B20               0015H    0001H
  +--> ?PR?ONEWIRE_INIT?ONEWIRE
  +--> ?PR?_ONEWIRE_SENDBYTE?ONEWIRE
BL51 BANKED LINKER/LOCATER V6.22.4.0                                                  05/19/2024  18:05:02  PAGE 4


  +--> ?PR?ONEWIRE_RECEIVEBYTE?ONEWIRE

?PR?ONEWIRE_RECEIVEBYTE?ONEWIRE         -----    -----
  +--> ?PR?ONEWIRE_RECEIVEBIT?ONEWIRE

?PR?_LCD_SHOWCHAR?LCD1602               -----    -----
  +--> ?PR?_LCD_SETCURSOR?LCD1602
  +--> ?PR?_LCD_WRITEDATA?LCD1602

?PR?_LCD_SHOWNUM?LCD1602                0015H    0005H
  +--> ?PR?_LCD_SETCURSOR?LCD1602
  +--> ?PR?_LCD_POW?LCD1602
  +--> ?PR?_LCD_WRITEDATA?LCD1602

?PR?_AT24C02_WRITEBYTE?AT24C02          0015H    0003H
  +--> ?PR?I2C_START?I2C
  +--> ?PR?_I2C_SENDBYTE?I2C
  +--> ?PR?I2C_RECEIVEACK?I2C
  +--> ?PR?I2C_STOP?I2C

?PR?_BUZZER_TIME?BUZZER                 -----    -----
  +--> ?PR?BUZZER_DELAY500US?BUZZER



SYMBOL TABLE OF MODULE:  .\Objects\Project (MAIN)

  VALUE           TYPE          NAME
  ----------------------------------

  -------         MODULE        MAIN
  C:0000H         SYMBOL        _ICE_DUMMY_
  C:0E85H         PUBLIC        Timer0_Routine
  D:000AH         PUBLIC        TLow
  C:0C5FH         PUBLIC        main
  D:008CH         PUBLIC        TH0
  D:008AH         PUBLIC        TL0
  D:000BH         PUBLIC        T
  D:000FH         PUBLIC        THigh
  D:0010H         PUBLIC        KeyNum
  D:0011H         PUBLIC        TShow
  -------         PROC          MAIN
  C:0C5FH         LINE#         14
  C:0C5FH         LINE#         15
  C:0C5FH         LINE#         16
  C:0C62H         LINE#         17
  C:0C69H         LINE#         18
  C:0C70H         LINE#         19
  C:0C77H         LINE#         20
  C:0C96H         LINE#         21
  C:0C96H         LINE#         22
  C:0C99H         LINE#         23
  C:0C9CH         LINE#         24
  C:0C9CH         LINE#         25
  C:0C9FH         LINE#         26
  C:0CACH         LINE#         27
  C:0CB9H         LINE#         28
BL51 BANKED LINKER/LOCATER V6.22.4.0                                                  05/19/2024  18:05:02  PAGE 5


  C:0CC6H         LINE#         29
  C:0CD7H         LINE#         30
  C:0CE8H         LINE#         31
  C:0CEBH         LINE#         33
  C:0CEBH         LINE#         34
  C:0CEBH         LINE#         35
  C:0CF0H         LINE#         38
  C:0CF3H         LINE#         39
  C:0CFEH         LINE#         40
  C:0D10H         LINE#         41
  C:0D10H         LINE#         42
  C:0D19H         LINE#         43
  C:0D2CH         LINE#         44
  C:0D2EH         LINE#         46
  C:0D2EH         LINE#         47
  C:0D37H         LINE#         48
  C:0D43H         LINE#         49
  C:0D43H         LINE#         50
  C:0D5CH         LINE#         51
  C:0D65H         LINE#         52
  C:0D8FH         LINE#         55
  C:0D96H         LINE#         56
  C:0D96H         LINE#         57
  C:0D99H         LINE#         58
  C:0D99H         LINE#         59
  C:0D9BH         LINE#         60
  C:0DA7H         LINE#         61
  C:0DA7H         LINE#         62
  C:0DACH         LINE#         63
  C:0DACH         LINE#         64
  C:0DAEH         LINE#         65
  C:0DBDH         LINE#         66
  C:0DBDH         LINE#         67
  C:0DC2H         LINE#         68
  C:0DC2H         LINE#         69
  C:0DC4H         LINE#         70
  C:0DD3H         LINE#         71
  C:0DD3H         LINE#         72
  C:0DD8H         LINE#         73
  C:0DD8H         LINE#         74
  C:0DDAH         LINE#         75
  C:0DE6H         LINE#         76
  C:0DE6H         LINE#         77
  C:0DF7H         LINE#         78
  C:0E08H         LINE#         79
  C:0E14H         LINE#         80
  C:0E1BH         LINE#         81
  C:0E27H         LINE#         82
  C:0E2EH         LINE#         83
  C:0E2EH         LINE#         84
  C:0E43H         LINE#         85
  C:0E43H         LINE#         86
  C:0E49H         LINE#         87
  C:0E49H         LINE#         88
  C:0E4BH         LINE#         89
  C:0E5EH         LINE#         90
  C:0E5EH         LINE#         91
BL51 BANKED LINKER/LOCATER V6.22.4.0                                                  05/19/2024  18:05:02  PAGE 6


  C:0E6BH         LINE#         92
  C:0E72H         LINE#         94
  C:0E75H         LINE#         96
  C:0E75H         LINE#         97
  C:0E82H         LINE#         98
  C:0E82H         LINE#         99
  -------         ENDPROC       MAIN
  -------         PROC          TIMER0_ROUTINE
  -------         DO            
  D:0008H         SYMBOL        T0Count
  -------         ENDDO         
  C:0E85H         LINE#         102
  C:0EA2H         LINE#         105
  C:0EA5H         LINE#         106
  C:0EA8H         LINE#         107
  C:0EB0H         LINE#         108
  C:0EB9H         LINE#         109
  C:0EB9H         LINE#         110
  C:0EBFH         LINE#         111
  C:0EC2H         LINE#         112
  C:0EC2H         LINE#         113
  -------         ENDPROC       TIMER0_ROUTINE
  -------         ENDMOD        MAIN

  -------         MODULE        DELAY
  C:0000H         SYMBOL        _ICE_DUMMY_
  C:1224H         PUBLIC        _Delay
  -------         PROC          _DELAY
  D:0006H         SYMBOL        xms
  -------         DO            
  D:0005H         SYMBOL        i
  D:0004H         SYMBOL        j
  -------         ENDDO         
  C:1224H         LINE#         2
  C:1224H         LINE#         3
  C:1224H         LINE#         5
  C:122EH         LINE#         6
  C:122EH         LINE#         7
  C:1230H         LINE#         8
  C:1232H         LINE#         10
  C:1232H         LINE#         11
  C:1234H         LINE#         12
  C:1236H         LINE#         13
  C:1238H         LINE#         14
  -------         ENDPROC       _DELAY
  -------         ENDMOD        DELAY

  -------         MODULE        LCD1602
  C:0000H         SYMBOL        _ICE_DUMMY_
  D:0080H         PUBLIC        P0
  D:00A0H         PUBLIC        P2
  C:1281H         PUBLIC        _LCD_WriteCommand
  C:1142H         PUBLIC        _LCD_ShowNum
  C:0F89H         PUBLIC        _LCD_ShowBinNum
  C:1253H         PUBLIC        LCD_Delay
  C:0F17H         PUBLIC        _LCD_ShowHexNum
  C:10FCH         PUBLIC        _LCD_WriteData
BL51 BANKED LINKER/LOCATER V6.22.4.0                                                  05/19/2024  18:05:02  PAGE 7


  B:00A0H.7       PUBLIC        LCD_EN
  C:1239H         PUBLIC        LCD_Init
  C:10C5H         PUBLIC        _LCD_ShowString
  C:128BH         PUBLIC        _LCD_ShowChar
  B:00A0H.6       PUBLIC        LCD_RS
  B:00A0H.5       PUBLIC        LCD_RW
  C:11E2H         PUBLIC        _LCD_SetCursor
  C:0EDDH         PUBLIC        _LCD_ShowSignedNum
  C:0FCDH         PUBLIC        _LCD_Pow
  -------         PROC          L?0048
  -------         ENDPROC       L?0048
  -------         PROC          LCD_DELAY
  -------         DO            
  D:0007H         SYMBOL        i
  D:0006H         SYMBOL        j
  -------         ENDDO         
  C:1253H         LINE#         15
  C:1253H         LINE#         16
  C:1253H         LINE#         19
  C:1255H         LINE#         20
  C:1257H         LINE#         22
  C:1257H         LINE#         23
  C:1259H         LINE#         24
  C:125BH         LINE#         25
  -------         ENDPROC       LCD_DELAY
  -------         PROC          _LCD_WRITECOMMAND
  D:0007H         SYMBOL        Command
  C:1281H         LINE#         32
  C:1281H         LINE#         33
  C:1281H         LINE#         34
  C:1283H         LINE#         35
  C:1283H         LINE#         36
  C:1283H         LINE#         37
  C:1283H         LINE#         38
  C:1286H         LINE#         39
  C:1288H         LINE#         40
  -------         ENDPROC       _LCD_WRITECOMMAND
  -------         PROC          L?0047
  -------         ENDPROC       L?0047
  -------         PROC          _LCD_WRITEDATA
  D:0007H         SYMBOL        Data
  C:10FCH         LINE#         48
  C:10FCH         LINE#         49
  C:10FCH         LINE#         50
  C:10FEH         LINE#         51
  C:10FEH         LINE#         52
  C:10FEH         LINE#         53
  C:10FEH         LINE#         54
  C:1101H         LINE#         55
  C:1103H         LINE#         56
  -------         ENDPROC       _LCD_WRITEDATA
  -------         PROC          _LCD_SETCURSOR
  D:0006H         SYMBOL        Line
  D:0005H         SYMBOL        Column
  C:11E2H         LINE#         65
  C:11E4H         LINE#         66
  C:11E4H         LINE#         67
BL51 BANKED LINKER/LOCATER V6.22.4.0                                                  05/19/2024  18:05:02  PAGE 8


  C:11E7H         LINE#         68
  C:11E7H         LINE#         69
  C:11E9H         LINE#         70
  C:11EBH         LINE#         71
  C:11EEH         LINE#         72
  C:11EEH         LINE#         73
  C:11F7H         LINE#         74
  C:11F7H         LINE#         75
  -------         ENDPROC       _LCD_SETCURSOR
  -------         PROC          LCD_INIT
  C:1239H         LINE#         82
  C:1239H         LINE#         83
  C:1239H         LINE#         84
  C:123EH         LINE#         85
  C:1243H         LINE#         86
  C:1248H         LINE#         87
  -------         ENDPROC       LCD_INIT
  -------         PROC          _LCD_SHOWCHAR
  D:0006H         SYMBOL        Line
  D:0005H         SYMBOL        Column
  D:0004H         SYMBOL        Char
  C:128BH         LINE#         97
  C:128DH         LINE#         98
  C:128DH         LINE#         99
  C:1290H         LINE#         100
  -------         ENDPROC       _LCD_SHOWCHAR
  -------         PROC          _LCD_SHOWSTRING
  D:0007H         SYMBOL        Line
  D:0005H         SYMBOL        Column
  D:0015H         SYMBOL        String
  -------         DO            
  D:0005H         SYMBOL        i
  -------         ENDDO         
  C:10C5H         LINE#         110
  C:10CBH         LINE#         111
  C:10CBH         LINE#         113
  C:10CEH         LINE#         114
  C:10E1H         LINE#         115
  C:10E1H         LINE#         116
  C:10E4H         LINE#         117
  C:10E7H         LINE#         118
  -------         ENDPROC       _LCD_SHOWSTRING
  C:0FC3H         SYMBOL        L?0046
  -------         PROC          L?0045
  -------         ENDPROC       L?0045
  C:0FC3H         SYMBOL        L?0046
  -------         PROC          _LCD_POW
  D:001CH         SYMBOL        X
  D:001EH         SYMBOL        Y
  -------         DO            
  D:0003H         SYMBOL        i
  D:0006H         SYMBOL        Result
  -------         ENDDO         
  C:0FCDH         LINE#         123
  C:0FD5H         LINE#         124
  C:0FD5H         LINE#         126
  C:0FD9H         LINE#         127
BL51 BANKED LINKER/LOCATER V6.22.4.0                                                  05/19/2024  18:05:02  PAGE 9


  C:0FE9H         LINE#         128
  C:0FE9H         LINE#         129
  C:0FF0H         LINE#         130
  C:0FF3H         LINE#         131
  C:0FF3H         LINE#         132
  -------         ENDPROC       _LCD_POW
  -------         PROC          _LCD_SHOWNUM
  D:0007H         SYMBOL        Line
  D:0005H         SYMBOL        Column
  D:0017H         SYMBOL        Number
  D:0019H         SYMBOL        Length
  -------         DO            
  D:0002H         SYMBOL        i
  -------         ENDDO         
  C:1142H         LINE#         142
  C:1146H         LINE#         143
  C:1146H         LINE#         145
  C:1149H         LINE#         146
  C:1151H         LINE#         147
  C:1151H         LINE#         148
  C:115BH         LINE#         149
  C:115EH         LINE#         150
  -------         ENDPROC       _LCD_SHOWNUM
  -------         PROC          _LCD_SHOWSIGNEDNUM
  D:0007H         SYMBOL        Line
  D:0005H         SYMBOL        Column
  D:0002H         SYMBOL        Number
  D:0019H         SYMBOL        Length
  -------         DO            
  D:0002H         SYMBOL        i
  D:001AH         SYMBOL        Number1
  -------         ENDDO         
  C:0EDDH         LINE#         160
  C:0EDDH         LINE#         161
  C:0EDDH         LINE#         164
  C:0EE0H         LINE#         165
  C:0EE8H         LINE#         166
  C:0EE8H         LINE#         167
  C:0EEDH         LINE#         168
  C:0EF1H         LINE#         169
  C:0EF3H         LINE#         171
  C:0EF3H         LINE#         172
  C:0EF8H         LINE#         173
  C:0F01H         LINE#         174
  C:0F01H         LINE#         175
  C:0F09H         LINE#         176
  C:0F09H         LINE#         177
  C:0F13H         LINE#         178
  C:0F16H         LINE#         179
  -------         ENDPROC       _LCD_SHOWSIGNEDNUM
  -------         PROC          _LCD_SHOWHEXNUM
  D:0007H         SYMBOL        Line
  D:0005H         SYMBOL        Column
  D:0022H         SYMBOL        Number
  D:0024H         SYMBOL        Length
  -------         DO            
  D:0002H         SYMBOL        i
BL51 BANKED LINKER/LOCATER V6.22.4.0                                                  05/19/2024  18:05:02  PAGE 10


  D:0006H         SYMBOL        SingleNumber
  -------         ENDDO         
  C:0F17H         LINE#         189
  C:0F1BH         LINE#         190
  C:0F1BH         LINE#         192
  C:0F1EH         LINE#         193
  C:0F26H         LINE#         194
  C:0F26H         LINE#         195
  C:0F3CH         LINE#         196
  C:0F42H         LINE#         197
  C:0F42H         LINE#         198
  C:0F44H         LINE#         199
  C:0F46H         LINE#         201
  C:0F46H         LINE#         202
  C:0F4CH         LINE#         203
  C:0F4CH         LINE#         204
  C:0F4FH         LINE#         205
  -------         ENDPROC       _LCD_SHOWHEXNUM
  -------         PROC          _LCD_SHOWBINNUM
  D:0007H         SYMBOL        Line
  D:0005H         SYMBOL        Column
  D:0027H         SYMBOL        Number
  D:0029H         SYMBOL        Length
  -------         DO            
  D:0002H         SYMBOL        i
  -------         ENDDO         
  C:0F89H         LINE#         215
  C:0F8DH         LINE#         216
  C:0F8DH         LINE#         218
  C:0F90H         LINE#         219
  C:0F98H         LINE#         220
  C:0F98H         LINE#         221
  C:0FBDH         LINE#         222
  C:0FC0H         LINE#         223
  -------         ENDPROC       _LCD_SHOWBINNUM
  -------         ENDMOD        LCD1602

  -------         MODULE        AT24C02
  C:0000H         SYMBOL        _ICE_DUMMY_
  C:0FF4H         PUBLIC        _AT24C02_ReadByte
  C:10A1H         PUBLIC        _AT24C02_WriteByte
  -------         PROC          _AT24C02_WRITEBYTE
  D:0015H         SYMBOL        WordAddress
  D:0016H         SYMBOL        Data
  C:10A1H         LINE#         12
  C:10A7H         LINE#         13
  C:10A7H         LINE#         14
  C:10AAH         LINE#         15
  C:10AFH         LINE#         16
  C:10B2H         LINE#         17
  C:10B7H         LINE#         18
  C:10BAH         LINE#         19
  C:10BFH         LINE#         20
  C:10C2H         LINE#         21
  -------         ENDPROC       _AT24C02_WRITEBYTE
  -------         PROC          _AT24C02_READBYTE
  D:0015H         SYMBOL        WordAddress
BL51 BANKED LINKER/LOCATER V6.22.4.0                                                  05/19/2024  18:05:02  PAGE 11


  -------         DO            
  D:0016H         SYMBOL        Data
  -------         ENDDO         
  C:0FF4H         LINE#         29
  C:0FF6H         LINE#         30
  C:0FF6H         LINE#         32
  C:0FF9H         LINE#         33
  C:0FFEH         LINE#         34
  C:1001H         LINE#         35
  C:1006H         LINE#         36
  C:1009H         LINE#         37
  C:100CH         LINE#         38
  C:1011H         LINE#         39
  C:1014H         LINE#         40
  C:1019H         LINE#         41
  C:101EH         LINE#         42
  C:1021H         LINE#         43
  C:1023H         LINE#         44
  -------         ENDPROC       _AT24C02_READBYTE
  -------         ENDMOD        AT24C02

  -------         MODULE        I2C
  C:0000H         SYMBOL        _ICE_DUMMY_
  B:00A0H.1       PUBLIC        I2C_SCL
  D:00A0H         PUBLIC        P2
  C:129FH         PUBLIC        I2C_Start
  C:1295H         PUBLIC        _I2C_SendAck
  C:104FH         PUBLIC        _I2C_SendByte
  C:12A8H         PUBLIC        I2C_Stop
  C:1269H         PUBLIC        I2C_ReceiveAck
  B:00A0H.0       PUBLIC        I2C_SDA
  C:1106H         PUBLIC        I2C_ReceiveByte
  -------         PROC          I2C_START
  C:129FH         LINE#         12
  C:129FH         LINE#         13
  C:129FH         LINE#         14
  C:12A1H         LINE#         15
  C:12A3H         LINE#         16
  C:12A5H         LINE#         17
  C:12A7H         LINE#         18
  -------         ENDPROC       I2C_START
  -------         PROC          I2C_STOP
  C:12A8H         LINE#         25
  C:12A8H         LINE#         26
  C:12A8H         LINE#         27
  C:12AAH         LINE#         28
  C:12ACH         LINE#         29
  C:12AEH         LINE#         30
  -------         ENDPROC       I2C_STOP
  -------         PROC          _I2C_SENDBYTE
  D:0005H         SYMBOL        Byte
  -------         DO            
  D:0003H         SYMBOL        i
  -------         ENDDO         
  C:104FH         LINE#         37
  C:1051H         LINE#         38
  C:1051H         LINE#         40
BL51 BANKED LINKER/LOCATER V6.22.4.0                                                  05/19/2024  18:05:02  PAGE 12


  C:1053H         LINE#         41
  C:1053H         LINE#         42
  C:106FH         LINE#         43
  C:1071H         LINE#         44
  C:1073H         LINE#         45
  C:1077H         LINE#         46
  -------         ENDPROC       _I2C_SENDBYTE
  -------         PROC          I2C_RECEIVEBYTE
  -------         DO            
  D:0006H         SYMBOL        i
  D:0007H         SYMBOL        Byte
  -------         ENDDO         
  C:1106H         LINE#         53
  C:1106H         LINE#         54
  C:1106H         LINE#         55
  C:1108H         LINE#         56
  C:110AH         LINE#         57
  C:110BH         LINE#         58
  C:110BH         LINE#         59
  C:110DH         LINE#         60
  C:111DH         LINE#         61
  C:111FH         LINE#         62
  C:1123H         LINE#         63
  C:1123H         LINE#         64
  -------         ENDPROC       I2C_RECEIVEBYTE
  -------         PROC          _I2C_SENDACK
  D:0007H         SYMBOL        AckBit
  C:1295H         LINE#         71
  C:1295H         LINE#         72
  C:1295H         LINE#         73
  C:129AH         LINE#         74
  C:129CH         LINE#         75
  C:129EH         LINE#         76
  -------         ENDPROC       _I2C_SENDACK
  -------         PROC          I2C_RECEIVEACK
  -------         DO            
  D:0007H         SYMBOL        AckBit
  -------         ENDDO         
  C:1269H         LINE#         83
  C:1269H         LINE#         84
  C:1269H         LINE#         86
  C:126BH         LINE#         87
  C:126DH         LINE#         88
  C:1272H         LINE#         89
  C:1274H         LINE#         90
  C:1274H         LINE#         91
  -------         ENDPROC       I2C_RECEIVEACK
  -------         ENDMOD        I2C

  -------         MODULE        DS18B20
  C:0000H         SYMBOL        _ICE_DUMMY_
  C:125CH         PUBLIC        DS18B20_ConvertT
  C:1024H         PUBLIC        DS18B20_ReadT
  -------         PROC          DS18B20_CONVERTT
  C:125CH         LINE#         14
  C:125CH         LINE#         15
  C:125CH         LINE#         16
BL51 BANKED LINKER/LOCATER V6.22.4.0                                                  05/19/2024  18:05:02  PAGE 13


  C:125FH         LINE#         17
  C:1264H         LINE#         18
  -------         ENDPROC       DS18B20_CONVERTT
  -------         PROC          DS18B20_READT
  -------         DO            
  D:0015H         SYMBOL        TLSB
  D:0007H         SYMBOL        TMSB
  D:0006H         SYMBOL        Temp
  D:0004H         SYMBOL        T
  -------         ENDDO         
  C:1024H         LINE#         26
  C:1024H         LINE#         27
  C:1024H         LINE#         31
  C:1027H         LINE#         32
  C:102CH         LINE#         33
  C:1031H         LINE#         34
  C:1036H         LINE#         35
  C:1039H         LINE#         36
  C:103EH         LINE#         37
  -------         ENDPROC       DS18B20_READT
  -------         ENDMOD        DS18B20

  -------         MODULE        ONEWIRE
  C:0000H         SYMBOL        _ICE_DUMMY_
  D:00B0H         PUBLIC        P3
  B:00A8H.7       PUBLIC        EA
  C:117CH         PUBLIC        OneWire_ReceiveBit
  B:00B0H.7       PUBLIC        OneWire_DQ
  C:1124H         PUBLIC        OneWire_Init
  C:11B2H         PUBLIC        _OneWire_SendByte
  C:11F8H         PUBLIC        _OneWire_SendBit
  C:115FH         PUBLIC        OneWire_ReceiveByte
  -------         PROC          ONEWIRE_INIT
  -------         DO            
  D:0007H         SYMBOL        i
  D:0006H         SYMBOL        AckBit
  -------         ENDDO         
  C:1124H         LINE#         11
  C:1124H         LINE#         12
  C:1124H         LINE#         15
  C:1126H         LINE#         16
  C:1128H         LINE#         17
  C:112AH         LINE#         18
  C:112EH         LINE#         19
  C:1130H         LINE#         20
  C:1134H         LINE#         21
  C:1139H         LINE#         22
  C:113DH         LINE#         23
  C:113FH         LINE#         24
  C:1141H         LINE#         25
  -------         ENDPROC       ONEWIRE_INIT
  -------         PROC          _ONEWIRE_SENDBIT
  D:0007H         SYMBOL        Bit
  -------         DO            
  D:0006H         SYMBOL        i
  -------         ENDDO         
  C:11F8H         LINE#         32
BL51 BANKED LINKER/LOCATER V6.22.4.0                                                  05/19/2024  18:05:02  PAGE 14


  C:11F8H         LINE#         33
  C:11F8H         LINE#         35
  C:11FAH         LINE#         36
  C:11FCH         LINE#         37
  C:1200H         LINE#         38
  C:1205H         LINE#         39
  C:1209H         LINE#         40
  C:120BH         LINE#         41
  C:120DH         LINE#         42
  -------         ENDPROC       _ONEWIRE_SENDBIT
  -------         PROC          ONEWIRE_RECEIVEBIT
  -------         DO            
  D:0007H         SYMBOL        i
  D:0006H         SYMBOL        Bit
  -------         ENDDO         
  C:117CH         LINE#         49
  C:117CH         LINE#         50
  C:117CH         LINE#         53
  C:117EH         LINE#         54
  C:1180H         LINE#         55
  C:1184H         LINE#         56
  C:1186H         LINE#         57
  C:118AH         LINE#         58
  C:118FH         LINE#         59
  C:1193H         LINE#         60
  C:1195H         LINE#         61
  C:1197H         LINE#         62
  -------         ENDPROC       ONEWIRE_RECEIVEBIT
  -------         PROC          _ONEWIRE_SENDBYTE
  D:0005H         SYMBOL        Byte
  -------         DO            
  D:0004H         SYMBOL        i
  -------         ENDDO         
  C:11B2H         LINE#         69
  C:11B4H         LINE#         70
  C:11B4H         LINE#         72
  C:11B6H         LINE#         73
  C:11B6H         LINE#         74
  C:11C6H         LINE#         75
  C:11CAH         LINE#         76
  -------         ENDPROC       _ONEWIRE_SENDBYTE
  -------         PROC          ONEWIRE_RECEIVEBYTE
  -------         DO            
  D:0004H         SYMBOL        i
  D:0005H         SYMBOL        Byte
  -------         ENDDO         
  C:115FH         LINE#         83
  C:115FH         LINE#         84
  C:115FH         LINE#         86
  C:1161H         LINE#         87
  C:1162H         LINE#         88
  C:1162H         LINE#         89
  C:1175H         LINE#         90
  C:1179H         LINE#         91
  C:117BH         LINE#         92
  -------         ENDPROC       ONEWIRE_RECEIVEBYTE
  -------         ENDMOD        ONEWIRE
BL51 BANKED LINKER/LOCATER V6.22.4.0                                                  05/19/2024  18:05:02  PAGE 15



  -------         MODULE        KEY
  C:0000H         SYMBOL        _ICE_DUMMY_
  B:00B0H.0       PUBLIC        P3_0
  B:00B0H.1       PUBLIC        P3_1
  B:00B0H.2       PUBLIC        P3_2
  B:00B0H.3       PUBLIC        P3_3
  D:002CH         PUBLIC        Key_KeyNumber
  C:0F50H         PUBLIC        Key_Loop
  C:12AFH         PUBLIC        Key
  C:120EH         PUBLIC        Key_GetState
  -------         PROC          KEY
  -------         DO            
  D:0007H         SYMBOL        Temp
  -------         ENDDO         
  C:12AFH         LINE#         11
  C:12AFH         LINE#         12
  C:12AFH         LINE#         13
  C:12B0H         LINE#         14
  C:12B2H         LINE#         15
  C:12B4H         LINE#         16
  C:12B4H         LINE#         17
  -------         ENDPROC       KEY
  -------         PROC          KEY_GETSTATE
  -------         DO            
  D:0007H         SYMBOL        KeyNumber
  -------         ENDDO         
  C:120EH         LINE#         24
  C:120EH         LINE#         25
  C:120EH         LINE#         26
  C:1210H         LINE#         28
  C:1214H         LINE#         29
  C:1219H         LINE#         30
  C:121EH         LINE#         31
  C:1223H         LINE#         33
  C:1223H         LINE#         34
  -------         ENDPROC       KEY_GETSTATE
  -------         PROC          KEY_LOOP
  -------         DO            
  D:002AH         SYMBOL        NowState
  D:002BH         SYMBOL        LastState
  -------         ENDDO         
  C:0F50H         LINE#         41
  C:0F50H         LINE#         42
  C:0F50H         LINE#         44
  C:0F53H         LINE#         45
  C:0F58H         LINE#         47
  C:0F61H         LINE#         48
  C:0F61H         LINE#         49
  C:0F64H         LINE#         50
  C:0F64H         LINE#         51
  C:0F6DH         LINE#         52
  C:0F6DH         LINE#         53
  C:0F70H         LINE#         54
  C:0F70H         LINE#         55
  C:0F79H         LINE#         56
  C:0F79H         LINE#         57
BL51 BANKED LINKER/LOCATER V6.22.4.0                                                  05/19/2024  18:05:02  PAGE 16


  C:0F7CH         LINE#         58
  C:0F7CH         LINE#         59
  C:0F85H         LINE#         60
  C:0F85H         LINE#         61
  C:0F88H         LINE#         62
  C:0F88H         LINE#         63
  -------         ENDPROC       KEY_LOOP
  -------         ENDMOD        KEY

  -------         MODULE        TIMER0
  C:0000H         SYMBOL        _ICE_DUMMY_
  B:00A8H.7       PUBLIC        EA
  C:11CBH         PUBLIC        Timer0_Init
  D:0089H         PUBLIC        TMOD
  B:00A8H.1       PUBLIC        ET0
  B:0088H.5       PUBLIC        TF0
  D:008CH         PUBLIC        TH0
  D:008AH         PUBLIC        TL0
  B:00B8H.1       PUBLIC        PT0
  B:0088H.4       PUBLIC        TR0
  -------         PROC          TIMER0_INIT
  C:11CBH         LINE#         8
  C:11CBH         LINE#         9
  C:11CBH         LINE#         10
  C:11CEH         LINE#         11
  C:11D1H         LINE#         12
  C:11D4H         LINE#         13
  C:11D7H         LINE#         14
  C:11D9H         LINE#         15
  C:11DBH         LINE#         16
  C:11DDH         LINE#         17
  C:11DFH         LINE#         18
  C:11E1H         LINE#         19
  -------         ENDPROC       TIMER0_INIT
  -------         ENDMOD        TIMER0

  -------         MODULE        BUZZER
  C:0000H         SYMBOL        _ICE_DUMMY_
  D:00A0H         PUBLIC        P2
  B:00A0H.5       PUBLIC        Buzzer
  C:12B5H         PUBLIC        Buzzer_Delay500us
  D:002DH         PUBLIC        i
  C:1078H         PUBLIC        _Buzzer_Time
  -------         PROC          BUZZER_DELAY500US
  -------         DO            
  D:0007H         SYMBOL        i
  -------         ENDDO         
  C:12B5H         LINE#         14
  C:12B5H         LINE#         15
  C:12B5H         LINE#         18
  C:12B6H         LINE#         19
  C:12B8H         LINE#         20
  C:12BAH         LINE#         21
  -------         ENDPROC       BUZZER_DELAY500US
  -------         PROC          _BUZZER_TIME
  D:0004H         SYMBOL        ms
  C:1078H         LINE#         28
BL51 BANKED LINKER/LOCATER V6.22.4.0                                                  05/19/2024  18:05:02  PAGE 17


  C:107CH         LINE#         29
  C:107CH         LINE#         30
  C:1091H         LINE#         31
  C:1091H         LINE#         32
  C:1093H         LINE#         33
  C:1096H         LINE#         34
  C:10A0H         LINE#         35
  -------         ENDPROC       _BUZZER_TIME
  -------         ENDMOD        BUZZER

  -------         MODULE        ?C?FPMUL
  C:0800H         PUBLIC        ?C?FPMUL
  -------         ENDMOD        ?C?FPMUL

  -------         MODULE        ?C?FPDIV
  C:0909H         PUBLIC        ?C?FPDIV
  -------         ENDMOD        ?C?FPDIV

  -------         MODULE        ?C?FPCMP
  C:09A8H         PUBLIC        ?C?FPCMP
  C:09A6H         PUBLIC        ?C?FPCMP3
  -------         ENDMOD        ?C?FPCMP

  -------         MODULE        ?C?FPNEG
  C:0A1FH         PUBLIC        ?C?FPNEG
  -------         ENDMOD        ?C?FPNEG

  -------         MODULE        ?C?FCAST
  C:0A3AH         PUBLIC        ?C?FCASTC
  C:0A35H         PUBLIC        ?C?FCASTI
  C:0A30H         PUBLIC        ?C?FCASTL
  -------         ENDMOD        ?C?FCAST

  -------         MODULE        ?C?CASTF
  C:0A6EH         PUBLIC        ?C?CASTF
  -------         ENDMOD        ?C?CASTF

  -------         MODULE        ?C?CLDOPTR
  C:0AEFH         PUBLIC        ?C?CLDOPTR
  -------         ENDMOD        ?C?CLDOPTR

  -------         MODULE        ?C?IMUL
  C:0B1CH         PUBLIC        ?C?IMUL
  -------         ENDMOD        ?C?IMUL

  -------         MODULE        ?C?UIDIV
  C:0B2EH         PUBLIC        ?C?UIDIV
  -------         ENDMOD        ?C?UIDIV

  -------         MODULE        ?C?ULDIV
  C:0BBFH         PUBLIC        ?C?ULDIV
  -------         ENDMOD        ?C?ULDIV

  -------         MODULE        ?C?LNEG
  C:0C51H         PUBLIC        ?C?LNEG
  -------         ENDMOD        ?C?LNEG

BL51 BANKED LINKER/LOCATER V6.22.4.0                                                  05/19/2024  18:05:02  PAGE 18


******************************************************************************
* RESTRICTED VERSION WITH 0800H BYTE CODE SIZE LIMIT; USED: 0653H BYTE (79%) *
******************************************************************************

Program Size: data=48.0 xdata=0 code=2753
LINK/LOCATE RUN COMPLETE.  0 WARNING(S),  0 ERROR(S)
