:0D07420054656D70657261747572653A00E2
:1004620012074F7FE87E031206F812070D7BFF7A10
:100472000779427D017F0112061C12074F1205F017
:100482008F258E248D238C22E4FFFEFDFCAB25AA52
:1004920024A923A8221201A9501E7B2D7D017F02CF
:1004A200120772AF25AE24AD23AC221202228F2591
:1004B2008E248D238C2280097B2B7D017F021207E3
:1004C20072AF25AE24AD23AC22120271AB07AA068D
:1004D200750C037D027F0212065D7B2E7D057F0275
:1004E2001207727F007E407D1C7C46AB25AA24A9A0
:1004F20023A822120003120271E47B107A27F9F872
:100502001203C2750C047D067F0212065D02047C92
:1006F800EF1FAC0670011E4C600A7D027CEFDCFE29
:04070800DDFC80ECA8
:01070C0022CA
:06073300C2A58F80D2A7D1
:080739007F027EEFDEFEDFFC13
:010741002295
:0A076800C2A6120733C2A702073928
:10063F00CFCDCFCECCCE1203317C007D0A12033149
:04064F00ED2430FF67
:0A065300D2A6120733C2A70207392E
:1006E200AE07BE0104ED148006BE0209ED243F44AC
:0606F20080FF12076822E0
:10070D007F381207687F0C1207687F061207687F13
:04071D000102076866
:0A077200AC031206E2AF04020653C6
:06061C008B088A09890A1F
:100622001206E2E4FDAB08AA09A90A8D82758300CD
:0C0632001202F2FF60061206530D80E970
:01063E002299
:0C05BD007F0AEA24FFFDE434FFFC7E000E
:0805C9008E0D8F0E8C0F8D10BA
:1005D1007F017E00E4FBEBC39510E50F6480F874A6
:0E05E1008098500AAC0DAD0E12031F0B80E87F
:0105EF0022E9
:04065D008A0A8B0B6F
:100661001206E2AA0CEAD39400400D1205BDAC0AB1
:08067100AD0B12063F1A80EDEB
:01067900225E
:100512001206E2C3EA64809480400B7F2B120653DA
:100522008A168B17800E7F2D120653C3E49BF51794
:10053200E49AF516AA15EAD39400400D1205BDAC53
:0905420016AD1712063F1A80EDF8
:01054B00228D
:04054C008A1A8B1B61
:100550001206E2AA1CEAD3940040297F101205BFBC
:10056000AC1AAD1BCFCDCFCECCCE120331EF540F92
:10057000FEC3940AEE5004243080022437FF120692
:04058000531A80D1B9
:010584002254
:040585008A1F8B201E
:100589001206E2AA21EAD394004028EA24FFFDE4F6
:1005990034FFFC7F027E001205C9AC1FAD20CFCD10
:1005A900CFCECCCE120331EF54012430FF120653C3
:0305B9001A80D2D3
:0105BC00221C
:0D074F001206977FCC1206B17F440206B15E
:1005F0001206977FCC1206B17FBE1206B112067AA0
:100600008F0812067AEFFEE508FFFDAC06EC120239
:0B06100038E4FBFA7980784112010CFD
:01061B0022BC
:10069700D2B7C2B77FF7DFFED2B77F20DFFEA2B7A0
:0906A700E433FE7FF7DFFEAF062D
:0106B0002227
:10072100C2B77E04DEFEEF24FF92B77E18DEFED252
:01073100B710
:0107320022A4
:1006CA00C2B77F02DFFED2B77F02DFFEA2B7E433F2
:0706DA00FE7F18DFFEAF06F2
:0106E10022F6
:0206B100AD0793
:1006B300E4FC7401A804088002C333D8FC5DFF1274
:0606C30007210CBC08EC4D
:0106C900220E
:10067A00E4FDFC1206CAEF600D7401A804088002AA
:0C068A00C333D8FC42050CBC08E9AF05E6
:010696002241
:10000300EC4D6011E8497017ED33EC3304600DE4F7
:10001300FCFFFEFD22E933E8330470F80202DD122F
:1000230002A858046009E4CC248150062850090230
:1000330002E72840030202E4C0E0EB4A7044B980BF
:1000430006D0E0FB0202D3EF4E701CBD8008EBFF2D
:10005300EAFEE9FD80EBE98DF0A4FEE5F00200EC99
:10006300E9CDF9EAFEEBFFEF89F0A4FCE5F0CE89D8
:10007300F0A42EFFE435F0CD89F0A42DFEE435F095
:100083008067EF4E7005BD80D780C3EF8BF0A4ACC3
:10009300F0EE8BF0A42CFCE435F0F8EF8AF0A42CFE
:1000A300E5F038FCE433CB8DF0A42CFCE5F03BF811
:1000B300EE8AF0A42CFCE5F038F8E433CF89F0A401
:1000C3002CFCE5F038CF3400CE89F0A42FFFE5F007
:1000D3003EFEE433C98DF0A42EFEE5F039CD8AF05F
:1000E300A42FFFE5F03EFEE43DFD33D0E0FB5007D7
:1000F3000BBB000F0202E7EC2CFCEF33FFEE33FEE9
:06010300ED33FD0202BF16
:100109000202E7EC5D046005E8590470030202DDB0
:100119001202A8580460F6EC4860F2EC7004FDFE87
:10012900FF22C860DB2481C85009C39860025006C9
:100139000202E49850CAF582E9294B4A7005AB825C
:100149000202D375F0007C1A7880C3EF9BEE9AED1A
:1001590099400DC3EF9BFFEE9AFEED99FDE842F041
:10016900DC23ACF0D0E0FFD0E0FED0E0FDAB822094
:10017900E7101BEB60BAEC2CFCEF33FFEE33FEED1E
:1001890033FD0202BFE803F830E705C0F075F0005F
:10019900EF2FFFEE33FEED33FD40B830E7C280AA02
:1001A90074F8CC6480CCC86480C8F58204604FC3FD
:1001B900EB9FF5F0EA9E42F0E99D42F0E89C45F09C
:1001C900603C501DE5825FFFE582D313CB5BCBF426
:1001D9002B5582FB50280ABA002409B9002008804F
:1001E9001DE5825BFBE582D313CF5FCFF4C3132FE9
:1001F9005582FF50090EBE00050DBD00010CC3EB71
:100209009FF5F0EA9E42F0E99D42F0E89C45F060D6
:0902190007CC4820E701B3EC22F8
:10022200ED33EC33600A047003BD8004ECB2E7FCEA
:0102320022A9
:1002330075F020800E75F010800575F0087D007E46
:10024300007F003392D530D503120454EC334010B1
:10025300EF33FFEE33FEED33FDEC33FCD5F0ED224F
:0E026300E5F0247EA2D513CC92E7CDCEFF228B
:10027100EDD2E7CD33EC3392D524814006E4FFFE85
:10028100FDFC22FCE4CFCECDCC24E0501174FF80E4
:10029100EDC3CC13CCCD13CDCE13CECF13CF047081
:0702A100F030D5DE02045429
:1002A800E9D2E7C933E833F892D5EDD2E7CD33EC9C
:0702B80033FC5002B2D52215
:1002BF00EC30E7100FBF000C0EBE00080DBD0004A0
:1002CF000BEB6014A2D5EB13FCED92E7FD2274FF4C
:1002DF00FCFDFEFF22E480F8A2D574FF13FC7D80A5
:0302EF00E480EFB9
:0300000002075C98
:0C075C00787FE4F6D8FD75812502046268
:1002F200BB010CE58229F582E5833AF583E02250C1
:1003020006E92582F8E622BBFE06E92582F8E2220A
:0D031200E58229F582E5833AF583E4932224
:10031F00EF8DF0A4A8F0CF8CF0A428CE8DF0A42EF2
:02032F00FE22AC
:10033100BC000BBE0029EF8DF084FFADF022E4CCB0
:10034100F875F008EF2FFFEE33FEEC33FCEE9DEC79
:10035100984005FCEE9DFE0FD5F0E9E4CEFD22EDBF
:10036100F8F5F0EE8420D21CFEADF075F008EF2F09
:10037100FFED33FD4007985006D5F0F222C398FDFA
:050381000FD5F0EA2297
:1003860075F008758200EF2FFFEE33FECD33CDCC2E
:1003960033CCC58233C5829BED9AEC99E5829840B1
:1003A6000CF582EE9BFEED9AFDEC99FC0FD5F0D68E
:1003B600E4CEFBE4CDFAE4CCF9A88222B800C1B9B8
:1003C6000059BA002DEC8BF084CFCECDFCE5F0CBF6
:1003D600F97818EF2FFFEE33FEED33FDEC33FCEB2F
:1003E60033FB10D703994004EB99FB0FD8E5E4F9EA
:1003F600FA227818EF2FFFEE33FEED33FDEC33FCD7
:10040600C933C910D7059BE99A4007EC9BFCE99ACA
:10041600F90FD8E0E4C9FAE4CCFB2275F010EF2F0F
:10042600FFEE33FEED33FDCC33CCC833C810D7070F
:100436009BEC9AE899400AED9BFDEC9AFCE899F84A
:0E0446000FD5F0DAE4CDFBE4CCFAE4C8F922DD
:0E045400C3E49FFFE49EFEE49DFDE49CFC22B9
:00000001FF
