:10088C0000011104110412041404140412041104C0
:10089C000F040D040D040F041104110400010F04C6
:1008AC000F0411041104120414041404120411048E
:1008BC000F040D040D040F0411040F0400010D04AA
:1008CC000D040F040F0411040D040F041102120285
:0B08DC0011040D040D040F040808FFB8
:1008E700204A0A0000F88CF8F3F95BF9B8FA15FA10
:1008F70067FAB9FB04FB4BFB90FBCFFC10FC44FCF5
:1009070079FCACFCDCFD09FD34FD5CFD82FDA6FD38
:10091700C8FDE8FE06FE22FE3DFE56FE6EFE85FE83
:0D0927009AFEAEFEC1FED3FEE4FEF4FF0317
:1009350012099DE50890088C93FFF460208F090546
:1009450008E5089375F03EA4FFAEF01209B405085A
:10095500C28C7F057E001209B4D28C80D6C28CE48D
:04096500F50880CF42
:03000B000209697E
:10096900C0E0C0D075D000C000C006E50925E0246C
:100979000AF8E6FE08E64E6012E50925E0240AF8C1
:10098900E6FE08E6F58AEEF58CB2A5D006D000D0D1
:04099900D0D0E032A8
:10099D005389F0438901758A66758CFCC28DD28CA2
:0709AD00D2A9D2AFC2B922AA
:1009B400EF1FAC0670011E4C600A7D027CEFDCFE6A
:0409C400DDFC80ECEA
:0109C800220C
:03000000020800F3
:0C080000787FE4F6D8FD758153020847AC
:10080C00020935E493A3F8E493A34003F68001F2C4
:10081C0008DFF48029E493A3F85407240CC8C333ED
:10082C00C4540F4420C8834004F456800146F6DFBC
:10083C00E4800B01020408102040809008E7E47E5D
:10084C00019360BCA3FF543F30E509541FFEE493B1
:10085C00A360010ECF54C025E060A840B8E493A378
:10086C00FAE493A3F8E493A3C8C582C8CAC583CAA3
:10087C00F0A3C8C582C8CAC583CADFE9DEE780BE5B
:0109340000C2
:00000001FF
