BL51 BANKED LINKER/LOCATER V6.22.4.0                                                    03/14/2024  21:09:50  PAGE 1


BL51 BANKED LINKER/LOCATER V6.22.4.0, INVOKED BY:
C:\KEIL_V5\C51\BIN\BL51.EXE .\Objects\main.obj, .\Objects\Delay.obj, .\Objects\MatrixKey.obj, .\Objects\UART.obj TO .\Ob
>> jects\project PRINT (.\Listings\project.m51) RAMSIZE (256)


MEMORY MODEL: SMALL


INPUT MODULES INCLUDED:
  .\Objects\main.obj (MAIN)
  .\Objects\Delay.obj (DELAY)
  .\Objects\MatrixKey.obj (MATRIXKEY)
  .\Objects\UART.obj (UART)
  C:\KEIL_V5\C51\LIB\C51S.LIB (?C_STARTUP)


LINK MAP OF MODULE:  .\Objects\project (MAIN)


            TYPE    BASE      LENGTH    RELOCATION   SEGMENT NAME
            -----------------------------------------------------

            * * * * * * *   D A T A   M E M O R Y   * * * * * * *
            REG     0000H     0008H     ABSOLUTE     "REG BANK 0"
            DATA    0008H     0001H     UNIT         ?DT?MAIN
            DATA    0009H     0001H     UNIT         ?DT?MATRIXKEY?MATRIXKEY
            IDATA   000AH     0001H     UNIT         ?STACK

            * * * * * * *   C O D E   M E M O R Y   * * * * * * *
            CODE    0000H     0003H     ABSOLUTE     
                    0003H     07FDH                  *** GAP ***
            CODE    0800H     0189H     UNIT         ?PR?MATRIXKEY?MATRIXKEY
            CODE    0989H     0017H     UNIT         ?PR?UART_INIT?UART
            CODE    09A0H     0015H     UNIT         ?PR?_DELAY?DELAY
            CODE    09B5H     0013H     UNIT         ?PR?MAIN?MAIN
            CODE    09C8H     000CH     UNIT         ?C_C51STARTUP
            CODE    09D4H     0008H     UNIT         ?PR?_UART_SENDBYTE?UART



OVERLAY MAP OF MODULE:   .\Objects\project (MAIN)


SEGMENT
  +--> CALLED SEGMENT
---------------------
?C_C51STARTUP
  +--> ?PR?MAIN?MAIN

?PR?MAIN?MAIN
  +--> ?PR?UART_INIT?UART
  +--> ?PR?_UART_SENDBYTE?UART
  +--> ?PR?_DELAY?DELAY



SYMBOL TABLE OF MODULE:  .\Objects\project (MAIN)

BL51 BANKED LINKER/LOCATER V6.22.4.0                                                  03/14/2024  21:09:50  PAGE 2


  VALUE           TYPE          NAME
  ----------------------------------

  -------         MODULE        MAIN
  C:0000H         SYMBOL        _ICE_DUMMY_
  D:0008H         PUBLIC        Sec
  C:09B5H         PUBLIC        main
  -------         PROC          MAIN
  C:09B5H         LINE#         8
  C:09B5H         LINE#         9
  C:09B5H         LINE#         10
  C:09B8H         LINE#         11
  C:09B8H         LINE#         12
  C:09B8H         LINE#         13
  C:09BDH         LINE#         14
  C:09C4H         LINE#         15
  C:09C6H         LINE#         16
  -------         ENDPROC       MAIN
  -------         ENDMOD        MAIN

  -------         MODULE        DELAY
  C:0000H         SYMBOL        _ICE_DUMMY_
  C:09A0H         PUBLIC        _Delay
  -------         PROC          _DELAY
  D:0006H         SYMBOL        xms
  -------         DO            
  D:0005H         SYMBOL        i
  D:0004H         SYMBOL        j
  -------         ENDDO         
  C:09A0H         LINE#         4
  C:09A0H         LINE#         5
  C:09A0H         LINE#         7
  C:09AAH         LINE#         8
  C:09AAH         LINE#         9
  C:09ACH         LINE#         10
  C:09AEH         LINE#         12
  C:09AEH         LINE#         13
  C:09B0H         LINE#         14
  C:09B2H         LINE#         15
  C:09B4H         LINE#         16
  -------         ENDPROC       _DELAY
  -------         ENDMOD        DELAY

  -------         MODULE        MATRIXKEY
  C:0000H         SYMBOL        _ICE_DUMMY_
  D:0090H         PUBLIC        P1
  B:0090H.0       PUBLIC        P1_0
  B:0090H.1       PUBLIC        P1_1
  B:0090H.2       PUBLIC        P1_2
  B:0090H.3       PUBLIC        P1_3
  B:0090H.4       PUBLIC        P1_4
  B:0090H.5       PUBLIC        P1_5
  B:0090H.6       PUBLIC        P1_6
  B:0090H.7       PUBLIC        P1_7
  C:0800H         PUBLIC        MatrixKey
  -------         PROC          MATRIXKEY
  -------         DO            
BL51 BANKED LINKER/LOCATER V6.22.4.0                                                  03/14/2024  21:09:50  PAGE 3


  D:0009H         SYMBOL        KeyNumber
  -------         ENDDO         
  C:0800H         LINE#         3
  C:0800H         LINE#         4
  C:0800H         LINE#         5
  C:0803H         LINE#         7
  C:0806H         LINE#         8
  C:0808H         LINE#         9
  C:081EH         LINE#         10
  C:0835H         LINE#         11
  C:084CH         LINE#         12
  C:0863H         LINE#         14
  C:0866H         LINE#         15
  C:0868H         LINE#         16
  C:087FH         LINE#         17
  C:0896H         LINE#         18
  C:08ADH         LINE#         19
  C:08C4H         LINE#         21
  C:08C7H         LINE#         22
  C:08C9H         LINE#         23
  C:08E0H         LINE#         24
  C:08F7H         LINE#         25
  C:090EH         LINE#         26
  C:0925H         LINE#         28
  C:0928H         LINE#         29
  C:092AH         LINE#         30
  C:0941H         LINE#         31
  C:0958H         LINE#         32
  C:096FH         LINE#         33
  C:0986H         LINE#         35
  C:0988H         LINE#         36
  -------         ENDPROC       MATRIXKEY
  -------         ENDMOD        MATRIXKEY

  -------         MODULE        UART
  C:0000H         SYMBOL        _ICE_DUMMY_
  B:0098H.1       PUBLIC        TI
  D:0099H         PUBLIC        SBUF
  D:0087H         PUBLIC        PCON
  C:0989H         PUBLIC        UART_Init
  D:0098H         PUBLIC        SCON
  D:0089H         PUBLIC        TMOD
  C:09D4H         PUBLIC        _UART_SendByte
  B:00A8H.3       PUBLIC        ET1
  D:008DH         PUBLIC        TH1
  D:008BH         PUBLIC        TL1
  B:0088H.6       PUBLIC        TR1
  -------         PROC          UART_INIT
  C:0989H         LINE#         9
  C:0989H         LINE#         10
  C:0989H         LINE#         11
  C:098CH         LINE#         12
  C:098FH         LINE#         14
  C:0992H         LINE#         15
  C:0995H         LINE#         16
  C:0998H         LINE#         17
  C:099BH         LINE#         18
BL51 BANKED LINKER/LOCATER V6.22.4.0                                                  03/14/2024  21:09:50  PAGE 4


  C:099DH         LINE#         19
  C:099FH         LINE#         21
  -------         ENDPROC       UART_INIT
  -------         PROC          _UART_SENDBYTE
  D:0007H         SYMBOL        Byte
  C:09D4H         LINE#         23
  C:09D4H         LINE#         24
  C:09D4H         LINE#         25
  C:09D6H         LINE#         26
  C:09D9H         LINE#         27
  C:09DBH         LINE#         28
  -------         ENDPROC       _UART_SENDBYTE
  -------         ENDMOD        UART

*** WARNING L16: UNCALLED SEGMENT, IGNORED FOR OVERLAY PROCESS
    SEGMENT: ?PR?MATRIXKEY?MATRIXKEY

******************************************************************************
* RESTRICTED VERSION WITH 0800H BYTE CODE SIZE LIMIT; USED: 01D0H BYTE (22%) *
******************************************************************************

Program Size: data=11.0 xdata=0 code=479
LINK/LOCATE RUN COMPLETE.  1 WARNING(S),  0 ERROR(S)
