BL51 BANKED LINKER/LOCATER V6.22.4.0                                                    12/21/2023  20:22:47  PAGE 1


BL51 BANKED LINKER/LOCATER V6.22.4.0, INVOKED BY:
C:\KEIL_V5\C51\BIN\BL51.EXE .\Objects\main.obj, .\Objects\Delay.obj, .\Objects\Nixie.obj, .\Objects\LCD1602.obj TO .\Obj
>> ects\project PRINT (.\Listings\project.m51) RAMSIZE (256)


MEMORY MODEL: SMALL


INPUT MODULES INCLUDED:
  .\Objects\main.obj (MAIN)
  .\Objects\Delay.obj (DELAY)
  .\Objects\Nixie.obj (NIXIE)
  .\Objects\LCD1602.obj (LCD1602)
  C:\KEIL_V5\C51\LIB\C51S.LIB (?C_STARTUP)
  C:\KEIL_V5\C51\LIB\C51S.LIB (?C?COPY)
  C:\KEIL_V5\C51\LIB\C51S.LIB (?C?CLDOPTR)
  C:\KEIL_V5\C51\LIB\C51S.LIB (?C?IMUL)
  C:\KEIL_V5\C51\LIB\C51S.LIB (?C?UIDIV)


LINK MAP OF MODULE:  .\Objects\project (MAIN)


            TYPE    BASE      LENGTH    RELOCATION   SEGMENT NAME
            -----------------------------------------------------

            * * * * * * *   D A T A   M E M O R Y   * * * * * * *
            REG     0000H     0008H     ABSOLUTE     "REG BANK 0"
            DATA    0008H     000DH     UNIT         _DATA_GROUP_
            DATA    0015H     0007H     UNIT         ?DT?_LCD_SHOWSIGNEDNUM?LCD1602
            DATA    001CH     0005H     UNIT         ?DT?_LCD_SHOWNUM?LCD1602
            DATA    0021H     0005H     UNIT         ?DT?_LCD_SHOWHEXNUM?LCD1602
            DATA    0026H     0005H     UNIT         ?DT?_LCD_SHOWBINNUM?LCD1602
            DATA    002BH     0004H     UNIT         ?DT?_LCD_POW?LCD1602
            IDATA   002FH     0001H     UNIT         ?STACK

            * * * * * * *   C O D E   M E M O R Y   * * * * * * *
            CODE    0000H     0003H     ABSOLUTE     
                    0003H     07FDH                  *** GAP ***
            CODE    0800H     018AH     UNIT         ?C?LIB_CODE
            CODE    098AH     009FH     UNIT         ?PR?MAIN?MAIN
            CODE    0A29H     0088H     UNIT         ?PR?_NIXIE?NIXIE
            CODE    0AB1H     003AH     UNIT         ?PR?_LCD_SHOWSIGNEDNUM?LCD1602
            CODE    0AEBH     0039H     UNIT         ?PR?_LCD_SHOWHEXNUM?LCD1602
            CODE    0B24H     0038H     UNIT         ?PR?_LCD_SHOWBINNUM?LCD1602
            CODE    0B5CH     0033H     UNIT         ?PR?_LCD_POW?LCD1602
            CODE    0B8FH     0023H     UNIT         ?PR?_LCD_SHOWSTRING?LCD1602
            CODE    0BB2H     001EH     UNIT         ?PR?_LCD_WRITEDATA?LCD1602
            CODE    0BD0H     001DH     UNIT         ?PR?_LCD_SHOWNUM?LCD1602
            CODE    0BEDH     001BH     UNIT         ?CO?MAIN
            CODE    0C08H     0016H     UNIT         ?PR?_LCD_SETCURSOR?LCD1602
            CODE    0C1EH     0015H     UNIT         ?PR?_DELAY?DELAY
            CODE    0C33H     0014H     UNIT         ?PR?LCD_INIT?LCD1602
            CODE    0C47H     000FH     UNIT         ?PR?LCD_DELAY?LCD1602
            CODE    0C56H     000CH     UNIT         ?C_C51STARTUP
            CODE    0C62H     000AH     UNIT         ?CO?NIXIE
            CODE    0C6CH     000AH     UNIT         ?PR?_LCD_WRITECOMMAND?LCD1602
            CODE    0C76H     000AH     UNIT         ?PR?_LCD_SHOWCHAR?LCD1602
BL51 BANKED LINKER/LOCATER V6.22.4.0                                                  12/21/2023  20:22:47  PAGE 2





OVERLAY MAP OF MODULE:   .\Objects\project (MAIN)


SEGMENT                                  DATA_GROUP 
  +--> CALLED SEGMENT                  START    LENGTH
------------------------------------------------------
?C_C51STARTUP                          -----    -----
  +--> ?PR?MAIN?MAIN

?PR?MAIN?MAIN                          -----    -----
  +--> ?PR?_DELAY?DELAY
  +--> ?PR?_NIXIE?NIXIE
  +--> ?PR?LCD_INIT?LCD1602
  +--> ?CO?MAIN
  +--> ?PR?_LCD_SHOWSTRING?LCD1602

?PR?_NIXIE?NIXIE                       0008H    000DH
  +--> ?CO?NIXIE
  +--> ?PR?_DELAY?DELAY

?PR?LCD_INIT?LCD1602                   -----    -----
  +--> ?PR?_LCD_WRITECOMMAND?LCD1602

?PR?_LCD_WRITECOMMAND?LCD1602          -----    -----
  +--> ?PR?LCD_DELAY?LCD1602

?PR?_LCD_SHOWSTRING?LCD1602            0008H    0003H
  +--> ?PR?_LCD_SETCURSOR?LCD1602
  +--> ?PR?_LCD_WRITEDATA?LCD1602

?PR?_LCD_SETCURSOR?LCD1602             -----    -----
  +--> ?PR?_LCD_WRITECOMMAND?LCD1602

?PR?_LCD_WRITEDATA?LCD1602             -----    -----
  +--> ?PR?LCD_DELAY?LCD1602



SYMBOL TABLE OF MODULE:  .\Objects\project (MAIN)

  VALUE           TYPE          NAME
  ----------------------------------

  -------         MODULE        MAIN
  C:0000H         SYMBOL        _ICE_DUMMY_
  C:098AH         PUBLIC        main
  -------         PROC          MAIN
  C:098AH         LINE#         6
  C:098AH         LINE#         7
  C:098AH         LINE#         8
  C:098AH         LINE#         9
  C:098AH         LINE#         10
  C:0991H         LINE#         11
  C:099AH         LINE#         12
BL51 BANKED LINKER/LOCATER V6.22.4.0                                                  12/21/2023  20:22:47  PAGE 3


  C:09A1H         LINE#         13
  C:09A9H         LINE#         14
  C:09B0H         LINE#         15
  C:09B9H         LINE#         16
  C:09C0H         LINE#         17
  C:09C9H         LINE#         18
  C:09D0H         LINE#         19
  C:09D9H         LINE#         20
  C:09E0H         LINE#         21
  C:09E9H         LINE#         22
  C:09F0H         LINE#         23
  C:09F9H         LINE#         24
  C:0A00H         LINE#         25
  C:0A09H         LINE#         29
  C:0A0CH         LINE#         31
  C:0A19H         LINE#         32
  C:0A26H         LINE#         33
  -------         ENDPROC       MAIN
  -------         ENDMOD        MAIN

  -------         MODULE        DELAY
  C:0000H         SYMBOL        _ICE_DUMMY_
  C:0C1EH         PUBLIC        _Delay
  -------         PROC          _DELAY
  D:0006H         SYMBOL        xms
  -------         DO            
  D:0005H         SYMBOL        i
  D:0004H         SYMBOL        j
  -------         ENDDO         
  C:0C1EH         LINE#         4
  C:0C1EH         LINE#         5
  C:0C1EH         LINE#         7
  C:0C28H         LINE#         8
  C:0C28H         LINE#         9
  C:0C2AH         LINE#         10
  C:0C2CH         LINE#         12
  C:0C2CH         LINE#         13
  C:0C2EH         LINE#         14
  C:0C30H         LINE#         15
  C:0C32H         LINE#         16
  -------         ENDPROC       _DELAY
  -------         ENDMOD        DELAY

  -------         MODULE        NIXIE
  C:0000H         SYMBOL        _ICE_DUMMY_
  C:0A29H         PUBLIC        _Nixie
  D:0080H         PUBLIC        P0
  B:00A0H.2       PUBLIC        P2_2
  B:00A0H.3       PUBLIC        P2_3
  B:00A0H.4       PUBLIC        P2_4
  C:0C62H         SYMBOL        _?ix1000
  -------         PROC          _NIXIE
  D:0008H         SYMBOL        Location
  D:0009H         SYMBOL        Number
  -------         DO            
  D:000BH         SYMBOL        NixieTable
  -------         ENDDO         
BL51 BANKED LINKER/LOCATER V6.22.4.0                                                  12/21/2023  20:22:47  PAGE 4


  C:0A29H         LINE#         4
  C:0A2FH         LINE#         5
  C:0A2FH         LINE#         6
  C:0A42H         LINE#         8
  C:0A70H         LINE#         9
  C:0A70H         LINE#         10
  C:0A74H         LINE#         11
  C:0A78H         LINE#         12
  C:0A7CH         LINE#         13
  C:0A80H         LINE#         14
  C:0A88H         LINE#         15
  C:0A90H         LINE#         16
  C:0A98H         LINE#         17
  C:0A9EH         LINE#         18
  C:0A9EH         LINE#         19
  C:0AA6H         LINE#         20
  C:0AADH         LINE#         21
  C:0AB0H         LINE#         22
  -------         ENDPROC       _NIXIE
  -------         ENDMOD        NIXIE

  -------         MODULE        LCD1602
  C:0000H         SYMBOL        _ICE_DUMMY_
  D:0080H         PUBLIC        P0
  D:00A0H         PUBLIC        P2
  C:0C6CH         PUBLIC        _LCD_WriteCommand
  C:0BD0H         PUBLIC        _LCD_ShowNum
  C:0B24H         PUBLIC        _LCD_ShowBinNum
  C:0C4DH         PUBLIC        LCD_Delay
  C:0AEBH         PUBLIC        _LCD_ShowHexNum
  C:0BC6H         PUBLIC        _LCD_WriteData
  B:00A0H.7       PUBLIC        LCD_EN
  C:0C33H         PUBLIC        LCD_Init
  C:0B8FH         PUBLIC        _LCD_ShowString
  C:0C76H         PUBLIC        _LCD_ShowChar
  B:00A0H.6       PUBLIC        LCD_RS
  B:00A0H.5       PUBLIC        LCD_RW
  C:0C08H         PUBLIC        _LCD_SetCursor
  C:0AB1H         PUBLIC        _LCD_ShowSignedNum
  C:0B68H         PUBLIC        _LCD_Pow
  -------         PROC          L?0048
  -------         ENDPROC       L?0048
  -------         PROC          LCD_DELAY
  -------         DO            
  D:0007H         SYMBOL        i
  D:0006H         SYMBOL        j
  -------         ENDDO         
  C:0C4DH         LINE#         15
  C:0C4DH         LINE#         16
  C:0C4DH         LINE#         18
  C:0C4FH         LINE#         19
  C:0C51H         LINE#         21
  C:0C51H         LINE#         22
  C:0C53H         LINE#         23
  C:0C55H         LINE#         24
  -------         ENDPROC       LCD_DELAY
  -------         PROC          _LCD_WRITECOMMAND
BL51 BANKED LINKER/LOCATER V6.22.4.0                                                  12/21/2023  20:22:47  PAGE 5


  D:0007H         SYMBOL        Command
  C:0C6CH         LINE#         30
  C:0C6CH         LINE#         31
  C:0C6CH         LINE#         32
  C:0C6EH         LINE#         33
  C:0C6EH         LINE#         34
  C:0C6EH         LINE#         35
  C:0C6EH         LINE#         36
  C:0C71H         LINE#         37
  C:0C73H         LINE#         38
  -------         ENDPROC       _LCD_WRITECOMMAND
  -------         PROC          L?0047
  -------         ENDPROC       L?0047
  -------         PROC          _LCD_WRITEDATA
  D:0007H         SYMBOL        Data
  C:0BC6H         LINE#         46
  C:0BC6H         LINE#         47
  C:0BC6H         LINE#         48
  C:0BC8H         LINE#         49
  C:0BC8H         LINE#         50
  C:0BC8H         LINE#         51
  C:0BC8H         LINE#         52
  C:0BCBH         LINE#         53
  C:0BCDH         LINE#         54
  -------         ENDPROC       _LCD_WRITEDATA
  -------         PROC          _LCD_SETCURSOR
  D:0006H         SYMBOL        Line
  D:0005H         SYMBOL        Column
  C:0C08H         LINE#         63
  C:0C0AH         LINE#         64
  C:0C0AH         LINE#         65
  C:0C0DH         LINE#         66
  C:0C0DH         LINE#         67
  C:0C0FH         LINE#         68
  C:0C11H         LINE#         69
  C:0C14H         LINE#         70
  C:0C14H         LINE#         71
  C:0C1DH         LINE#         72
  C:0C1DH         LINE#         73
  -------         ENDPROC       _LCD_SETCURSOR
  -------         PROC          LCD_INIT
  C:0C33H         LINE#         80
  C:0C33H         LINE#         81
  C:0C33H         LINE#         82
  C:0C38H         LINE#         83
  C:0C3DH         LINE#         84
  C:0C42H         LINE#         85
  -------         ENDPROC       LCD_INIT
  -------         PROC          _LCD_SHOWCHAR
  D:0006H         SYMBOL        Line
  D:0005H         SYMBOL        Column
  D:0004H         SYMBOL        Char
  C:0C76H         LINE#         95
  C:0C78H         LINE#         96
  C:0C78H         LINE#         97
  C:0C7BH         LINE#         98
  -------         ENDPROC       _LCD_SHOWCHAR
BL51 BANKED LINKER/LOCATER V6.22.4.0                                                  12/21/2023  20:22:47  PAGE 6


  -------         PROC          _LCD_SHOWSTRING
  D:0007H         SYMBOL        Line
  D:0005H         SYMBOL        Column
  D:0008H         SYMBOL        String
  -------         DO            
  D:0005H         SYMBOL        i
  -------         ENDDO         
  C:0B8FH         LINE#         108
  C:0B95H         LINE#         109
  C:0B95H         LINE#         111
  C:0B98H         LINE#         112
  C:0BABH         LINE#         113
  C:0BABH         LINE#         114
  C:0BAEH         LINE#         115
  C:0BB1H         LINE#         116
  -------         ENDPROC       _LCD_SHOWSTRING
  C:0B5EH         SYMBOL        L?0046
  -------         PROC          L?0045
  -------         ENDPROC       L?0045
  C:0B5EH         SYMBOL        L?0046
  -------         PROC          _LCD_POW
  D:002BH         SYMBOL        X
  D:002DH         SYMBOL        Y
  -------         DO            
  D:0003H         SYMBOL        i
  D:0006H         SYMBOL        Result
  -------         ENDDO         
  C:0B68H         LINE#         121
  C:0B70H         LINE#         122
  C:0B70H         LINE#         124
  C:0B74H         LINE#         125
  C:0B84H         LINE#         126
  C:0B84H         LINE#         127
  C:0B8BH         LINE#         128
  C:0B8EH         LINE#         129
  C:0B8EH         LINE#         130
  -------         ENDPROC       _LCD_POW
  -------         PROC          _LCD_SHOWNUM
  D:0007H         SYMBOL        Line
  D:0005H         SYMBOL        Column
  D:001EH         SYMBOL        Number
  D:0020H         SYMBOL        Length
  -------         DO            
  D:0002H         SYMBOL        i
  -------         ENDDO         
  C:0BD0H         LINE#         140
  C:0BD4H         LINE#         141
  C:0BD4H         LINE#         143
  C:0BD7H         LINE#         144
  C:0BDFH         LINE#         145
  C:0BDFH         LINE#         146
  C:0BE9H         LINE#         147
  C:0BECH         LINE#         148
  -------         ENDPROC       _LCD_SHOWNUM
  -------         PROC          _LCD_SHOWSIGNEDNUM
  D:0007H         SYMBOL        Line
  D:0005H         SYMBOL        Column
BL51 BANKED LINKER/LOCATER V6.22.4.0                                                  12/21/2023  20:22:47  PAGE 7


  D:0002H         SYMBOL        Number
  D:0019H         SYMBOL        Length
  -------         DO            
  D:0002H         SYMBOL        i
  D:001AH         SYMBOL        Number1
  -------         ENDDO         
  C:0AB1H         LINE#         158
  C:0AB1H         LINE#         159
  C:0AB1H         LINE#         162
  C:0AB4H         LINE#         163
  C:0ABCH         LINE#         164
  C:0ABCH         LINE#         165
  C:0AC1H         LINE#         166
  C:0AC5H         LINE#         167
  C:0AC7H         LINE#         169
  C:0AC7H         LINE#         170
  C:0ACCH         LINE#         171
  C:0AD5H         LINE#         172
  C:0AD5H         LINE#         173
  C:0ADDH         LINE#         174
  C:0ADDH         LINE#         175
  C:0AE7H         LINE#         176
  C:0AEAH         LINE#         177
  -------         ENDPROC       _LCD_SHOWSIGNEDNUM
  -------         PROC          _LCD_SHOWHEXNUM
  D:0007H         SYMBOL        Line
  D:0005H         SYMBOL        Column
  D:0023H         SYMBOL        Number
  D:0025H         SYMBOL        Length
  -------         DO            
  D:0002H         SYMBOL        i
  D:0006H         SYMBOL        SingleNumber
  -------         ENDDO         
  C:0AEBH         LINE#         187
  C:0AEFH         LINE#         188
  C:0AEFH         LINE#         190
  C:0AF2H         LINE#         191
  C:0AFAH         LINE#         192
  C:0AFAH         LINE#         193
  C:0B10H         LINE#         194
  C:0B16H         LINE#         195
  C:0B16H         LINE#         196
  C:0B18H         LINE#         197
  C:0B1AH         LINE#         199
  C:0B1AH         LINE#         200
  C:0B20H         LINE#         201
  C:0B20H         LINE#         202
  C:0B23H         LINE#         203
  -------         ENDPROC       _LCD_SHOWHEXNUM
  -------         PROC          _LCD_SHOWBINNUM
  D:0007H         SYMBOL        Line
  D:0005H         SYMBOL        Column
  D:0028H         SYMBOL        Number
  D:002AH         SYMBOL        Length
  -------         DO            
  D:0002H         SYMBOL        i
  -------         ENDDO         
BL51 BANKED LINKER/LOCATER V6.22.4.0                                                  12/21/2023  20:22:47  PAGE 8


  C:0B24H         LINE#         213
  C:0B28H         LINE#         214
  C:0B28H         LINE#         216
  C:0B2BH         LINE#         217
  C:0B33H         LINE#         218
  C:0B33H         LINE#         219
  C:0B58H         LINE#         220
  C:0B5BH         LINE#         221
  -------         ENDPROC       _LCD_SHOWBINNUM
  -------         ENDMOD        LCD1602

  -------         MODULE        ?C?COPY
  C:08D0H         PUBLIC        ?C?COPY
  -------         ENDMOD        ?C?COPY

  -------         MODULE        ?C?CLDOPTR
  C:08F6H         PUBLIC        ?C?CLDOPTR
  -------         ENDMOD        ?C?CLDOPTR

  -------         MODULE        ?C?IMUL
  C:0923H         PUBLIC        ?C?IMUL
  -------         ENDMOD        ?C?IMUL

  -------         MODULE        ?C?UIDIV
  C:0935H         PUBLIC        ?C?UIDIV
  -------         ENDMOD        ?C?UIDIV

*** WARNING L16: UNCALLED SEGMENT, IGNORED FOR OVERLAY PROCESS
    SEGMENT: ?PR?_LCD_SHOWCHAR?LCD1602

*** WARNING L16: UNCALLED SEGMENT, IGNORED FOR OVERLAY PROCESS
    SEGMENT: ?PR?_LCD_SHOWNUM?LCD1602

*** WARNING L16: UNCALLED SEGMENT, IGNORED FOR OVERLAY PROCESS
    SEGMENT: ?PR?_LCD_SHOWSIGNEDNUM?LCD1602

*** WARNING L16: UNCALLED SEGMENT, IGNORED FOR OVERLAY PROCESS
    SEGMENT: ?PR?_LCD_SHOWHEXNUM?LCD1602

*** WARNING L16: UNCALLED SEGMENT, IGNORED FOR OVERLAY PROCESS
    SEGMENT: ?PR?_LCD_SHOWBINNUM?LCD1602

******************************************************************************
* RESTRICTED VERSION WITH 0800H BYTE CODE SIZE LIMIT; USED: 02EAH BYTE (36%) *
******************************************************************************

Program Size: data=48.0 xdata=0 code=1155
LINK/LOCATE RUN COMPLETE.  5 WARNING(S),  0 ERROR(S)
