:1008F60075080075090AD2A07FF47E01120A27C284
:10090600A07FF47E01120A27E50915097002150871
:10091600E509450870E07D067C007F0112099F7F8E
:10092600017E00120A277D067C007F0312099F7F45
:10093600017E00120A277D067C007F0212099F7F36
:10094600017E00120A277D067C007F0412099F7F24
:10095600017E00120A277D067C007F0512099F7F13
:10096600017E00120A277D067C007F0612099F7F02
:10097600017E00120A277D067C007F0712099F7FF1
:10098600017E00120A277D067C007F0812099F7FE0
:09099600017E00120A2702091C6F
:100A2700EF1FAC0670011E4C600A7D027CEFDCFEF6
:040A3700DDFC80EC76
:010A3B002298
:0A0A48003F065B4F666D7D077F6F70
:06099F008F0A8C0B8D0C89
:1009A500780D7C007D007BFF7A0A79487E007F0AFE
:1009B5001208D0E50A14B4080050549009CE75F019
:1009C50003A4C58325F0C583730209E60209EA027B
:1009D50009EE0209F20209F60209FE020A06020AF6
:1009E5000ED2A4800ED2A48012D2A48016D2A480E6
:1009F5001AC2A4D2A3D2A28016C2A4D2A3C2A28034
:100A05000EC2A4C2A3D2A28006C2A4C2A3C2A2746B
:100A15000D250CF8E6F5807F017E00120A27E4F526
:010A25008050
:010A260022AD
:03000000020A3CB5
:0C0A3C00787FE4F6D8FD7581160208F6FC
:10080000E709F608DFFA8046E709F208DFFA803EDA
:1008100088828C83E709F0A3DFFA8032E309F608C7
:10082000DFFA8078E309F208DFFA807088828C832F
:10083000E309F0A3DFFA806489828A83E0A3F608E3
:10084000DFFA805889828A83E0A3F208DFFA804CBD
:1008500080D280FA80C680D4806980F28033801094
:1008600080A680EA809A80A880DA80E280CA8033FD
:1008700089828A83ECFAE493A3C8C582C8CCC58375
:10088000CCF0A3C8C582C8CCC583CCDFE9DEE78045
:100890000D89828A83E493A3F608DFF9ECFAA9F0C4
:1008A000EDFB2289828A83ECFAE0A3C8C582C8CC1A
:1008B000C583CCF0A3C8C582C8CCC583CCDFEADE33
:1008C000E880DB89828A83E493A3F208DFF980CC95
:1008D00088F0EF60010E4E60C388F0ED2402B4048E
:1008E0000050B9F582EB2402B4040050AF23234535
:0608F00082239008507302
:00000001FF
