:100BED00486170707920627269746864617921005E
:0B0BFD00546F2020536865727279006D
:10098A007F017E00120C1E7D027C007F01120A2963
:10099A007F017E00120C1EE4FDFC7F02120A297FF1
:1009AA00017E00120C1E7D027C007F03120A297F41
:1009BA00017E00120C1E7D037C007F04120A297F2F
:1009CA00017E00120C1E7D017C007F05120A297F20
:1009DA00017E00120C1E7D027C007F06120A297F0E
:1009EA00017E00120C1E7D027C007F07120A297FFD
:1009FA00017E00120C1E7D017C007F08120A29125A
:100A0A000C337BFF7A0B79ED7D017F01120B8F7B13
:0F0A1A00FF7A0B79FD7D077F02120B8F02098A8D
:100C1E00EF1FAC0670011E4C600A7D027CEFDCFEFD
:040C2E00DDFC80EC7D
:010C3200229F
:0A0C62003F065B4F666D7D077F6F54
:060A29008F088C098D0A04
:100A2F00780B7C007D007BFF7A0C79627E007F0A59
:100A3F001208D0E50814B408005054900A5875F005
:100A4F0003A4C58325F0C58373020A70020A7402DA
:100A5F000A78020A7C020A80020A88020A90020AB5
:100A6F0098D2A4800ED2A48012D2A48016D2A480D1
:100A7F001AC2A4D2A3D2A28016C2A4D2A3C2A280A9
:100A8F000EC2A4C2A3D2A28006C2A4C2A3C2A274E1
:100A9F000B250AF8E6F5807F017E00120C1EE4F5A7
:010AAF0080C6
:010AB0002223
:060C4700C2A58F80D2A7B8
:080C4D007F027EC7DEFEDFFC22
:010C5500227C
:0A0C6C00C2A6120C47C2A7020C4DED
:100BB200CFCDCFCECCCE1209357C007D0A120935BD
:040BC200ED2430FFEF
:0A0BC600D2A6120C47C2A7020C4D84
:100C0800AE07BE0104ED148006BE0209ED243F4480
:060C180080FF120C6C22AB
:100C33007F38120C6C7F0C120C6C7F06120C6C7FCD
:040C430001020C6C32
:0A0C7600AC03120C08AF04020BC619
:060B8F008B088A09890AA7
:100B9500120C08E4FDAB08AA09A90A8D8275830029
:0C0BA5001208F6FF6006120BC60D80E976
:010BB1002221
:0C0B5C007F0AEA24FFFDE434FFFC7E0069
:080B68008E2B8F2C8C2D8D2E9D
:100B70007F017E00E4FBEBC3952EE52D6480F874C5
:0E0B80008098500AAC2BAD2C1209230B80E894
:010B8E002244
:040BD0008A1E8B1FCF
:100BD400120C08AA20EAD39400400D120B5CAC1E40
:080BE400AD1F120BB21A80EDE7
:010BEC0022E6
:100AB100120C08C3EA64809480400B7F2B120BC692
:100AC1008A1A8B1B800E7F2D120BC6C3E49BF51B6C
:100AD100E49AF51AAA19EAD39400400D120B5CAC02
:090AE1001AAD1B120BB21A80EDD4
:010AEA0022E9
:040AEB008A238B24AB
:100AEF00120C08AA25EAD3940040297F10120B5E3E
:100AFF00AC23AD24CFCDCFCECCCE120935EF540FD2
:100B0F00FEC3940AEE5004243080022437FF120BE8
:040B1F00C61A80D1A1
:010B230022AF
:040B24008A288B2967
:100B2800120C08AA2AEAD394004028EA24FFFDE41C
:100B380034FFFC7F027E00120B68AC28AD29CFCDB4
:100B4800CFCECCCE120935EF54012430FF120BC69C
:030B58001A80D22E
:010B5B002277
:03000000020C5699
:0C0C5600787FE4F6D8FD75812E02098A33
:10080000E709F608DFFA8046E709F208DFFA803EDA
:1008100088828C83E709F0A3DFFA8032E309F608C7
:10082000DFFA8078E309F208DFFA807088828C832F
:10083000E309F0A3DFFA806489828A83E0A3F608E3
:10084000DFFA805889828A83E0A3F208DFFA804CBD
:1008500080D280FA80C680D4806980F28033801094
:1008600080A680EA809A80A880DA80E280CA8033FD
:1008700089828A83ECFAE493A3C8C582C8CCC58375
:10088000CCF0A3C8C582C8CCC583CCDFE9DEE78045
:100890000D89828A83E493A3F608DFF9ECFAA9F0C4
:1008A000EDFB2289828A83ECFAE0A3C8C582C8CC1A
:1008B000C583CCF0A3C8C582C8CCC583CCDFEADE33
:1008C000E880DB89828A83E493A3F208DFF980CC95
:1008D00088F0EF60010E4E60C388F0ED2402B4048E
:1008E0000050B9F582EB2402B4040050AF23234535
:0608F00082239008507302
:1008F600BB010CE58229F582E5833AF583E02250B7
:1009060006E92582F8E622BBFE06E92582F8E22200
:0D091600E58229F582E5833AF583E493221A
:10092300EF8DF0A4A8F0CF8CF0A428CE8DF0A42EE8
:02093300FE22A2
:10093500BC000BBE0029EF8DF084FFADF022E4CCA6
:10094500F875F008EF2FFFEE33FEEC33FCEE9DEC6F
:10095500984005FCEE9DFE0FD5F0E9E4CEFD22EDB5
:10096500F8F5F0EE8420D21CFEADF075F008EF2FFF
:10097500FFED33FD4007985006D5F0F222C398FDF0
:050985000FD5F0EA228D
:00000001FF
