:0E0B5600436C6F636B3A0020203A20203A0077
:090B6400011A3B011C3B011B17A7
:10092000120B33120AF17BFF7A0B79567D017F019E
:10093000120A937BFF7A0B795D7D017F02120A9385
:10094000E51BFB7A00750C027D017F02120AD4E5DB
:100950001CFB7A00750C027D047F02120AD4E51A92
:0F096000FB7A00750C027D077F02120AD480D14A
:03000B0002096F78
:04096F00C0E0C0D054
:10097300758A66758CFC0519E51970020518C39410
:10098300E8E51894034026751800751900051AE563
:100993001A943C4018751A00051CE51C943C400D44
:0D09A300751C00051BE51BB41803751B0037
:0509B000D0D0D0E032C0
:100B1E00EF1FAC0670011E4C600A7D027CEFDCFEFE
:040B2E00DDFC80EC7E
:010B320022A0
:060B4700C2A58F80D2A7B9
:080B4D007F027EC7DEFEDFFC23
:010B5500227D
:0A0B6E00C2A6120B47C2A7020B4DEE
:100AB600CFCDCFCECCCE12083F7C007D0A12083FA8
:040AC600ED2430FFEC
:0A0ACA00D2A6120B47C2A7020B4D83
:100B0800AE07BE0104ED148006BE0209ED243F4481
:060B180080FF120B6E22AB
:100B33007F38120B6E7F0C120B6E7F06120B6E7FCB
:040B430001020B6E32
:0A0B7800AC03120B08AF04020ACA16
:060A93008B088A09890AA4
:100A9900120B08E4FDAB08AA09A90A8D8275830027
:0C0AA900120800FF6006120ACA0D80E966
:010AB500221E
:0C0A60007F0AEA24FFFDE434FFFC7E0066
:080A6C008E0D8F0E8C0F8D1012
:100A74007F017E00E4FBEBC39510E50F6480F874FE
:0E0A84008098500AAC0DAD0E12082D0B80E8C4
:010A92002241
:040AD4008A0A8B0BF4
:100AD800120B08AA0CEAD39400400D120A60AC0A63
:080AE800AD0B120AB61A80EDF5
:010AF00022E3
:1009B500120B08C3EA64809480400B7F2B120ACA8D
:1009C5008A168B17800E7F2D120ACAC3E49BF51772
:1009D500E49AF516AA15EAD39400400D120A60AC04
:0909E50016AD17120AB61A80EDD6
:0109EE0022E6
:0409EF008A1F8B20B0
:1009F300120B08AA21EAD3940040297F10120A623D
:100A0300AC1FAD20CFCDCFCECCCE12083FEF540FCD
:100A1300FEC3940AEE5004243080022437FF120AE6
:040A2300CA1A80D19A
:010A270022AC
:040A28008A248B256C
:100A2C00120B08AA26EAD394004028EA24FFFDE41E
:100A3C0034FFFC7F027E00120A6CAC24AD25CFCDB6
:100A4C00CFCECCCE12083FEF54012430FF120ACA8D
:030A5C001A80D22B
:010A5F002274
:100AF1005389F0438901758A66758CFCC28DD28C4D
:070B0100D2A9D2AFC2B92254
:030000000208945F
:0C089400787FE4F6D8FD7581260208DBB1
:10080000BB010CE58229F582E5833AF583E02250AD
:1008100006E92582F8E622BBFE06E92582F8E222F7
:0D082000E58229F582E5833AF583E4932211
:10082D00EF8DF0A4A8F0CF8CF0A428CE8DF0A42EDF
:02083D00FE2299
:10083F00BC000BBE0029EF8DF084FFADF022E4CC9D
:10084F00F875F008EF2FFFEE33FEEC33FCEE9DEC66
:10085F00984005FCEE9DFE0FD5F0E9E4CEFD22EDAC
:10086F00F8F5F0EE8420D21CFEADF075F008EF2FF6
:10087F00FFED33FD4007985006D5F0F222C398FDE7
:05088F000FD5F0EA2284
:1008A000020920E493A3F8E493A34003F68001F245
:1008B00008DFF48029E493A3F85407240CC8C33359
:1008C000C4540F4420C8834004F456800146F6DF28
:1008D000E4800B0102040810204080900B64E47E49
:1008E000019360BCA3FF543F30E509541FFEE4931D
:1008F000A360010ECF54C025E060A840B8E493A3E4
:10090000FAE493A3F8E493A3C8C582C8CAC583CA0E
:10091000F0A3C8C582C8CAC583CADFE9DEE780BEC6
:010B6D000087
:00000001FF
