BL51 BANKED LINKER/LOCATER V6.22.4.0                                                    03/20/2024  16:22:53  PAGE 1


BL51 BANKED LINKER/LOCATER V6.22.4.0, INVOKED BY:
C:\KEIL_V5\C51\BIN\BL51.EXE .\Objects\main.obj, .\Objects\Delay.obj, .\Objects\LCD1602.obj, .\Objects\Key.obj, .\Objects
>> \AT24C02.obj, .\Objects\I2C.obj TO .\Objects\Project PRINT (.\Listings\Project.m51) RAMSIZE (256) DISABLEWARNING (16)
>> 


MEMORY MODEL: SMALL


INPUT MODULES INCLUDED:
  .\Objects\main.obj (MAIN)
  .\Objects\Delay.obj (DELAY)
  .\Objects\LCD1602.obj (LCD1602)
  .\Objects\Key.obj (KEY)
  .\Objects\AT24C02.obj (AT24C02)
  .\Objects\I2C.obj (I2C)
  C:\KEIL_V5\C51\LIB\C51S.LIB (?C_STARTUP)
  C:\KEIL_V5\C51\LIB\C51S.LIB (?C?CLDOPTR)
  C:\KEIL_V5\C51\LIB\C51S.LIB (?C?IMUL)
  C:\KEIL_V5\C51\LIB\C51S.LIB (?C?UIDIV)


LINK MAP OF MODULE:  .\Objects\Project (MAIN)


            TYPE    BASE      LENGTH    RELOCATION   SEGMENT NAME
            -----------------------------------------------------

            * * * * * * *   D A T A   M E M O R Y   * * * * * * *
            REG     0000H     0008H     ABSOLUTE     "REG BANK 0"
            DATA    0008H     0009H     UNIT         _DATA_GROUP_
            DATA    0011H     0007H     UNIT         ?DT?_LCD_SHOWSIGNEDNUM?LCD1602
            DATA    0018H     0005H     UNIT         ?DT?_LCD_SHOWHEXNUM?LCD1602
            DATA    001DH     0005H     UNIT         ?DT?_LCD_SHOWBINNUM?LCD1602
            DATA    0022H     0003H     UNIT         ?DT?MAIN
            IDATA   0025H     0001H     UNIT         ?STACK

            * * * * * * *   C O D E   M E M O R Y   * * * * * * *
            CODE    0000H     0003H     ABSOLUTE     
                    0003H     07FDH                  *** GAP ***
            CODE    0800H     00DFH     UNIT         ?PR?MAIN?MAIN
            CODE    08DFH     0094H     UNIT         ?C?LIB_CODE
            CODE    0973H     0061H     UNIT         ?PR?KEY?KEY
            CODE    09D4H     003AH     UNIT         ?PR?_LCD_SHOWSIGNEDNUM?LCD1602
            CODE    0A0EH     0039H     UNIT         ?PR?_LCD_SHOWHEXNUM?LCD1602
            CODE    0A47H     0038H     UNIT         ?PR?_LCD_SHOWBINNUM?LCD1602
            CODE    0A7FH     0033H     UNIT         ?PR?_LCD_POW?LCD1602
            CODE    0AB2H     0030H     UNIT         ?PR?_AT24C02_READBYTE?AT24C02
            CODE    0AE2H     0029H     UNIT         ?PR?_I2C_SENDBYTE?I2C
            CODE    0B0BH     0024H     UNIT         ?PR?_AT24C02_WRITEBYTE?AT24C02
            CODE    0B2FH     0023H     UNIT         ?PR?_LCD_SHOWSTRING?LCD1602
            CODE    0B52H     001EH     UNIT         ?PR?_LCD_WRITEDATA?LCD1602
            CODE    0B70H     001EH     UNIT         ?PR?I2C_RECEIVEBYTE?I2C
            CODE    0B8EH     001DH     UNIT         ?PR?_LCD_SHOWNUM?LCD1602
            CODE    0BABH     001BH     UNIT         ?CO?MAIN
            CODE    0BC6H     0016H     UNIT         ?PR?_LCD_SETCURSOR?LCD1602
            CODE    0BDCH     0015H     UNIT         ?PR?_DELAY?DELAY
            CODE    0BF1H     0014H     UNIT         ?PR?LCD_INIT?LCD1602
BL51 BANKED LINKER/LOCATER V6.22.4.0                                                  03/20/2024  16:22:53  PAGE 2


            CODE    0C05H     000FH     UNIT         ?PR?LCD_DELAY?LCD1602
            CODE    0C14H     000CH     UNIT         ?PR?I2C_RECEIVEACK?I2C
            CODE    0C20H     000CH     UNIT         ?C_C51STARTUP
            CODE    0C2CH     000AH     UNIT         ?PR?_LCD_WRITECOMMAND?LCD1602
            CODE    0C36H     000AH     UNIT         ?PR?_LCD_SHOWCHAR?LCD1602
            CODE    0C40H     000AH     UNIT         ?PR?_I2C_SENDACK?I2C
            CODE    0C4AH     0009H     UNIT         ?PR?I2C_START?I2C
            CODE    0C53H     0007H     UNIT         ?PR?I2C_STOP?I2C



OVERLAY MAP OF MODULE:   .\Objects\Project (MAIN)


SEGMENT                                  DATA_GROUP 
  +--> CALLED SEGMENT                  START    LENGTH
------------------------------------------------------
?C_C51STARTUP                          -----    -----
  +--> ?PR?MAIN?MAIN

?PR?MAIN?MAIN                          -----    -----
  +--> ?PR?LCD_INIT?LCD1602
  +--> ?PR?_LCD_SHOWNUM?LCD1602
  +--> ?PR?KEY?KEY
  +--> ?PR?_AT24C02_WRITEBYTE?AT24C02
  +--> ?PR?_DELAY?DELAY
  +--> ?CO?MAIN
  +--> ?PR?_LCD_SHOWSTRING?LCD1602
  +--> ?PR?_AT24C02_READBYTE?AT24C02

?PR?LCD_INIT?LCD1602                   -----    -----
  +--> ?PR?_LCD_WRITECOMMAND?LCD1602

?PR?_LCD_WRITECOMMAND?LCD1602          -----    -----
  +--> ?PR?LCD_DELAY?LCD1602

?PR?_LCD_SHOWNUM?LCD1602               0008H    0005H
  +--> ?PR?_LCD_SETCURSOR?LCD1602
  +--> ?PR?_LCD_POW?LCD1602
  +--> ?PR?_LCD_WRITEDATA?LCD1602

?PR?_LCD_SETCURSOR?LCD1602             -----    -----
  +--> ?PR?_LCD_WRITECOMMAND?LCD1602

?PR?_LCD_POW?LCD1602                   000DH    0004H

?PR?_LCD_WRITEDATA?LCD1602             -----    -----
  +--> ?PR?LCD_DELAY?LCD1602

?PR?KEY?KEY                            0008H    0001H
  +--> ?PR?_DELAY?DELAY

?PR?_AT24C02_WRITEBYTE?AT24C02         0008H    0003H
  +--> ?PR?I2C_START?I2C
  +--> ?PR?_I2C_SENDBYTE?I2C
  +--> ?PR?I2C_RECEIVEACK?I2C
  +--> ?PR?I2C_STOP?I2C
BL51 BANKED LINKER/LOCATER V6.22.4.0                                                  03/20/2024  16:22:53  PAGE 3



?PR?_LCD_SHOWSTRING?LCD1602            0008H    0003H
  +--> ?PR?_LCD_SETCURSOR?LCD1602
  +--> ?PR?_LCD_WRITEDATA?LCD1602

?PR?_AT24C02_READBYTE?AT24C02          0008H    0002H
  +--> ?PR?I2C_START?I2C
  +--> ?PR?_I2C_SENDBYTE?I2C
  +--> ?PR?I2C_RECEIVEACK?I2C
  +--> ?PR?I2C_RECEIVEBYTE?I2C
  +--> ?PR?_I2C_SENDACK?I2C
  +--> ?PR?I2C_STOP?I2C



SYMBOL TABLE OF MODULE:  .\Objects\Project (MAIN)

  VALUE           TYPE          NAME
  ----------------------------------

  -------         MODULE        MAIN
  C:0000H         SYMBOL        _ICE_DUMMY_
  C:0800H         PUBLIC        main
  D:0022H         PUBLIC        Num
  D:0024H         PUBLIC        KeyNum
  -------         PROC          MAIN
  C:0800H         LINE#         10
  C:0800H         LINE#         11
  C:0800H         LINE#         12
  C:0803H         LINE#         13
  C:0811H         LINE#         14
  C:0811H         LINE#         15
  C:0811H         LINE#         16
  C:0816H         LINE#         17
  C:081BH         LINE#         18
  C:081BH         LINE#         19
  C:0823H         LINE#         20
  C:0830H         LINE#         21
  C:0830H         LINE#         22
  C:0835H         LINE#         23
  C:0835H         LINE#         24
  C:083DH         LINE#         25
  C:084BH         LINE#         26
  C:084BH         LINE#         27
  C:0851H         LINE#         28
  C:0851H         LINE#         29
  C:0858H         LINE#         30
  C:085FH         LINE#         31
  C:0869H         LINE#         32
  C:0870H         LINE#         33
  C:087DH         LINE#         34
  C:0884H         LINE#         35
  C:0891H         LINE#         36
  C:0891H         LINE#         37
  C:089AH         LINE#         38
  C:089AH         LINE#         39
  C:08A3H         LINE#         40
BL51 BANKED LINKER/LOCATER V6.22.4.0                                                  03/20/2024  16:22:53  PAGE 4


  C:08ADH         LINE#         41
  C:08BBH         LINE#         42
  C:08C8H         LINE#         43
  C:08CFH         LINE#         44
  C:08DCH         LINE#         45
  C:08DCH         LINE#         46
  -------         ENDPROC       MAIN
  -------         ENDMOD        MAIN

  -------         MODULE        DELAY
  C:0000H         SYMBOL        _ICE_DUMMY_
  C:0BDCH         PUBLIC        _Delay
  -------         PROC          _DELAY
  D:0006H         SYMBOL        xms
  -------         DO            
  D:0005H         SYMBOL        i
  D:0004H         SYMBOL        j
  -------         ENDDO         
  C:0BDCH         LINE#         2
  C:0BDCH         LINE#         3
  C:0BDCH         LINE#         5
  C:0BE6H         LINE#         6
  C:0BE6H         LINE#         7
  C:0BE8H         LINE#         8
  C:0BEAH         LINE#         10
  C:0BEAH         LINE#         11
  C:0BECH         LINE#         12
  C:0BEEH         LINE#         13
  C:0BF0H         LINE#         14
  -------         ENDPROC       _DELAY
  -------         ENDMOD        DELAY

  -------         MODULE        LCD1602
  C:0000H         SYMBOL        _ICE_DUMMY_
  D:0080H         PUBLIC        P0
  D:00A0H         PUBLIC        P2
  C:0C2CH         PUBLIC        _LCD_WriteCommand
  C:0B8EH         PUBLIC        _LCD_ShowNum
  C:0A47H         PUBLIC        _LCD_ShowBinNum
  C:0C0BH         PUBLIC        LCD_Delay
  C:0A0EH         PUBLIC        _LCD_ShowHexNum
  C:0B66H         PUBLIC        _LCD_WriteData
  B:00A0H.7       PUBLIC        LCD_EN
  C:0BF1H         PUBLIC        LCD_Init
  C:0B2FH         PUBLIC        _LCD_ShowString
  C:0C36H         PUBLIC        _LCD_ShowChar
  B:00A0H.6       PUBLIC        LCD_RS
  B:00A0H.5       PUBLIC        LCD_RW
  C:0BC6H         PUBLIC        _LCD_SetCursor
  C:09D4H         PUBLIC        _LCD_ShowSignedNum
  C:0A8BH         PUBLIC        _LCD_Pow
  -------         PROC          L?0048
  -------         ENDPROC       L?0048
  -------         PROC          LCD_DELAY
  -------         DO            
  D:0007H         SYMBOL        i
  D:0006H         SYMBOL        j
BL51 BANKED LINKER/LOCATER V6.22.4.0                                                  03/20/2024  16:22:53  PAGE 5


  -------         ENDDO         
  C:0C0BH         LINE#         15
  C:0C0BH         LINE#         16
  C:0C0BH         LINE#         19
  C:0C0DH         LINE#         20
  C:0C0FH         LINE#         22
  C:0C0FH         LINE#         23
  C:0C11H         LINE#         24
  C:0C13H         LINE#         25
  -------         ENDPROC       LCD_DELAY
  -------         PROC          _LCD_WRITECOMMAND
  D:0007H         SYMBOL        Command
  C:0C2CH         LINE#         32
  C:0C2CH         LINE#         33
  C:0C2CH         LINE#         34
  C:0C2EH         LINE#         35
  C:0C2EH         LINE#         36
  C:0C2EH         LINE#         37
  C:0C2EH         LINE#         38
  C:0C31H         LINE#         39
  C:0C33H         LINE#         40
  -------         ENDPROC       _LCD_WRITECOMMAND
  -------         PROC          L?0047
  -------         ENDPROC       L?0047
  -------         PROC          _LCD_WRITEDATA
  D:0007H         SYMBOL        Data
  C:0B66H         LINE#         48
  C:0B66H         LINE#         49
  C:0B66H         LINE#         50
  C:0B68H         LINE#         51
  C:0B68H         LINE#         52
  C:0B68H         LINE#         53
  C:0B68H         LINE#         54
  C:0B6BH         LINE#         55
  C:0B6DH         LINE#         56
  -------         ENDPROC       _LCD_WRITEDATA
  -------         PROC          _LCD_SETCURSOR
  D:0006H         SYMBOL        Line
  D:0005H         SYMBOL        Column
  C:0BC6H         LINE#         65
  C:0BC8H         LINE#         66
  C:0BC8H         LINE#         67
  C:0BCBH         LINE#         68
  C:0BCBH         LINE#         69
  C:0BCDH         LINE#         70
  C:0BCFH         LINE#         71
  C:0BD2H         LINE#         72
  C:0BD2H         LINE#         73
  C:0BDBH         LINE#         74
  C:0BDBH         LINE#         75
  -------         ENDPROC       _LCD_SETCURSOR
  -------         PROC          LCD_INIT
  C:0BF1H         LINE#         82
  C:0BF1H         LINE#         83
  C:0BF1H         LINE#         84
  C:0BF6H         LINE#         85
  C:0BFBH         LINE#         86
BL51 BANKED LINKER/LOCATER V6.22.4.0                                                  03/20/2024  16:22:53  PAGE 6


  C:0C00H         LINE#         87
  -------         ENDPROC       LCD_INIT
  -------         PROC          _LCD_SHOWCHAR
  D:0006H         SYMBOL        Line
  D:0005H         SYMBOL        Column
  D:0004H         SYMBOL        Char
  C:0C36H         LINE#         97
  C:0C38H         LINE#         98
  C:0C38H         LINE#         99
  C:0C3BH         LINE#         100
  -------         ENDPROC       _LCD_SHOWCHAR
  -------         PROC          _LCD_SHOWSTRING
  D:0007H         SYMBOL        Line
  D:0005H         SYMBOL        Column
  D:0008H         SYMBOL        String
  -------         DO            
  D:0005H         SYMBOL        i
  -------         ENDDO         
  C:0B2FH         LINE#         110
  C:0B35H         LINE#         111
  C:0B35H         LINE#         113
  C:0B38H         LINE#         114
  C:0B4BH         LINE#         115
  C:0B4BH         LINE#         116
  C:0B4EH         LINE#         117
  C:0B51H         LINE#         118
  -------         ENDPROC       _LCD_SHOWSTRING
  C:0A81H         SYMBOL        L?0046
  -------         PROC          L?0045
  -------         ENDPROC       L?0045
  C:0A81H         SYMBOL        L?0046
  -------         PROC          _LCD_POW
  D:000DH         SYMBOL        X
  D:000FH         SYMBOL        Y
  -------         DO            
  D:0003H         SYMBOL        i
  D:0006H         SYMBOL        Result
  -------         ENDDO         
  C:0A8BH         LINE#         123
  C:0A93H         LINE#         124
  C:0A93H         LINE#         126
  C:0A97H         LINE#         127
  C:0AA7H         LINE#         128
  C:0AA7H         LINE#         129
  C:0AAEH         LINE#         130
  C:0AB1H         LINE#         131
  C:0AB1H         LINE#         132
  -------         ENDPROC       _LCD_POW
  -------         PROC          _LCD_SHOWNUM
  D:0007H         SYMBOL        Line
  D:0005H         SYMBOL        Column
  D:000AH         SYMBOL        Number
  D:000CH         SYMBOL        Length
  -------         DO            
  D:0002H         SYMBOL        i
  -------         ENDDO         
  C:0B8EH         LINE#         142
BL51 BANKED LINKER/LOCATER V6.22.4.0                                                  03/20/2024  16:22:53  PAGE 7


  C:0B92H         LINE#         143
  C:0B92H         LINE#         145
  C:0B95H         LINE#         146
  C:0B9DH         LINE#         147
  C:0B9DH         LINE#         148
  C:0BA7H         LINE#         149
  C:0BAAH         LINE#         150
  -------         ENDPROC       _LCD_SHOWNUM
  -------         PROC          _LCD_SHOWSIGNEDNUM
  D:0007H         SYMBOL        Line
  D:0005H         SYMBOL        Column
  D:0002H         SYMBOL        Number
  D:0015H         SYMBOL        Length
  -------         DO            
  D:0002H         SYMBOL        i
  D:0016H         SYMBOL        Number1
  -------         ENDDO         
  C:09D4H         LINE#         160
  C:09D4H         LINE#         161
  C:09D4H         LINE#         164
  C:09D7H         LINE#         165
  C:09DFH         LINE#         166
  C:09DFH         LINE#         167
  C:09E4H         LINE#         168
  C:09E8H         LINE#         169
  C:09EAH         LINE#         171
  C:09EAH         LINE#         172
  C:09EFH         LINE#         173
  C:09F8H         LINE#         174
  C:09F8H         LINE#         175
  C:0A00H         LINE#         176
  C:0A00H         LINE#         177
  C:0A0AH         LINE#         178
  C:0A0DH         LINE#         179
  -------         ENDPROC       _LCD_SHOWSIGNEDNUM
  -------         PROC          _LCD_SHOWHEXNUM
  D:0007H         SYMBOL        Line
  D:0005H         SYMBOL        Column
  D:001AH         SYMBOL        Number
  D:001CH         SYMBOL        Length
  -------         DO            
  D:0002H         SYMBOL        i
  D:0006H         SYMBOL        SingleNumber
  -------         ENDDO         
  C:0A0EH         LINE#         189
  C:0A12H         LINE#         190
  C:0A12H         LINE#         192
  C:0A15H         LINE#         193
  C:0A1DH         LINE#         194
  C:0A1DH         LINE#         195
  C:0A33H         LINE#         196
  C:0A39H         LINE#         197
  C:0A39H         LINE#         198
  C:0A3BH         LINE#         199
  C:0A3DH         LINE#         201
  C:0A3DH         LINE#         202
  C:0A43H         LINE#         203
BL51 BANKED LINKER/LOCATER V6.22.4.0                                                  03/20/2024  16:22:53  PAGE 8


  C:0A43H         LINE#         204
  C:0A46H         LINE#         205
  -------         ENDPROC       _LCD_SHOWHEXNUM
  -------         PROC          _LCD_SHOWBINNUM
  D:0007H         SYMBOL        Line
  D:0005H         SYMBOL        Column
  D:001FH         SYMBOL        Number
  D:0021H         SYMBOL        Length
  -------         DO            
  D:0002H         SYMBOL        i
  -------         ENDDO         
  C:0A47H         LINE#         215
  C:0A4BH         LINE#         216
  C:0A4BH         LINE#         218
  C:0A4EH         LINE#         219
  C:0A56H         LINE#         220
  C:0A56H         LINE#         221
  C:0A7BH         LINE#         222
  C:0A7EH         LINE#         223
  -------         ENDPROC       _LCD_SHOWBINNUM
  -------         ENDMOD        LCD1602

  -------         MODULE        KEY
  C:0000H         SYMBOL        _ICE_DUMMY_
  B:00B0H.0       PUBLIC        P3_0
  B:00B0H.1       PUBLIC        P3_1
  B:00B0H.2       PUBLIC        P3_2
  B:00B0H.3       PUBLIC        P3_3
  C:0973H         PUBLIC        Key
  -------         PROC          KEY
  -------         DO            
  D:0008H         SYMBOL        KeyNumber
  -------         ENDDO         
  C:0973H         LINE#         9
  C:0973H         LINE#         10
  C:0973H         LINE#         11
  C:0976H         LINE#         13
  C:098CH         LINE#         14
  C:09A3H         LINE#         15
  C:09BAH         LINE#         16
  C:09D1H         LINE#         18
  C:09D3H         LINE#         19
  -------         ENDPROC       KEY
  -------         ENDMOD        KEY

  -------         MODULE        AT24C02
  C:0000H         SYMBOL        _ICE_DUMMY_
  C:0AB2H         PUBLIC        _AT24C02_ReadByte
  C:0B0BH         PUBLIC        _AT24C02_WriteByte
  -------         PROC          _AT24C02_WRITEBYTE
  D:0008H         SYMBOL        WordAddress
  D:0009H         SYMBOL        Data
  C:0B0BH         LINE#         12
  C:0B11H         LINE#         13
  C:0B11H         LINE#         14
  C:0B14H         LINE#         15
  C:0B19H         LINE#         16
BL51 BANKED LINKER/LOCATER V6.22.4.0                                                  03/20/2024  16:22:53  PAGE 9


  C:0B1CH         LINE#         17
  C:0B21H         LINE#         18
  C:0B24H         LINE#         19
  C:0B29H         LINE#         20
  C:0B2CH         LINE#         21
  -------         ENDPROC       _AT24C02_WRITEBYTE
  -------         PROC          _AT24C02_READBYTE
  D:0008H         SYMBOL        WordAddress
  -------         DO            
  D:0009H         SYMBOL        Data
  -------         ENDDO         
  C:0AB2H         LINE#         29
  C:0AB4H         LINE#         30
  C:0AB4H         LINE#         32
  C:0AB7H         LINE#         33
  C:0ABCH         LINE#         34
  C:0ABFH         LINE#         35
  C:0AC4H         LINE#         36
  C:0AC7H         LINE#         37
  C:0ACAH         LINE#         38
  C:0ACFH         LINE#         39
  C:0AD2H         LINE#         40
  C:0AD7H         LINE#         41
  C:0ADCH         LINE#         42
  C:0ADFH         LINE#         43
  C:0AE1H         LINE#         44
  -------         ENDPROC       _AT24C02_READBYTE
  -------         ENDMOD        AT24C02

  -------         MODULE        I2C
  C:0000H         SYMBOL        _ICE_DUMMY_
  B:00A0H.1       PUBLIC        I2C_SCL
  D:00A0H         PUBLIC        P2
  C:0C4AH         PUBLIC        I2C_Start
  C:0C40H         PUBLIC        _I2C_SendAck
  C:0AE2H         PUBLIC        _I2C_SendByte
  C:0C53H         PUBLIC        I2C_Stop
  C:0C14H         PUBLIC        I2C_ReceiveAck
  B:00A0H.0       PUBLIC        I2C_SDA
  C:0B70H         PUBLIC        I2C_ReceiveByte
  -------         PROC          I2C_START
  C:0C4AH         LINE#         11
  C:0C4AH         LINE#         12
  C:0C4AH         LINE#         13
  C:0C4CH         LINE#         14
  C:0C4EH         LINE#         15
  C:0C50H         LINE#         16
  C:0C52H         LINE#         17
  -------         ENDPROC       I2C_START
  -------         PROC          I2C_STOP
  C:0C53H         LINE#         24
  C:0C53H         LINE#         25
  C:0C53H         LINE#         26
  C:0C55H         LINE#         27
  C:0C57H         LINE#         28
  C:0C59H         LINE#         29
  -------         ENDPROC       I2C_STOP
BL51 BANKED LINKER/LOCATER V6.22.4.0                                                  03/20/2024  16:22:53  PAGE 10


  -------         PROC          _I2C_SENDBYTE
  D:0005H         SYMBOL        Byte
  -------         DO            
  D:0003H         SYMBOL        i
  -------         ENDDO         
  C:0AE2H         LINE#         36
  C:0AE4H         LINE#         37
  C:0AE4H         LINE#         39
  C:0AE6H         LINE#         40
  C:0AE6H         LINE#         41
  C:0B02H         LINE#         42
  C:0B04H         LINE#         43
  C:0B06H         LINE#         44
  C:0B0AH         LINE#         45
  -------         ENDPROC       _I2C_SENDBYTE
  -------         PROC          I2C_RECEIVEBYTE
  -------         DO            
  D:0006H         SYMBOL        i
  D:0007H         SYMBOL        Byte
  -------         ENDDO         
  C:0B70H         LINE#         52
  C:0B70H         LINE#         53
  C:0B70H         LINE#         54
  C:0B72H         LINE#         55
  C:0B74H         LINE#         56
  C:0B75H         LINE#         57
  C:0B75H         LINE#         58
  C:0B77H         LINE#         59
  C:0B87H         LINE#         60
  C:0B89H         LINE#         61
  C:0B8DH         LINE#         62
  C:0B8DH         LINE#         63
  -------         ENDPROC       I2C_RECEIVEBYTE
  -------         PROC          _I2C_SENDACK
  D:0007H         SYMBOL        AckBit
  C:0C40H         LINE#         70
  C:0C40H         LINE#         71
  C:0C40H         LINE#         72
  C:0C45H         LINE#         73
  C:0C47H         LINE#         74
  C:0C49H         LINE#         75
  -------         ENDPROC       _I2C_SENDACK
  -------         PROC          I2C_RECEIVEACK
  -------         DO            
  D:0007H         SYMBOL        AckBit
  -------         ENDDO         
  C:0C14H         LINE#         82
  C:0C14H         LINE#         83
  C:0C14H         LINE#         85
  C:0C16H         LINE#         86
  C:0C18H         LINE#         87
  C:0C1DH         LINE#         88
  C:0C1FH         LINE#         89
  C:0C1FH         LINE#         90
  -------         ENDPROC       I2C_RECEIVEACK
  -------         ENDMOD        I2C

BL51 BANKED LINKER/LOCATER V6.22.4.0                                                  03/20/2024  16:22:53  PAGE 11


  -------         MODULE        ?C?CLDOPTR
  C:08DFH         PUBLIC        ?C?CLDOPTR
  -------         ENDMOD        ?C?CLDOPTR

  -------         MODULE        ?C?IMUL
  C:090CH         PUBLIC        ?C?IMUL
  -------         ENDMOD        ?C?IMUL

  -------         MODULE        ?C?UIDIV
  C:091EH         PUBLIC        ?C?UIDIV
  -------         ENDMOD        ?C?UIDIV

******************************************************************************
* RESTRICTED VERSION WITH 0800H BYTE CODE SIZE LIMIT; USED: 03BAH BYTE (46%) *
******************************************************************************

Program Size: data=38.0 xdata=0 code=1117
LINK/LOCATE RUN COMPLETE.  0 WARNING(S),  0 ERROR(S)
