:100D940050617373776F72643A0054727565200002
:060DA40046616C7365005E
:100B1300120DD57BFF7A0D79947D017F01120D367D
:100B230012098A8F29E52960F7D3940A5041C3E556
:100B3300269404E52594005036AE27AF287C007D2B
:100B43000A1209238E278F28E52975F00A84E5F018
:100B53002528F528E43527F5270526E5267002051F
:100B630025751904AB28AA277D017F02120D77E5AD
:100B730029640B7036E528B4290DE527B409087BF1
:100B8300FF7A0D799E80067BFF7A0D79A47D0B7F1A
:100B930001120D36E4F527F528F525F52675190418
:100BA300AB28AA277D017F02120D77E529640C602B
:100BB30003020B23F527F528F525F526751904AB54
:0D0BC30028AA277D017F02120D77020B2367
:100DC000EF1FAC0670011E4C600A7D027CEFDCFE5A
:040DD000DDFC80ECDA
:010DD40022FC
:060DE900C2A58F80D2A715
:080DEF007F027EC7DEFEDFFC7F
:010DF70022D9
:0A0E0400C2A6120DE9C2A7020DEF0D
:100D5900CFCDCFCECCCE1209357C007D0A12093514
:040D6900ED2430FF46
:0A0D6D00D2A6120DE9C2A7020DEF95
:100DAA00AE07BE0104ED148006BE0209ED243F44DD
:060DBA0080FF120E04226E
:100DD5007F38120E047F0C120E047F06120E047F5C
:040DE50001020E04F5
:0A0E0E00AC03120DAAAF04020D6D33
:060D36008B158A168917D7
:100D3C00120DAAE4FDAB15AA16A9178D82758300B6
:0C0D4C001208F6FF6006120D6D0D80E924
:010D58002278
:0C0D03007F0AEA24FFFDE434FFFC7E00C0
:080D0F008E1A8F1B8C1C8D1D38
:100D17007F017E00E4FBEBC3951DE51C6480F8743E
:0E0D27008098500AAC1AAD1B1209230B80E80D
:010D3500229B
:040D77008A178B1834
:100D7B00120DAAAA19EAD39400400D120D03AC1759
:080D8B00AD18120D591A80ED9C
:010D9300223D
:100C5800120DAAC3EA64809480400B7F2B120D6D9D
:100C68008A238B24800E7F2D120D6DC3E49BF524FF
:100C7800E49AF523AA22EAD39400400D120D03AC9E
:090C880023AD24120D591A80ED70
:010C91002240
:040C92008A2C8B2DF0
:100C9600120DAAAA2EEAD3940040297F10120D0540
:100CA600AC2CAD2DCFCDCFCECCCE120935EF540F17
:100CB600FEC3940AEE5004243080022437FF120D3E
:040CC6006D1A80D152
:010CCA002207
:040CCB008A318B32AD
:100CCF00120DAAAA33EAD394004028EA24FFFDE4C8
:100CDF0034FFFC7F027E00120D0FAC31AD32CFCD51
:100CEF00CFCECCCE120935EF54012430FF120D6D4B
:030CFF001A80D286
:010D020022CE
:0A0E18003F065B4F666D7D077F6F9C
:060BD0008F088C098D0A5C
:100BD600780B7C007D007BFF7A0E79187E007F0AF9
:100BE6001208D0E50814B408005054900BFF75F0B5
:100BF60003A4C58325F0C58373020C17020C1B02E0
:100C06000C1F020C23020C27020C2F020C37020CBD
:100C16003FD2A4800ED2A48012D2A48016D2A48081
:100C26001AC2A4D2A3D2A28016C2A4D2A3C2A28000
:100C36000EC2A4C2A3D2A28006C2A4C2A3C2A27438
:100C46000B250AF8E6F5807F017E00120DC0E4F55B
:010C5600801D
:010C5700227A
:10098A00E4F5157590FFC2932097137F64FE120D4C
:10099A00C03097FD7F647E00120DC0751501209648
:1009AA00147F647E00120DC03097FD7F647E0012B2
:1009BA000DC07515052095147F647E00120DC03098
:1009CA0097FD7F647E00120DC07515092094147F6F
:1009DA00647E00120DC03097FD7F647E00120DC048
:1009EA0075150D7590FFC2922097147F647E0012D0
:1009FA000DC03097FD7F647E00120DC07515022070
:100A0A0096147F647E00120DC03097FD7F647E00CD
:100A1A00120DC07515062095147F647E00120DC054
:100A2A003097FD7F647E00120DC075150A2094145C
:100A3A007F647E00120DC03097FD7F647E00120D28
:100A4A00C075150E7590FFC2912097147F647E00C1
:100A5A00120DC03097FD7F647E00120DC07515031C
:100A6A002096147F647E00120DC03097FD7F647E4D
:100A7A0000120DC07515072095147F647E00120DB3
:100A8A00C03097FD7F647E00120DC075150B20944F
:100A9A00147F647E00120DC03097FD7F647E0012C1
:100AAA000DC075150F7590FFC2902097147F647E54
:100ABA0000120DC03097FD7F647E00120DC07515BF
:100ACA00042096147F647E00120DC03097FD7F6467
:100ADA007E00120DC07515082095147F647E0012E1
:100AEA000DC03097FD7F647E00120DC075150C2075
:100AFA0094147F647E00120DC03097FD7F647E00DF
:080B0A00120DC0751510AF15A6
:010B120022C0
:03000000020DF8F6
:0C0DF800787FE4F6D8FD758133020B1300
:10080000E709F608DFFA8046E709F208DFFA803EDA
:1008100088828C83E709F0A3DFFA8032E309F608C7
:10082000DFFA8078E309F208DFFA807088828C832F
:10083000E309F0A3DFFA806489828A83E0A3F608E3
:10084000DFFA805889828A83E0A3F208DFFA804CBD
:1008500080D280FA80C680D4806980F28033801094
:1008600080A680EA809A80A880DA80E280CA8033FD
:1008700089828A83ECFAE493A3C8C582C8CCC58375
:10088000CCF0A3C8C582C8CCC583CCDFE9DEE78045
:100890000D89828A83E493A3F608DFF9ECFAA9F0C4
:1008A000EDFB2289828A83ECFAE0A3C8C582C8CC1A
:1008B000C583CCF0A3C8C582C8CCC583CCDFEADE33
:1008C000E880DB89828A83E493A3F208DFF980CC95
:1008D00088F0EF60010E4E60C388F0ED2402B4048E
:1008E0000050B9F582EB2402B4040050AF23234535
:0608F00082239008507302
:1008F600BB010CE58229F582E5833AF583E02250B7
:1009060006E92582F8E622BBFE06E92582F8E22200
:0D091600E58229F582E5833AF583E493221A
:10092300EF8DF0A4A8F0CF8CF0A428CE8DF0A42EE8
:02093300FE22A2
:10093500BC000BBE0029EF8DF084FFADF022E4CCA6
:10094500F875F008EF2FFFEE33FEEC33FCEE9DEC6F
:10095500984005FCEE9DFE0FD5F0E9E4CEFD22EDB5
:10096500F8F5F0EE8420D21CFEADF075F008EF2FFF
:10097500FFED33FD4007985006D5F0F222C398FDF0
:050985000FD5F0EA228D
:00000001FF
