:1010EF0020202D20202D20200020203A20203A20C3
:0210FF002000CF
:100D9300120C7AE518FB3395E0FA750C027D017F9E
:100DA3000112107CE519FB3395E0FA750C027D0402
:100DB3007F0112107CE51AFB3395E0FA750C027D76
:100DC300077F0112107CE51BFB3395E0FA750C02DB
:100DD3007D017F0212107CE51CFB3395E0FA750C54
:100DE300027D047F0212107CE51DFB3395E0FA754A
:090DF3000C027D077F0202107C56
:10080000E52CB4020B0529E52975F0068485F0294D
:10081000E52C640360030208DA74182529F806D36E
:10082000E518648094E34003E4F518D3E519648087
:10083000948C4003751901E51964016023E519647E
:1008400003601DE51964056017E51964076011E58B
:10085000196408600BE519640A6005E519B40C0B0E
:10086000D3E51A6480949F404D8048E51964046084
:1008700011E5196406600BE51964096005E519B412
:100880000B0BD3E51A6480949E402B8026E519B4A7
:100890000224E51875F004120BC4AFF0EF700BD30F
:1008A000E51A6480949D400E8009D3E51A64809413
:1008B0009C4003751A01D3E51B648094974003E4C0
:1008C000F51BD3E51C648094BB4003E4F51CD3E521
:1008D0001D648094BB4003E4F51DE52C64046003B3
:1008E0000209D574182529F816C3E5186480948088
:1008F0005003751863C3E51964809481500375191A
:100900000CE51964016023E5196403601DE51964B1
:10091000056017E51964076011E5196408600BE5C7
:1009200019640A6005E519B40C17C3E51A648094CC
:10093000815003751A1FD3E51A6480949F4072801A
:100940006DE51964046011E5196406600BE519642E
:10095000096005E519B40B17C3E51A64809481504A
:1009600003751A1ED3E51A6480949E4044803FE5C7
:10097000196402703CE51875F004120BC4AFF0EF77
:100980007017C3E51A648094815003751A1DD3E56E
:100990001A6480949D401A8015C3E51A648094817E
:1009A0005003751A1CD3E51A6480949C4003751A91
:1009B00001C3E51B648094805003751B17C3E51CBD
:1009C000648094805003751C3BC3E51D6480948053
:1009D0005003751D3BE518FB3395E0FA750C027D5D
:1009E000017F0112107CE519FB3395E0FA750C02CA
:1009F0007D047F0112107CE51AFB3395E0FA750C3B
:100A0000027D077F0112107CE51BFB3395E0FA7530
:100A10000C027D017F0212107CE51CFB3395E0FA8D
:100A2000750C027D047F0212107CE51DFB3395E0FE
:100A3000FA750C027D077F0212107CE529FB7A0013
:0A0A4000750C027D0A7F0202107C93
:100EB9001210DB12112E1210997BFF7A1079EF7D37
:100EC900017F0112103B7BFF7A1079F87D017F02C7
:100ED90012103B120A4A120DFC8F2CE52CB4011496
:100EE900E52A7005752A01800BE52AB40106E4F5A7
:100EF9002A120A4AE52A1460080470DA120D93804E
:060F0900D512080080D0A3
:06110100C2A58F80D2A7F9
:081107007F027EC7DEFEDFFC63
:01110F0022BD
:0A111000C2A6121101C2A7021107C6
:10105E00CFCDCFCECCCE120C257C007D0A120C2526
:04106E00ED2430FF3E
:0A107200D2A6121101C2A702110755
:1010B000AE07BE0104ED148006BE0209ED243F44D4
:0610C00080FF1211102256
:1010DB007F381211107F0C1211107F061211107F26
:0410EB0001021110DD
:0A111A00AC031210B0AF0402107213
:06103B008B088A09890AF6
:101041001210B0E4FDAB08AA09A90A8D82758300CC
:0C105100120BE6FF60061210720D80E921
:01105D002270
:0C1008007F0AEA24FFFDE434FFFC7E00B8
:081014008E0D8F0E8C0F8D1064
:10101C007F017E00E4FBEBC39510E50F6480F87450
:0E102C008098500AAC0DAD0E120C130B80E82C
:01103A002293
:04107C008A0A8B0B46
:101080001210B0AA0CEAD39400400D121008AC0A5A
:08109000AD0B12105E1A80ED99
:011098002235
:100F5D001210B0C3EA64809480400B7F2B12107284
:100F6D008A168B17800E7F2D121072C3E49BF51716
:100F7D00E49AF516AA15EAD39400400D121008ACA8
:090F8D0016AD1712105E1A80ED7A
:010F96002238
:040F97008A218B22FE
:100F9B001210B0AA23EAD3940040297F1012100A32
:100FAB00AC21AD22CFCDCFCECCCE120C25EF540F32
:100FBB00FEC3940AEE5004243080022437FF121033
:040FCB00721A80D145
:010FCF0022FF
:040FD0008A268B27BB
:100FD4001210B0AA28EAD394004028EA24FFFDE4C2
:100FE40034FFFC7F027E00121014AC26AD27CFCD57
:100FF400CFCECCCE120C25EF54012430FF12107248
:031004001A80D27D
:0110070022C6
:09112400071818031111373707F1
:05112E00C2B5C2B622AB
:050E5D002DFDEE3CFC40
:060E62008C088D09AB07AE
:100E6800E4FDD2B57E007401A805088005C333CE21
:100E780033CED8F9FFEBF582EF558224FF92B4D236
:100E8800B6C2B60DBD08DDE4FD7E007401A80508F4
:100E98008005C333CE33CED8F9FFE5085EFEE509F9
:100EA8005F4E24FF92B4D2B6C2B60DBD08DBC2B500
:010EB8002217
:020F0F00AD072C
:100F1100E4F9430501D2B5FB7E007401A803088002
:100F210005C333CE33CED8F9FFEDF582EF558224D8
:100F3100FF92B4C2B6D2B60BBB08DDE4FBD2B6C297
:100F4100B630B40DA8037401088002C333D8FC4243
:0B0F5100010BBB08E8C2B5C2B4AF0141
:010F5C002272
:100A4A00E4FDFC7F8E120E62E51875F00A120BC4E3
:100A5A00FF3395E0FEEFC4F8540FC868FFEEC454A4
:100A6A00F048FEE51875F00A120BC4ADF0ED3395A7
:100A7A00E0FCEF7F8C120E5DE51975F00A120BC4CB
:100A8A00FF3395E0FEEFC4F8540FC868FFEEC45474
:100A9A00F048FEE51975F00A120BC4ADF0ED339576
:100AAA00E0FCEF7F88120E5DE51A75F00A120BC49E
:100ABA00FF3395E0FEEFC4F8540FC868FFEEC45444
:100ACA00F048FEE51A75F00A120BC4ADF0ED339545
:100ADA00E0FCEF2DFDEE3CFC7F86120E62E51B75F5
:100AEA00F00A120BC4FF3395E0FEEFC4F8540FC8A6
:100AFA0068FFEEC454F048FEE51B75F00A120BC4F9
:100B0A00ADF0ED3395E0FCEF2DFDEE3CFC7F841259
:100B1A000E62E51C75F00A120BC4FF3395E0FEEF76
:100B2A00C4F8540FC868FFEEC454F048FEE51C75BB
:100B3A00F00A120BC4ADF0ED3395E0FCEF2DFDEE9B
:100B4A003CFC7F82120E62E51D75F00A120BC4FF8F
:100B5A003395E0FEEFC4F8540FC868FFEEC454F0B2
:100B6A0048FEE51D75F00A120BC4ADF0ED3395E0B1
:100B7A00FCEF2DFDEE3CFC7F80120E62E51E75F047
:100B8A000A120BC4FF3395E0FEEFC4F8540FC8688D
:100B9A00FFEEC454F048FEE51E75F00A120BC4AD10
:100BAA00F0ED3395E0FCEF2DFDEE3CFC7F8A120E52
:0A0BBA00627D807C007F8E020E62D7
:100C7A007F8C120F0FEFC4540F75F00AA4FEEF54C5
:100C8A000F2EF5187F88120F0FEFC4540F75F00A54
:100C9A00A4FEEF540F2EF5197F86120F0FEFC454DE
:100CAA000F75F00AA4FEEF540F2EF51A7F84120F67
:100CBA000FEFC4540F75F00AA4FEEF540F2EF51B64
:100CCA007F82120F0FEFC4540F75F00AA4FEEF547F
:100CDA000F2EF51C7F80120F0FEFC4540F75F00A08
:100CEA00A4FEEF540F2EF51D7F8A120F0FEFC45486
:0C0CFA000F75F00AA4FEEF540F2EF51E3B
:010D060022CA
:1010C600EF1FAC0670011E4C600A7D027CEFDCFE51
:0410D600DDFC80ECD1
:0110DA0022F3
:100DFC00E4F50820B1137F14FE1210C630B1FD7F4C
:100E0C00147E001210C675080120B0147F147E00E9
:100E1C001210C630B0FD7F147E001210C675080289
:100E2C0020B2147F147E001210C630B2FD7F147EE7
:100E3C00001210C675080320B3147F147E00121024
:100E4C00C630B3FD7F147E001210C6750804AF08BF
:010E5C002273
:101099005389F0438901758A66758CFCC28DD28C9F
:0710A900D2A9D2AFC2B922A7
:03000000020D07E7
:0C0D0700787FE4F6D8FD75812C020D4EBB
:100BC400C2D530F707B2D563F0FF05F030E70CB2B9
:100BD400D5F4048463F0FF05F080018430D502F479
:020BE4000422E9
:100BE600BB010CE58229F582E5833AF583E02250C4
:100BF60006E92582F8E622BBFE06E92582F8E2220E
:0D0C0600E58229F582E5833AF583E4932227
:100C1300EF8DF0A4A8F0CF8CF0A428CE8DF0A42EF5
:020C2300FE22AF
:100C2500BC000BBE0029EF8DF084FFADF022E4CCB3
:100C3500F875F008EF2FFFEE33FEEC33FCEE9DEC7C
:100C4500984005FCEE9DFE0FD5F0E9E4CEFD22EDC2
:100C5500F8F5F0EE8420D21CFEADF075F008EF2F0C
:100C6500FFED33FD4007985006D5F0F222C398FDFD
:050C75000FD5F0EA229A
:100D1300020EB9E493A3F8E493A34003F68001F22F
:100D230008DFF48029E493A3F85407240CC8C333E1
:100D3300C4540F4420C8834004F456800146F6DFB0
:100D4300E4800B0102040810204080901124E47E0B
:100D5300019360BCA3FF543F30E509541FFEE493A5
:100D6300A360010ECF54C025E060A840B8E493A36C
:100D7300FAE493A3F8E493A3C8C582C8CAC583CA97
:100D8300F0A3C8C582C8CAC583CADFE9DEE780BE4F
:01112D0000C1
:00000001FF
