BL51 BANKED LINKER/LOCATER V6.22.4.0                                                    03/18/2024  11:35:43  PAGE 1


BL51 BANKED LINKER/LOCATER V6.22.4.0, INVOKED BY:
C:\KEIL_V5\C51\BIN\BL51.EXE .\Objects\main.obj, .\Objects\Delay.obj, .\Objects\Key.obj, .\Objects\Nixie.obj, .\Objects\B
>> uzzer.obj TO .\Objects\project PRINT (.\Listings\project.m51) RAMSIZE (256)


MEMORY MODEL: SMALL


INPUT MODULES INCLUDED:
  .\Objects\main.obj (MAIN)
  .\Objects\Delay.obj (DELAY)
  .\Objects\Key.obj (KEY)
  .\Objects\Nixie.obj (NIXIE)
  .\Objects\Buzzer.obj (BUZZER)
  C:\KEIL_V5\C51\LIB\C51S.LIB (?C_STARTUP)
  C:\KEIL_V5\C51\LIB\C51S.LIB (?C?COPY)


LINK MAP OF MODULE:  .\Objects\project (MAIN)


            TYPE    BASE      LENGTH    RELOCATION   SEGMENT NAME
            -----------------------------------------------------

            * * * * * * *   D A T A   M E M O R Y   * * * * * * *
            REG     0000H     0008H     ABSOLUTE     "REG BANK 0"
            DATA    0008H     000DH     UNIT         _DATA_GROUP_
            DATA    0015H     0002H     UNIT         ?DT?BUZZER
            DATA    0017H     0001H     UNIT         ?DT?MAIN
            IDATA   0018H     0001H     UNIT         ?STACK

            * * * * * * *   C O D E   M E M O R Y   * * * * * * *
            CODE    0000H     0003H     ABSOLUTE     
                    0003H     07FDH                  *** GAP ***
            CODE    0800H     00F6H     UNIT         ?C?LIB_CODE
            CODE    08F6H     007EH     UNIT         ?PR?_NIXIE?NIXIE
            CODE    0974H     0061H     UNIT         ?PR?KEY?KEY
            CODE    09D5H     0029H     UNIT         ?PR?_BUZZER_TIME?BUZZER
            CODE    09FEH     0022H     UNIT         ?PR?MAIN?MAIN
            CODE    0A20H     0015H     UNIT         ?PR?_DELAY?DELAY
            CODE    0A35H     000CH     UNIT         ?C_C51STARTUP
            CODE    0A41H     000AH     UNIT         ?CO?NIXIE
            CODE    0A4BH     0006H     UNIT         ?PR?BUZZER_DELAY500US?BUZZER



OVERLAY MAP OF MODULE:   .\Objects\project (MAIN)


SEGMENT                                DATA_GROUP 
  +--> CALLED SEGMENT                START    LENGTH
----------------------------------------------------
?C_C51STARTUP                        -----    -----
  +--> ?PR?MAIN?MAIN

?PR?MAIN?MAIN                        -----    -----
  +--> ?PR?_NIXIE?NIXIE
  +--> ?PR?KEY?KEY
BL51 BANKED LINKER/LOCATER V6.22.4.0                                                  03/18/2024  11:35:43  PAGE 2


  +--> ?PR?_BUZZER_TIME?BUZZER

?PR?_NIXIE?NIXIE                     0008H    000DH
  +--> ?CO?NIXIE

?PR?KEY?KEY                          0008H    0001H
  +--> ?PR?_DELAY?DELAY

?PR?_BUZZER_TIME?BUZZER              -----    -----
  +--> ?PR?BUZZER_DELAY500US?BUZZER



SYMBOL TABLE OF MODULE:  .\Objects\project (MAIN)

  VALUE           TYPE          NAME
  ----------------------------------

  -------         MODULE        MAIN
  C:0000H         SYMBOL        _ICE_DUMMY_
  C:09FEH         PUBLIC        main
  D:0017H         PUBLIC        KeyNum
  -------         PROC          MAIN
  C:09FEH         LINE#         9
  C:09FEH         LINE#         10
  C:09FEH         LINE#         11
  C:0A06H         LINE#         12
  C:0A06H         LINE#         13
  C:0A06H         LINE#         14
  C:0A0BH         LINE#         15
  C:0A0FH         LINE#         16
  C:0A0FH         LINE#         17
  C:0A17H         LINE#         18
  C:0A1EH         LINE#         19
  C:0A1EH         LINE#         20
  -------         ENDPROC       MAIN
  -------         ENDMOD        MAIN

  -------         MODULE        DELAY
  C:0000H         SYMBOL        _ICE_DUMMY_
  C:0A20H         PUBLIC        _Delay
  -------         PROC          _DELAY
  D:0006H         SYMBOL        xms
  -------         DO            
  D:0005H         SYMBOL        i
  D:0004H         SYMBOL        j
  -------         ENDDO         
  C:0A20H         LINE#         4
  C:0A20H         LINE#         5
  C:0A20H         LINE#         7
  C:0A2AH         LINE#         8
  C:0A2AH         LINE#         9
  C:0A2CH         LINE#         10
  C:0A2EH         LINE#         12
  C:0A2EH         LINE#         13
  C:0A30H         LINE#         14
  C:0A32H         LINE#         15
BL51 BANKED LINKER/LOCATER V6.22.4.0                                                  03/18/2024  11:35:43  PAGE 3


  C:0A34H         LINE#         16
  -------         ENDPROC       _DELAY
  -------         ENDMOD        DELAY

  -------         MODULE        KEY
  C:0000H         SYMBOL        _ICE_DUMMY_
  B:00B0H.0       PUBLIC        P3_0
  B:00B0H.1       PUBLIC        P3_1
  B:00B0H.2       PUBLIC        P3_2
  B:00B0H.3       PUBLIC        P3_3
  C:0974H         PUBLIC        Key
  -------         PROC          KEY
  -------         DO            
  D:0008H         SYMBOL        KeyNumber
  -------         ENDDO         
  C:0974H         LINE#         9
  C:0974H         LINE#         10
  C:0974H         LINE#         11
  C:0977H         LINE#         13
  C:098DH         LINE#         14
  C:09A4H         LINE#         15
  C:09BBH         LINE#         16
  C:09D2H         LINE#         18
  C:09D4H         LINE#         19
  -------         ENDPROC       KEY
  -------         ENDMOD        KEY

  -------         MODULE        NIXIE
  C:0000H         SYMBOL        _ICE_DUMMY_
  C:08F6H         PUBLIC        _Nixie
  D:0080H         PUBLIC        P0
  B:00A0H.2       PUBLIC        P2_2
  B:00A0H.3       PUBLIC        P2_3
  B:00A0H.4       PUBLIC        P2_4
  C:0A41H         SYMBOL        _?ix1000
  -------         PROC          _NIXIE
  D:0008H         SYMBOL        Location
  D:0009H         SYMBOL        Number
  -------         DO            
  D:000BH         SYMBOL        NixieTable
  -------         ENDDO         
  C:08F6H         LINE#         4
  C:08FCH         LINE#         5
  C:08FCH         LINE#         6
  C:090FH         LINE#         8
  C:093DH         LINE#         9
  C:093DH         LINE#         10
  C:0941H         LINE#         11
  C:0945H         LINE#         12
  C:0949H         LINE#         13
  C:094DH         LINE#         14
  C:0955H         LINE#         15
  C:095DH         LINE#         16
  C:0965H         LINE#         17
  C:096BH         LINE#         18
  C:096BH         LINE#         19
  C:0973H         LINE#         22
BL51 BANKED LINKER/LOCATER V6.22.4.0                                                  03/18/2024  11:35:43  PAGE 4


  -------         ENDPROC       _NIXIE
  -------         ENDMOD        NIXIE

  -------         MODULE        BUZZER
  C:0000H         SYMBOL        _ICE_DUMMY_
  D:00A0H         PUBLIC        P2
  B:00A0H.5       PUBLIC        Buzzer
  C:0A4BH         PUBLIC        Buzzer_Delay500us
  D:0015H         PUBLIC        i
  C:09D5H         PUBLIC        _Buzzer_Time
  -------         PROC          BUZZER_DELAY500US
  -------         DO            
  D:0007H         SYMBOL        i
  -------         ENDDO         
  C:0A4BH         LINE#         14
  C:0A4BH         LINE#         15
  C:0A4BH         LINE#         18
  C:0A4CH         LINE#         19
  C:0A4EH         LINE#         20
  C:0A50H         LINE#         21
  -------         ENDPROC       BUZZER_DELAY500US
  -------         PROC          _BUZZER_TIME
  D:0004H         SYMBOL        ms
  C:09D5H         LINE#         28
  C:09D9H         LINE#         29
  C:09D9H         LINE#         30
  C:09EEH         LINE#         31
  C:09EEH         LINE#         32
  C:09F0H         LINE#         33
  C:09F3H         LINE#         34
  C:09FDH         LINE#         35
  -------         ENDPROC       _BUZZER_TIME
  -------         ENDMOD        BUZZER

  -------         MODULE        ?C?COPY
  C:08D0H         PUBLIC        ?C?COPY
  -------         ENDMOD        ?C?COPY

******************************************************************************
* RESTRICTED VERSION WITH 0800H BYTE CODE SIZE LIMIT; USED: 014FH BYTE (16%) *
******************************************************************************

Program Size: data=25.0 xdata=0 code=596
LINK/LOCATE RUN COMPLETE.  0 WARNING(S),  0 ERROR(S)
