:0609E600012000012100C8
:100A3900438901758CFF758AA4D2A9D28CD2AF22C1
:03000B000209B730
:1009B700C0E0C0F0C0D0C28C758CFF758AA405203A
:1009C700E52075F0648485F020E520D39521500457
:0F09D700D2908002C290D28CD0D0D0F0D0E0323B
:10096100120A3912088C7522008F23E52364014590
:10097100227038051FE51F7002051E531F03751EE7
:1009810000E51F451E700375210AE51F6401451E20
:100991007003752119E51F6402451E700375214B13
:1009A100E51F6403451E7003752164AD1FAC1E7FF6
:0609B100011208FB80ADFD
:10088C00E4F524F52520B1167F14FE120A2430B1AC
:10089C00FD7F147E00120A2475240075250120B0FA
:1008AC00177F147E00120A2430B0FD7F147E0012D4
:1008BC000A2475240075250220B2177F147E0012BD
:1008CC000A2430B2FD7F147E00120A2475240075B0
:1008DC00250320B3177F147E00120A2430B3FD7F4A
:0E08EC00147E00120A24752400752504AF2521
:0108FA0022DB
:100A2400EF1FAC0670011E4C600A7D027CEFDCFEF9
:040A3400DDFC80EC79
:010A3800229B
:1009EC000909000A0A0A0A0A0A0A0A0C123F065BDB
:0C09FC004F666D7D077F6F004001080111
:090A4900AE0574092FF8A606227F
:1008FB00E4F580EF14B40800505490091375F0031D
:10090B00A4C58325F0C5837302092B02092F0209A5
:10091B003302093702093B02094302094B0209530F
:10092B00D2A4800ED2A48012D2A48016D2A4801A94
:10093B00C2A4D2A3D2A28016C2A4D2A3C2A2800EFA
:10094B00C2A4C2A3D2A28006C2A4C2A3C2A2741222
:06095B002DF8E6F58022F4
:100A090074092508F8E6FD7C00AF081208FB050803
:0A0A1900E508C394094003750801C5
:010A230022B0
:03000000020800F3
:0C080000787FE4F6D8FD758125020847DA
:10080C00020961E493A3F8E493A34003F68001F298
:10081C0008DFF48029E493A3F85407240CC8C333ED
:10082C00C4540F4420C8834004F456800146F6DFBC
:10083C00E4800B01020408102040809009E6E47E5D
:10084C00019360BCA3FF543F30E509541FFEE493B1
:10085C00A360010ECF54C025E060A840B8E493A378
:10086C00FAE493A3F8E493A3C8C582C8CAC583CAA3
:10087C00F0A3C8C582C8CAC583CADFE9DEE780BE5B
:010A080000ED
:00000001FF
