:0409AA00020B00003C
:1009540075A0FE12097E12088C8F0AE50A60F7B4AE
:1009640001F4050CE50C7002050BC39402E50B942D
:0A0974000040E3E4F50BF50C80DC15
:03000B000208FBED
:0B08FB00C0E0C0D075D000C000C007F6
:10090600758A66758CFC0509E50970020508C394AD
:10091600F4E5089401402E750800750900E50C45BC
:100926000B700DAFA07801EF08800123D8FDF5A06C
:10093600E50C6401450B700DAFA07801EF0880014E
:0509460003D8FDF5A03F
:09094B00D007D000D0D0D0E0327A
:10097E005389F0438901758A66758CFCC28DD28CC1
:07098E00D2A9D2AFC2B922C9
:10088C00E4F50DF50E20B1167F14FE12099530B16A
:10089C00FD7F147E00120995750D00750E0120B0B8
:1008AC00177F147E0012099530B0FD7F147E001264
:1008BC000995750D00750E0220B2177F147E00127B
:1008CC00099530B2FD7F147E00120995750D0075E7
:1008DC000E0320B3177F147E0012099530B3FD7FF1
:0E08EC00147E00120995750D00750E04AF0EF6
:0108FA0022DB
:10099500EF1FAC0670011E4C600A7D027CEFDCFE89
:0409A500DDFC80EC09
:0109A900222B
:03000000020800F3
:0C080000787FE4F6D8FD75810E020847F1
:10080C00020954E493A3F8E493A34003F68001F2A5
:10081C0008DFF48029E493A3F85407240CC8C333ED
:10082C00C4540F4420C8834004F456800146F6DFBC
:10083C00E4800B01020408102040809009AAE47E99
:10084C00019360BCA3FF543F30E509541FFEE493B1
:10085C00A360010ECF54C025E060A840B8E493A378
:10086C00FAE493A3F8E493A3C8C582C8CAC583CAA3
:10087C00F0A3C8C582C8CAC583CADFE9DEE780BE5B
:0109AE000048
:00000001FF
