BL51 BANKED LINKER/LOCATER V6.22.4.0                                                    03/13/2024  17:14:15  PAGE 1


BL51 BANKED LINKER/LOCATER V6.22.4.0, INVOKED BY:
C:\KEIL_V5\C51\BIN\BL51.EXE .\Objects\mian.obj, .\Objects\timer0.obj, .\Objects\Key.obj, .\Objects\Delay.obj TO .\Object
>> s\project PRINT (.\Listings\project.m51) RAMSIZE (256)


MEMORY MODEL: SMALL


INPUT MODULES INCLUDED:
  .\Objects\mian.obj (MIAN)
  .\Objects\timer0.obj (TIMER0)
  .\Objects\Key.obj (KEY)
  .\Objects\Delay.obj (DELAY)
  C:\KEIL_V5\C51\LIB\C51S.LIB (?C_STARTUP)
  C:\KEIL_V5\C51\LIB\C51S.LIB (?C_INIT)


LINK MAP OF MODULE:  .\Objects\project (MIAN)


            TYPE    BASE      LENGTH    RELOCATION   SEGMENT NAME
            -----------------------------------------------------

            * * * * * * *   D A T A   M E M O R Y   * * * * * * *
            REG     0000H     0008H     ABSOLUTE     "REG BANK 0"
            DATA    0008H     0005H     UNIT         ?DT?MIAN
            DATA    000DH     0002H     UNIT         _DATA_GROUP_
            IDATA   000FH     0001H     UNIT         ?STACK

            * * * * * * *   C O D E   M E M O R Y   * * * * * * *
            CODE    0000H     0003H     ABSOLUTE     
                    0003H     0008H                  *** GAP ***
            CODE    000BH     0003H     ABSOLUTE     
                    000EH     07F2H                  *** GAP ***
            CODE    0800H     008CH     UNIT         ?C_C51STARTUP
            CODE    088CH     006FH     UNIT         ?PR?KEY?KEY
            CODE    08FBH     0059H     UNIT         ?PR?TIMER0_ROUTINE?MIAN
            CODE    0954H     002AH     UNIT         ?PR?MAIN?MIAN
            CODE    097EH     0017H     UNIT         ?PR?TIMER0INIT?TIMER0
            CODE    0995H     0015H     UNIT         ?PR?_DELAY?DELAY
            CODE    09AAH     0005H     UNIT         ?C_INITSEG



OVERLAY MAP OF MODULE:   .\Objects\project (MIAN)


SEGMENT                           DATA_GROUP 
  +--> CALLED SEGMENT           START    LENGTH
-----------------------------------------------
?C_C51STARTUP                   -----    -----
  +--> ?PR?MAIN?MIAN
  +--> ?C_INITSEG

?PR?MAIN?MIAN                   -----    -----
  +--> ?PR?TIMER0INIT?TIMER0
  +--> ?PR?KEY?KEY

BL51 BANKED LINKER/LOCATER V6.22.4.0                                                  03/13/2024  17:14:15  PAGE 2


?PR?KEY?KEY                     000DH    0002H
  +--> ?PR?_DELAY?DELAY



SYMBOL TABLE OF MODULE:  .\Objects\project (MIAN)

  VALUE           TYPE          NAME
  ----------------------------------

  -------         MODULE        MIAN
  C:0000H         SYMBOL        _ICE_DUMMY_
  C:08FBH         PUBLIC        Timer0_Routine
  D:00A0H         PUBLIC        P2
  C:0954H         PUBLIC        main
  D:008CH         PUBLIC        TH0
  D:008AH         PUBLIC        TL0
  D:000AH         PUBLIC        KeyNum
  D:000BH         PUBLIC        LEDMode
  -------         PROC          MAIN
  C:0954H         LINE#         27
  C:0954H         LINE#         28
  C:0954H         LINE#         29
  C:0957H         LINE#         30
  C:095AH         LINE#         31
  C:095AH         LINE#         32
  C:095AH         LINE#         33
  C:095FH         LINE#         34
  C:0963H         LINE#         35
  C:0963H         LINE#         36
  C:0966H         LINE#         37
  C:0966H         LINE#         38
  C:096EH         LINE#         39
  C:097CH         LINE#         40
  C:097CH         LINE#         41
  C:097CH         LINE#         42
  -------         ENDPROC       MAIN
  -------         PROC          TIMER0_ROUTINE
  -------         DO            
  D:0008H         SYMBOL        T0Count
  -------         ENDDO         
  C:08FBH         LINE#         45
  C:0906H         LINE#         48
  C:0909H         LINE#         49
  C:090CH         LINE#         50
  C:0914H         LINE#         51
  C:091DH         LINE#         52
  C:091DH         LINE#         53
  C:0923H         LINE#         54
  C:0929H         LINE#         55
  C:0936H         LINE#         56
  C:093EH         LINE#         57
  C:094BH         LINE#         58
  C:094BH         LINE#         59
  -------         ENDPROC       TIMER0_ROUTINE
  -------         ENDMOD        MIAN

BL51 BANKED LINKER/LOCATER V6.22.4.0                                                  03/13/2024  17:14:15  PAGE 3


  -------         MODULE        TIMER0
  C:0000H         SYMBOL        _ICE_DUMMY_
  B:00A8H.7       PUBLIC        EA
  D:0089H         PUBLIC        TMOD
  B:00A8H.1       PUBLIC        ET0
  B:0088H.5       PUBLIC        TF0
  C:097EH         PUBLIC        Timer0Init
  D:008CH         PUBLIC        TH0
  D:008AH         PUBLIC        TL0
  B:00B8H.1       PUBLIC        PT0
  B:0088H.4       PUBLIC        TR0
  -------         PROC          TIMER0INIT
  C:097EH         LINE#         11
  C:097EH         LINE#         12
  C:097EH         LINE#         13
  C:0981H         LINE#         14
  C:0984H         LINE#         15
  C:0987H         LINE#         16
  C:098AH         LINE#         17
  C:098CH         LINE#         18
  C:098EH         LINE#         20
  C:0990H         LINE#         21
  C:0992H         LINE#         22
  C:0994H         LINE#         23
  -------         ENDPROC       TIMER0INIT
  -------         ENDMOD        TIMER0

  -------         MODULE        KEY
  C:0000H         SYMBOL        _ICE_DUMMY_
  B:00B0H.0       PUBLIC        P3_0
  B:00B0H.1       PUBLIC        P3_1
  B:00B0H.2       PUBLIC        P3_2
  B:00B0H.3       PUBLIC        P3_3
  C:088CH         PUBLIC        Key
  -------         PROC          KEY
  -------         DO            
  D:000DH         SYMBOL        KeyNumber
  -------         ENDDO         
  C:088CH         LINE#         9
  C:088CH         LINE#         10
  C:088CH         LINE#         11
  C:0891H         LINE#         13
  C:08AAH         LINE#         14
  C:08C4H         LINE#         15
  C:08DEH         LINE#         16
  C:08F8H         LINE#         18
  C:08FAH         LINE#         19
  -------         ENDPROC       KEY
  -------         ENDMOD        KEY

  -------         MODULE        DELAY
  C:0000H         SYMBOL        _ICE_DUMMY_
  C:0995H         PUBLIC        _Delay
  -------         PROC          _DELAY
  D:0006H         SYMBOL        xms
  -------         DO            
  D:0005H         SYMBOL        i
BL51 BANKED LINKER/LOCATER V6.22.4.0                                                  03/13/2024  17:14:15  PAGE 4


  D:0004H         SYMBOL        j
  -------         ENDDO         
  C:0995H         LINE#         4
  C:0995H         LINE#         5
  C:0995H         LINE#         7
  C:099FH         LINE#         8
  C:099FH         LINE#         9
  C:09A1H         LINE#         10
  C:09A3H         LINE#         12
  C:09A3H         LINE#         13
  C:09A5H         LINE#         14
  C:09A7H         LINE#         15
  C:09A9H         LINE#         16
  -------         ENDPROC       _DELAY
  -------         ENDMOD        DELAY

******************************************************************************
* RESTRICTED VERSION WITH 0800H BYTE CODE SIZE LIMIT; USED: 0125H BYTE (14%) *
******************************************************************************

Program Size: data=16.0 xdata=0 code=437
LINK/LOCATE RUN COMPLETE.  0 WARNING(S),  0 ERROR(S)
