BL51 BANKED LINKER/LOCATER V6.22.4.0                                                    12/20/2023  17:47:33  PAGE 1


BL51 BANKED LINKER/LOCATER V6.22.4.0, INVOKED BY:
C:\KEIL_V5\C51\BIN\BL51.EXE .\Objects\main.obj, .\Objects\Delay.obj, .\Objects\Nixie.obj TO .\Objects\project PRINT (.\L
>> istings\project.m51) RAMSIZE (256)


MEMORY MODEL: SMALL


INPUT MODULES INCLUDED:
  .\Objects\main.obj (MAIN)
  .\Objects\Delay.obj (DELAY)
  .\Objects\Nixie.obj (NIXIE)
  C:\KEIL_V5\C51\LIB\C51S.LIB (?C_STARTUP)
  C:\KEIL_V5\C51\LIB\C51S.LIB (?C?COPY)


LINK MAP OF MODULE:  .\Objects\project (MAIN)


            TYPE    BASE      LENGTH    RELOCATION   SEGMENT NAME
            -----------------------------------------------------

            * * * * * * *   D A T A   M E M O R Y   * * * * * * *
            REG     0000H     0008H     ABSOLUTE     "REG BANK 0"
            DATA    0008H     000FH     UNIT         _DATA_GROUP_
            IDATA   0017H     0001H     UNIT         ?STACK

            * * * * * * *   C O D E   M E M O R Y   * * * * * * *
            CODE    0000H     0003H     ABSOLUTE     
                    0003H     07FDH                  *** GAP ***
            CODE    0800H     00F6H     UNIT         ?C?LIB_CODE
            CODE    08F6H     00A9H     UNIT         ?PR?MAIN?MAIN
            CODE    099FH     0088H     UNIT         ?PR?_NIXIE?NIXIE
            CODE    0A27H     0015H     UNIT         ?PR?_DELAY?DELAY
            CODE    0A3CH     000CH     UNIT         ?C_C51STARTUP
            CODE    0A48H     000AH     UNIT         ?CO?NIXIE



OVERLAY MAP OF MODULE:   .\Objects\project (MAIN)


SEGMENT                          DATA_GROUP 
  +--> CALLED SEGMENT          START    LENGTH
----------------------------------------------
?C_C51STARTUP                  -----    -----
  +--> ?PR?MAIN?MAIN

?PR?MAIN?MAIN                  0008H    0002H
  +--> ?PR?_DELAY?DELAY
  +--> ?PR?_NIXIE?NIXIE

?PR?_NIXIE?NIXIE               000AH    000DH
  +--> ?CO?NIXIE
  +--> ?PR?_DELAY?DELAY



BL51 BANKED LINKER/LOCATER V6.22.4.0                                                  12/20/2023  17:47:33  PAGE 2


SYMBOL TABLE OF MODULE:  .\Objects\project (MAIN)

  VALUE           TYPE          NAME
  ----------------------------------

  -------         MODULE        MAIN
  C:0000H         SYMBOL        _ICE_DUMMY_
  B:00A0H.0       PUBLIC        P2_0
  C:08F6H         PUBLIC        main
  -------         PROC          MAIN
  -------         DO            
  D:0008H         SYMBOL        i
  -------         ENDDO         
  C:08F6H         LINE#         4
  C:08F6H         LINE#         5
  C:08F6H         LINE#         6
  C:08FCH         LINE#         7
  C:08FCH         LINE#         8
  C:08FCH         LINE#         9
  C:08FEH         LINE#         10
  C:0905H         LINE#         11
  C:0907H         LINE#         12
  C:090EH         LINE#         13
  C:0916H         LINE#         14
  C:091CH         LINE#         15
  C:091CH         LINE#         16
  C:091CH         LINE#         17
  C:0925H         LINE#         18
  C:092CH         LINE#         19
  C:0935H         LINE#         20
  C:093CH         LINE#         21
  C:0945H         LINE#         22
  C:094CH         LINE#         23
  C:0955H         LINE#         24
  C:095CH         LINE#         25
  C:0965H         LINE#         26
  C:096CH         LINE#         27
  C:0975H         LINE#         28
  C:097CH         LINE#         29
  C:0985H         LINE#         30
  C:098CH         LINE#         31
  C:0995H         LINE#         32
  C:099CH         LINE#         34
  -------         ENDPROC       MAIN
  -------         ENDMOD        MAIN

  -------         MODULE        DELAY
  C:0000H         SYMBOL        _ICE_DUMMY_
  C:0A27H         PUBLIC        _Delay
  -------         PROC          _DELAY
  D:0006H         SYMBOL        xms
  -------         DO            
  D:0005H         SYMBOL        i
  D:0004H         SYMBOL        j
  -------         ENDDO         
  C:0A27H         LINE#         4
  C:0A27H         LINE#         5
BL51 BANKED LINKER/LOCATER V6.22.4.0                                                  12/20/2023  17:47:33  PAGE 3


  C:0A27H         LINE#         7
  C:0A31H         LINE#         8
  C:0A31H         LINE#         9
  C:0A33H         LINE#         10
  C:0A35H         LINE#         12
  C:0A35H         LINE#         13
  C:0A37H         LINE#         14
  C:0A39H         LINE#         15
  C:0A3BH         LINE#         16
  -------         ENDPROC       _DELAY
  -------         ENDMOD        DELAY

  -------         MODULE        NIXIE
  C:0000H         SYMBOL        _ICE_DUMMY_
  C:099FH         PUBLIC        _Nixie
  D:0080H         PUBLIC        P0
  B:00A0H.2       PUBLIC        P2_2
  B:00A0H.3       PUBLIC        P2_3
  B:00A0H.4       PUBLIC        P2_4
  C:0A48H         SYMBOL        _?ix1000
  -------         PROC          _NIXIE
  D:000AH         SYMBOL        Location
  D:000BH         SYMBOL        Number
  -------         DO            
  D:000DH         SYMBOL        NixieTable
  -------         ENDDO         
  C:099FH         LINE#         4
  C:09A5H         LINE#         5
  C:09A5H         LINE#         6
  C:09B8H         LINE#         8
  C:09E6H         LINE#         9
  C:09E6H         LINE#         10
  C:09EAH         LINE#         11
  C:09EEH         LINE#         12
  C:09F2H         LINE#         13
  C:09F6H         LINE#         14
  C:09FEH         LINE#         15
  C:0A06H         LINE#         16
  C:0A0EH         LINE#         17
  C:0A14H         LINE#         18
  C:0A14H         LINE#         19
  C:0A1CH         LINE#         20
  C:0A23H         LINE#         21
  C:0A26H         LINE#         22
  -------         ENDPROC       _NIXIE
  -------         ENDMOD        NIXIE

  -------         MODULE        ?C?COPY
  C:08D0H         PUBLIC        ?C?COPY
  -------         ENDMOD        ?C?COPY

******************************************************************************
* RESTRICTED VERSION WITH 0800H BYTE CODE SIZE LIMIT; USED: 0150H BYTE (16%) *
******************************************************************************

Program Size: data=24.0 xdata=0 code=597
LINK/LOCATE RUN COMPLETE.  0 WARNING(S),  0 ERROR(S)
