:06090600010800010909CF
:1008B800E4FDFCC3ED9FEC9E50070DBD00010C80CC
:1008C800F2E4FCFDC3ED9FEC9E50070DBD00010C4A
:0208D80080F2AC
:0108DA0022FB
:1008F600438901758CFF758AA4D2A9D28CD2AF2206
:03000B0002088C5C
:10088C00C0E0C0D0C28C758CFF758AA40508E50841
:10089C00D395095004D2978002C297E508C394C837
:0C08AC004003750800D28CD0D0D0E032A0
:1008DB001208F6750905E4F5087F507EC31208B8B7
:0B08EB0075090AE4F5081208B880E85F
:03000000020800F3
:0C080000787FE4F6D8FD758109020847F6
:10080C000208DBE493A3F8E493A34003F68001F21F
:10081C0008DFF48029E493A3F85407240CC8C333ED
:10082C00C4540F4420C8834004F456800146F6DFBC
:10083C00E4800B0102040810204080900906E47E3D
:10084C00019360BCA3FF543F30E509541FFEE493B1
:10085C00A360010ECF54C025E060A840B8E493A378
:10086C00FAE493A3F8E493A3C8C582C8CAC583CAA3
:10087C00F0A3C8C582C8CAC583CADFE9DEE780BE5B
:01090C0000EA
:00000001FF
