C51 COMPILER V9.60.7.0   DS1302                                                            03/17/2024 17:55:57 PAGE 1   


C51 COMPILER V9.60.7.0, COMPILATION OF MODULE DS1302
OBJECT MODULE PLACED IN .\Objects\DS1302.obj
COMPILER INVOKED BY: C:\Keil_v5\C51\BIN\C51.EXE DS1302.c OPTIMIZE(8,SPEED) BROWSE DEBUG OBJECTEXTEND PRINT(.\Listings\DS
                    -1302.lst) TABS(2) OBJECT(.\Objects\DS1302.obj)

line level    source

   1          #include <REGX52.H>
   2          
   3          sbit DS1302_SCLK = P3^6;
   4          sbit DS1302_IO = P3^4;
   5          sbit DS1302_CE = P3^5;
   6          
   7          #define DS1302_SECOND  0x80
   8          #define DS1302_MINUTE  0x82
   9          #define DS1302_HOUR    0x84
  10          #define DS1302_DATE    0x86
  11          #define DS1302_MONTH   0x88
  12          #define DS1302_DAY     0x8A
  13          #define DS1302_YEAR    0x8C
  14          #define DS1302_WP      0x8E
  15          
  16          
  17          //                             年 月 日 时 分 秒 星期
  18          unsigned char DS1302_Time[] = {24,3,17,17,55,55,7};
  19          
  20          void DS1302_Init()
  21          {
  22   1        DS1302_CE = 0;
  23   1        DS1302_SCLK = 0;
  24   1      }
  25          
  26          void DS1302_WriteByte(unsigned char Command,Data)
  27          {
  28   1        unsigned char i = 0;
  29   1        DS1302_CE = 1;  
  30   1        for(i = 0;i < 8 ;i++)
  31   1        {
  32   2          DS1302_IO = Command & (0x01 << i);
  33   2          DS1302_SCLK = 1;
  34   2          //Sleep(20);
  35   2          DS1302_SCLK = 0;
  36   2        }
  37   1        for(i = 0;i < 8 ;i++)
  38   1        {
  39   2          DS1302_IO = Data & (0x01 << i);
  40   2          DS1302_SCLK = 1;
  41   2          //Sleep(20);
  42   2          DS1302_SCLK = 0;
  43   2        }
  44   1        DS1302_CE = 0;
  45   1      }
  46          
  47          unsigned char DS1302_ReadByte(unsigned char Command)
  48          {
  49   1        unsigned char i,Data = 0x00;
  50   1        Command |= 0X01;
  51   1        DS1302_CE = 1;  
  52   1        for(i = 0;i < 8 ;i++)
  53   1        {
  54   2          DS1302_IO = Command & (0x01 << i);
C51 COMPILER V9.60.7.0   DS1302                                                            03/17/2024 17:55:57 PAGE 2   

  55   2          DS1302_SCLK = 0;
  56   2          DS1302_SCLK = 1;
  57   2          //Sleep(20);
  58   2        }
  59   1        for(i = 0;i < 8 ;i++)
  60   1        {
  61   2          DS1302_SCLK = 1;
  62   2          DS1302_SCLK = 0;
  63   2          if(DS1302_IO){Data |= (0x01 << i);}
  64   2        }
  65   1        DS1302_CE = 0;  
  66   1        DS1302_IO = 0;
  67   1        return Data;
  68   1      }
  69          
  70          void DS1302_SetTime(void)
  71          {
  72   1        DS1302_WriteByte(DS1302_WP,0x00);
  73   1        DS1302_WriteByte(DS1302_YEAR,DS1302_Time[0]/10*16+DS1302_Time[0]%10);
  74   1        DS1302_WriteByte(DS1302_MONTH,DS1302_Time[1]/10*16+DS1302_Time[1]%10);
  75   1        DS1302_WriteByte(DS1302_DATE,DS1302_Time[2]/10*16+DS1302_Time[2]%10);
  76   1        DS1302_WriteByte(DS1302_HOUR,DS1302_Time[3]/10*16+DS1302_Time[3]%10);
  77   1        DS1302_WriteByte(DS1302_MINUTE,DS1302_Time[4]/10*16+DS1302_Time[4]%10);
  78   1        DS1302_WriteByte(DS1302_SECOND,DS1302_Time[5]/10*16+DS1302_Time[5]%10);
  79   1        DS1302_WriteByte(DS1302_DAY,DS1302_Time[6]/10*16+DS1302_Time[6]%10);
  80   1        DS1302_WriteByte(DS1302_WP,0x80);
  81   1      
  82   1      }
  83          
  84          void DS1302_ReadTime(void)
  85          {
  86   1        unsigned char Tmp;
  87   1        Tmp = DS1302_ReadByte(DS1302_YEAR);
  88   1        DS1302_Time[0] =Tmp/16*10+Tmp%16;
  89   1        
  90   1        Tmp = DS1302_ReadByte(DS1302_MONTH);
  91   1        DS1302_Time[1] =Tmp/16*10+Tmp%16;
  92   1        
  93   1        Tmp = DS1302_ReadByte(DS1302_DATE);
  94   1        DS1302_Time[2] =Tmp/16*10+Tmp%16;
  95   1        
  96   1        Tmp = DS1302_ReadByte(DS1302_HOUR);
  97   1        DS1302_Time[3] =Tmp/16*10+Tmp%16;
  98   1        
  99   1        Tmp = DS1302_ReadByte(DS1302_MINUTE);
 100   1        DS1302_Time[4] =Tmp/16*10+Tmp%16;
 101   1        
 102   1        Tmp = DS1302_ReadByte(DS1302_SECOND);
 103   1        DS1302_Time[5] =Tmp/16*10+Tmp%16;
 104   1        
 105   1        Tmp = DS1302_ReadByte(DS1302_DAY);
 106   1        DS1302_Time[6] =Tmp/16*10+Tmp%16;
 107   1      
 108   1      }
 109          
 110          
 111          
 112          
 113          
 114          
 115          
 116          
C51 COMPILER V9.60.7.0   DS1302                                                            03/17/2024 17:55:57 PAGE 3   

 117          


MODULE INFORMATION:   STATIC OVERLAYABLE
   CODE SIZE        =    551    ----
   CONSTANT SIZE    =   ----    ----
   XDATA SIZE       =   ----    ----
   PDATA SIZE       =   ----    ----
   DATA SIZE        =      7       2
   IDATA SIZE       =   ----    ----
   BIT SIZE         =   ----    ----
END OF MODULE INFORMATION.


C51 COMPILATION COMPLETE.  0 WARNING(S),  0 ERROR(S)
