BL51 BANKED LINKER/LOCATER V6.22.4.0                                                    03/17/2024  17:55:57  PAGE 1


BL51 BANKED LINKER/LOCATER V6.22.4.0, INVOKED BY:
C:\KEIL_V5\C51\BIN\BL51.EXE .\Objects\main.obj, .\Objects\LCD1602.obj, .\Objects\DS1302.obj, .\Objects\Delay.obj TO .\Ob
>> jects\project PRINT (.\Listings\project.m51) RAMSIZE (256)


MEMORY MODEL: SMALL


INPUT MODULES INCLUDED:
  .\Objects\main.obj (MAIN)
  .\Objects\LCD1602.obj (LCD1602)
  .\Objects\DS1302.obj (DS1302)
  .\Objects\Delay.obj (DELAY)
  C:\KEIL_V5\C51\LIB\C51S.LIB (?C_STARTUP)
  C:\KEIL_V5\C51\LIB\C51S.LIB (?C?CLDOPTR)
  C:\KEIL_V5\C51\LIB\C51S.LIB (?C?IMUL)
  C:\KEIL_V5\C51\LIB\C51S.LIB (?C?UIDIV)
  C:\KEIL_V5\C51\LIB\C51S.LIB (?C_INIT)


LINK MAP OF MODULE:  .\Objects\project (MAIN)


            TYPE    BASE      LENGTH    RELOCATION   SEGMENT NAME
            -----------------------------------------------------

            * * * * * * *   D A T A   M E M O R Y   * * * * * * *
            REG     0000H     0008H     ABSOLUTE     "REG BANK 0"
            DATA    0008H     0009H     UNIT         _DATA_GROUP_
            DATA    0011H     0007H     UNIT         ?DT?_LCD_SHOWSIGNEDNUM?LCD1602
            DATA    0018H     0007H     UNIT         ?DT?DS1302
            DATA    001FH     0005H     UNIT         ?DT?_LCD_SHOWHEXNUM?LCD1602
            DATA    0024H     0005H     UNIT         ?DT?_LCD_SHOWBINNUM?LCD1602
            IDATA   0029H     0001H     UNIT         ?STACK

            * * * * * * *   C O D E   M E M O R Y   * * * * * * *
            CODE    0000H     0003H     ABSOLUTE     
                    0003H     07FDH                  *** GAP ***
            CODE    0800H     00EAH     UNIT         ?PR?DS1302_SETTIME?DS1302
            CODE    08EAH     0094H     UNIT         ?C?LIB_CODE
            CODE    097EH     008DH     UNIT         ?PR?DS1302_READTIME?DS1302
            CODE    0A0BH     008CH     UNIT         ?C_C51STARTUP
            CODE    0A97H     0082H     UNIT         ?PR?MAIN?MAIN
            CODE    0B19H     005DH     UNIT         ?PR?_DS1302_WRITEBYTE?DS1302
            CODE    0B76H     004EH     UNIT         ?PR?_DS1302_READBYTE?DS1302
            CODE    0BC4H     003AH     UNIT         ?PR?_LCD_SHOWSIGNEDNUM?LCD1602
            CODE    0BFEH     0039H     UNIT         ?PR?_LCD_SHOWHEXNUM?LCD1602
            CODE    0C37H     0038H     UNIT         ?PR?_LCD_SHOWBINNUM?LCD1602
            CODE    0C6FH     0033H     UNIT         ?PR?_LCD_POW?LCD1602
            CODE    0CA2H     0023H     UNIT         ?PR?_LCD_SHOWSTRING?LCD1602
            CODE    0CC5H     001EH     UNIT         ?PR?_LCD_WRITEDATA?LCD1602
            CODE    0CE3H     001DH     UNIT         ?PR?_LCD_SHOWNUM?LCD1602
            CODE    0D00H     0016H     UNIT         ?PR?_LCD_SETCURSOR?LCD1602
            CODE    0D16H     0015H     UNIT         ?PR?_DELAY?DELAY
            CODE    0D2BH     0014H     UNIT         ?PR?LCD_INIT?LCD1602
            CODE    0D3FH     0012H     UNIT         ?CO?MAIN
            CODE    0D51H     000FH     UNIT         ?PR?LCD_DELAY?LCD1602
            CODE    0D60H     000AH     UNIT         ?PR?_LCD_WRITECOMMAND?LCD1602
BL51 BANKED LINKER/LOCATER V6.22.4.0                                                  03/17/2024  17:55:57  PAGE 2


            CODE    0D6AH     000AH     UNIT         ?PR?_LCD_SHOWCHAR?LCD1602
            CODE    0D74H     000AH     UNIT         ?C_INITSEG
            CODE    0D7EH     0005H     UNIT         ?PR?DS1302_INIT?DS1302



OVERLAY MAP OF MODULE:   .\Objects\project (MAIN)


SEGMENT                                  DATA_GROUP 
  +--> CALLED SEGMENT                  START    LENGTH
------------------------------------------------------
?C_C51STARTUP                          -----    -----
  +--> ?PR?MAIN?MAIN
  +--> ?C_INITSEG

?PR?MAIN?MAIN                          -----    -----
  +--> ?PR?LCD_INIT?LCD1602
  +--> ?PR?DS1302_INIT?DS1302
  +--> ?CO?MAIN
  +--> ?PR?_LCD_SHOWSTRING?LCD1602
  +--> ?PR?DS1302_SETTIME?DS1302
  +--> ?PR?DS1302_READTIME?DS1302
  +--> ?PR?_LCD_SHOWNUM?LCD1602

?PR?LCD_INIT?LCD1602                   -----    -----
  +--> ?PR?_LCD_WRITECOMMAND?LCD1602

?PR?_LCD_WRITECOMMAND?LCD1602          -----    -----
  +--> ?PR?LCD_DELAY?LCD1602

?PR?_LCD_SHOWSTRING?LCD1602            0008H    0003H
  +--> ?PR?_LCD_SETCURSOR?LCD1602
  +--> ?PR?_LCD_WRITEDATA?LCD1602

?PR?_LCD_SETCURSOR?LCD1602             -----    -----
  +--> ?PR?_LCD_WRITECOMMAND?LCD1602

?PR?_LCD_WRITEDATA?LCD1602             -----    -----
  +--> ?PR?LCD_DELAY?LCD1602

?PR?DS1302_SETTIME?DS1302              -----    -----
  +--> ?PR?_DS1302_WRITEBYTE?DS1302

?PR?_DS1302_WRITEBYTE?DS1302           0008H    0002H

?PR?DS1302_READTIME?DS1302             -----    -----
  +--> ?PR?_DS1302_READBYTE?DS1302

?PR?_LCD_SHOWNUM?LCD1602               0008H    0005H
  +--> ?PR?_LCD_SETCURSOR?LCD1602
  +--> ?PR?_LCD_POW?LCD1602
  +--> ?PR?_LCD_WRITEDATA?LCD1602

?PR?_LCD_POW?LCD1602                   000DH    0004H


BL51 BANKED LINKER/LOCATER V6.22.4.0                                                  03/17/2024  17:55:57  PAGE 3



SYMBOL TABLE OF MODULE:  .\Objects\project (MAIN)

  VALUE           TYPE          NAME
  ----------------------------------

  -------         MODULE        MAIN
  C:0000H         SYMBOL        _ICE_DUMMY_
  C:0A97H         PUBLIC        main
  -------         PROC          MAIN
  C:0A97H         LINE#         7
  C:0A97H         LINE#         8
  C:0A97H         LINE#         9
  C:0A9AH         LINE#         10
  C:0A9DH         LINE#         11
  C:0AAAH         LINE#         12
  C:0AB7H         LINE#         14
  C:0ABAH         LINE#         15
  C:0ABAH         LINE#         16
  C:0ABAH         LINE#         17
  C:0ABDH         LINE#         18
  C:0ACCH         LINE#         19
  C:0ADBH         LINE#         20
  C:0AEAH         LINE#         21
  C:0AF9H         LINE#         22
  C:0B08H         LINE#         23
  C:0B17H         LINE#         26
  -------         ENDPROC       MAIN
  -------         ENDMOD        MAIN

  -------         MODULE        LCD1602
  C:0000H         SYMBOL        _ICE_DUMMY_
  D:0080H         PUBLIC        P0
  D:00A0H         PUBLIC        P2
  C:0D60H         PUBLIC        _LCD_WriteCommand
  C:0CE3H         PUBLIC        _LCD_ShowNum
  C:0C37H         PUBLIC        _LCD_ShowBinNum
  C:0D57H         PUBLIC        LCD_Delay
  C:0BFEH         PUBLIC        _LCD_ShowHexNum
  C:0CD9H         PUBLIC        _LCD_WriteData
  B:00A0H.7       PUBLIC        LCD_EN
  C:0D2BH         PUBLIC        LCD_Init
  C:0CA2H         PUBLIC        _LCD_ShowString
  C:0D6AH         PUBLIC        _LCD_ShowChar
  B:00A0H.6       PUBLIC        LCD_RS
  B:00A0H.5       PUBLIC        LCD_RW
  C:0D00H         PUBLIC        _LCD_SetCursor
  C:0BC4H         PUBLIC        _LCD_ShowSignedNum
  C:0C7BH         PUBLIC        _LCD_Pow
  -------         PROC          L?0048
  -------         ENDPROC       L?0048
  -------         PROC          LCD_DELAY
  -------         DO            
  D:0007H         SYMBOL        i
  D:0006H         SYMBOL        j
  -------         ENDDO         
  C:0D57H         LINE#         15
BL51 BANKED LINKER/LOCATER V6.22.4.0                                                  03/17/2024  17:55:57  PAGE 4


  C:0D57H         LINE#         16
  C:0D57H         LINE#         18
  C:0D59H         LINE#         19
  C:0D5BH         LINE#         21
  C:0D5BH         LINE#         22
  C:0D5DH         LINE#         23
  C:0D5FH         LINE#         24
  -------         ENDPROC       LCD_DELAY
  -------         PROC          _LCD_WRITECOMMAND
  D:0007H         SYMBOL        Command
  C:0D60H         LINE#         30
  C:0D60H         LINE#         31
  C:0D60H         LINE#         32
  C:0D62H         LINE#         33
  C:0D62H         LINE#         34
  C:0D62H         LINE#         35
  C:0D62H         LINE#         36
  C:0D65H         LINE#         37
  C:0D67H         LINE#         38
  -------         ENDPROC       _LCD_WRITECOMMAND
  -------         PROC          L?0047
  -------         ENDPROC       L?0047
  -------         PROC          _LCD_WRITEDATA
  D:0007H         SYMBOL        Data
  C:0CD9H         LINE#         46
  C:0CD9H         LINE#         47
  C:0CD9H         LINE#         48
  C:0CDBH         LINE#         49
  C:0CDBH         LINE#         50
  C:0CDBH         LINE#         51
  C:0CDBH         LINE#         52
  C:0CDEH         LINE#         53
  C:0CE0H         LINE#         54
  -------         ENDPROC       _LCD_WRITEDATA
  -------         PROC          _LCD_SETCURSOR
  D:0006H         SYMBOL        Line
  D:0005H         SYMBOL        Column
  C:0D00H         LINE#         63
  C:0D02H         LINE#         64
  C:0D02H         LINE#         65
  C:0D05H         LINE#         66
  C:0D05H         LINE#         67
  C:0D07H         LINE#         68
  C:0D09H         LINE#         69
  C:0D0CH         LINE#         70
  C:0D0CH         LINE#         71
  C:0D15H         LINE#         72
  C:0D15H         LINE#         73
  -------         ENDPROC       _LCD_SETCURSOR
  -------         PROC          LCD_INIT
  C:0D2BH         LINE#         80
  C:0D2BH         LINE#         81
  C:0D2BH         LINE#         82
  C:0D30H         LINE#         83
  C:0D35H         LINE#         84
  C:0D3AH         LINE#         85
  -------         ENDPROC       LCD_INIT
BL51 BANKED LINKER/LOCATER V6.22.4.0                                                  03/17/2024  17:55:57  PAGE 5


  -------         PROC          _LCD_SHOWCHAR
  D:0006H         SYMBOL        Line
  D:0005H         SYMBOL        Column
  D:0004H         SYMBOL        Char
  C:0D6AH         LINE#         95
  C:0D6CH         LINE#         96
  C:0D6CH         LINE#         97
  C:0D6FH         LINE#         98
  -------         ENDPROC       _LCD_SHOWCHAR
  -------         PROC          _LCD_SHOWSTRING
  D:0007H         SYMBOL        Line
  D:0005H         SYMBOL        Column
  D:0008H         SYMBOL        String
  -------         DO            
  D:0005H         SYMBOL        i
  -------         ENDDO         
  C:0CA2H         LINE#         108
  C:0CA8H         LINE#         109
  C:0CA8H         LINE#         111
  C:0CABH         LINE#         112
  C:0CBEH         LINE#         113
  C:0CBEH         LINE#         114
  C:0CC1H         LINE#         115
  C:0CC4H         LINE#         116
  -------         ENDPROC       _LCD_SHOWSTRING
  C:0C71H         SYMBOL        L?0046
  -------         PROC          L?0045
  -------         ENDPROC       L?0045
  C:0C71H         SYMBOL        L?0046
  -------         PROC          _LCD_POW
  D:000DH         SYMBOL        X
  D:000FH         SYMBOL        Y
  -------         DO            
  D:0003H         SYMBOL        i
  D:0006H         SYMBOL        Result
  -------         ENDDO         
  C:0C7BH         LINE#         121
  C:0C83H         LINE#         122
  C:0C83H         LINE#         124
  C:0C87H         LINE#         125
  C:0C97H         LINE#         126
  C:0C97H         LINE#         127
  C:0C9EH         LINE#         128
  C:0CA1H         LINE#         129
  C:0CA1H         LINE#         130
  -------         ENDPROC       _LCD_POW
  -------         PROC          _LCD_SHOWNUM
  D:0007H         SYMBOL        Line
  D:0005H         SYMBOL        Column
  D:000AH         SYMBOL        Number
  D:000CH         SYMBOL        Length
  -------         DO            
  D:0002H         SYMBOL        i
  -------         ENDDO         
  C:0CE3H         LINE#         140
  C:0CE7H         LINE#         141
  C:0CE7H         LINE#         143
BL51 BANKED LINKER/LOCATER V6.22.4.0                                                  03/17/2024  17:55:57  PAGE 6


  C:0CEAH         LINE#         144
  C:0CF2H         LINE#         145
  C:0CF2H         LINE#         146
  C:0CFCH         LINE#         147
  C:0CFFH         LINE#         148
  -------         ENDPROC       _LCD_SHOWNUM
  -------         PROC          _LCD_SHOWSIGNEDNUM
  D:0007H         SYMBOL        Line
  D:0005H         SYMBOL        Column
  D:0002H         SYMBOL        Number
  D:0015H         SYMBOL        Length
  -------         DO            
  D:0002H         SYMBOL        i
  D:0016H         SYMBOL        Number1
  -------         ENDDO         
  C:0BC4H         LINE#         158
  C:0BC4H         LINE#         159
  C:0BC4H         LINE#         162
  C:0BC7H         LINE#         163
  C:0BCFH         LINE#         164
  C:0BCFH         LINE#         165
  C:0BD4H         LINE#         166
  C:0BD8H         LINE#         167
  C:0BDAH         LINE#         169
  C:0BDAH         LINE#         170
  C:0BDFH         LINE#         171
  C:0BE8H         LINE#         172
  C:0BE8H         LINE#         173
  C:0BF0H         LINE#         174
  C:0BF0H         LINE#         175
  C:0BFAH         LINE#         176
  C:0BFDH         LINE#         177
  -------         ENDPROC       _LCD_SHOWSIGNEDNUM
  -------         PROC          _LCD_SHOWHEXNUM
  D:0007H         SYMBOL        Line
  D:0005H         SYMBOL        Column
  D:0021H         SYMBOL        Number
  D:0023H         SYMBOL        Length
  -------         DO            
  D:0002H         SYMBOL        i
  D:0006H         SYMBOL        SingleNumber
  -------         ENDDO         
  C:0BFEH         LINE#         187
  C:0C02H         LINE#         188
  C:0C02H         LINE#         190
  C:0C05H         LINE#         191
  C:0C0DH         LINE#         192
  C:0C0DH         LINE#         193
  C:0C23H         LINE#         194
  C:0C29H         LINE#         195
  C:0C29H         LINE#         196
  C:0C2BH         LINE#         197
  C:0C2DH         LINE#         199
  C:0C2DH         LINE#         200
  C:0C33H         LINE#         201
  C:0C33H         LINE#         202
  C:0C36H         LINE#         203
BL51 BANKED LINKER/LOCATER V6.22.4.0                                                  03/17/2024  17:55:57  PAGE 7


  -------         ENDPROC       _LCD_SHOWHEXNUM
  -------         PROC          _LCD_SHOWBINNUM
  D:0007H         SYMBOL        Line
  D:0005H         SYMBOL        Column
  D:0026H         SYMBOL        Number
  D:0028H         SYMBOL        Length
  -------         DO            
  D:0002H         SYMBOL        i
  -------         ENDDO         
  C:0C37H         LINE#         213
  C:0C3BH         LINE#         214
  C:0C3BH         LINE#         216
  C:0C3EH         LINE#         217
  C:0C46H         LINE#         218
  C:0C46H         LINE#         219
  C:0C6BH         LINE#         220
  C:0C6EH         LINE#         221
  -------         ENDPROC       _LCD_SHOWBINNUM
  -------         ENDMOD        LCD1602

  -------         MODULE        DS1302
  C:0000H         SYMBOL        _ICE_DUMMY_
  C:0800H         PUBLIC        DS1302_SetTime
  D:00B0H         PUBLIC        P3
  B:00B0H.5       PUBLIC        DS1302_CE
  C:097EH         PUBLIC        DS1302_ReadTime
  D:0018H         PUBLIC        DS1302_Time
  C:0B76H         PUBLIC        _DS1302_ReadByte
  C:0D7EH         PUBLIC        DS1302_Init
  B:00B0H.4       PUBLIC        DS1302_IO
  C:0B1FH         PUBLIC        _DS1302_WriteByte
  B:00B0H.6       PUBLIC        DS1302_SCLK
  -------         PROC          DS1302_INIT
  C:0D7EH         LINE#         20
  C:0D7EH         LINE#         21
  C:0D7EH         LINE#         22
  C:0D80H         LINE#         23
  C:0D82H         LINE#         24
  -------         ENDPROC       DS1302_INIT
  -------         PROC          L?0027
  -------         ENDPROC       L?0027
  -------         PROC          _DS1302_WRITEBYTE
  D:0003H         SYMBOL        Command
  D:0008H         SYMBOL        Data
  -------         DO            
  D:0005H         SYMBOL        i
  -------         ENDDO         
  C:0B1FH         LINE#         26
  C:0B25H         LINE#         27
  C:0B25H         LINE#         28
  C:0B27H         LINE#         29
  C:0B29H         LINE#         30
  C:0B29H         LINE#         31
  C:0B29H         LINE#         32
  C:0B44H         LINE#         33
  C:0B46H         LINE#         35
  C:0B48H         LINE#         36
BL51 BANKED LINKER/LOCATER V6.22.4.0                                                  03/17/2024  17:55:57  PAGE 8


  C:0B4CH         LINE#         37
  C:0B4EH         LINE#         38
  C:0B4EH         LINE#         39
  C:0B6BH         LINE#         40
  C:0B6DH         LINE#         42
  C:0B6FH         LINE#         43
  C:0B73H         LINE#         44
  C:0B75H         LINE#         45
  -------         ENDPROC       _DS1302_WRITEBYTE
  -------         PROC          _DS1302_READBYTE
  D:0005H         SYMBOL        Command
  -------         DO            
  D:0003H         SYMBOL        i
  D:0001H         SYMBOL        Data
  -------         ENDDO         
  C:0B76H         LINE#         47
  C:0B78H         LINE#         48
  C:0B78H         LINE#         49
  C:0B7AH         LINE#         50
  C:0B7DH         LINE#         51
  C:0B7FH         LINE#         52
  C:0B80H         LINE#         53
  C:0B80H         LINE#         54
  C:0B9BH         LINE#         55
  C:0B9DH         LINE#         56
  C:0B9FH         LINE#         58
  C:0BA3H         LINE#         59
  C:0BA5H         LINE#         60
  C:0BA5H         LINE#         61
  C:0BA7H         LINE#         62
  C:0BA9H         LINE#         63
  C:0BB9H         LINE#         64
  C:0BBDH         LINE#         65
  C:0BBFH         LINE#         66
  C:0BC1H         LINE#         67
  C:0BC3H         LINE#         68
  -------         ENDPROC       _DS1302_READBYTE
  -------         PROC          DS1302_SETTIME
  C:0800H         LINE#         70
  C:0800H         LINE#         71
  C:0800H         LINE#         72
  C:0808H         LINE#         73
  C:0821H         LINE#         74
  C:083CH         LINE#         75
  C:085DH         LINE#         76
  C:087EH         LINE#         77
  C:089FH         LINE#         78
  C:08C0H         LINE#         79
  C:08E1H         LINE#         80
  -------         ENDPROC       DS1302_SETTIME
  -------         PROC          DS1302_READTIME
  -------         DO            
  D:0007H         SYMBOL        Tmp
  -------         ENDDO         
  C:097EH         LINE#         84
  C:097EH         LINE#         85
  C:097EH         LINE#         87
BL51 BANKED LINKER/LOCATER V6.22.4.0                                                  03/17/2024  17:55:57  PAGE 9


  C:0983H         LINE#         88
  C:0992H         LINE#         90
  C:0997H         LINE#         91
  C:09A6H         LINE#         93
  C:09ABH         LINE#         94
  C:09BAH         LINE#         96
  C:09BFH         LINE#         97
  C:09CEH         LINE#         99
  C:09D3H         LINE#         100
  C:09E2H         LINE#         102
  C:09E7H         LINE#         103
  C:09F6H         LINE#         105
  C:09FBH         LINE#         106
  C:0A0AH         LINE#         108
  -------         ENDPROC       DS1302_READTIME
  -------         ENDMOD        DS1302

  -------         MODULE        DELAY
  C:0000H         SYMBOL        _ICE_DUMMY_
  C:0D16H         PUBLIC        _Delay
  -------         PROC          _DELAY
  D:0006H         SYMBOL        xms
  -------         DO            
  D:0005H         SYMBOL        i
  D:0004H         SYMBOL        j
  -------         ENDDO         
  C:0D16H         LINE#         4
  C:0D16H         LINE#         5
  C:0D16H         LINE#         7
  C:0D20H         LINE#         8
  C:0D20H         LINE#         9
  C:0D22H         LINE#         10
  C:0D24H         LINE#         12
  C:0D24H         LINE#         13
  C:0D26H         LINE#         14
  C:0D28H         LINE#         15
  C:0D2AH         LINE#         16
  -------         ENDPROC       _DELAY
  -------         ENDMOD        DELAY

  -------         MODULE        ?C?CLDOPTR
  C:08EAH         PUBLIC        ?C?CLDOPTR
  -------         ENDMOD        ?C?CLDOPTR

  -------         MODULE        ?C?IMUL
  C:0917H         PUBLIC        ?C?IMUL
  -------         ENDMOD        ?C?IMUL

  -------         MODULE        ?C?UIDIV
  C:0929H         PUBLIC        ?C?UIDIV
  -------         ENDMOD        ?C?UIDIV

*** WARNING L16: UNCALLED SEGMENT, IGNORED FOR OVERLAY PROCESS
    SEGMENT: ?PR?_LCD_SHOWCHAR?LCD1602

*** WARNING L16: UNCALLED SEGMENT, IGNORED FOR OVERLAY PROCESS
    SEGMENT: ?PR?_LCD_SHOWSIGNEDNUM?LCD1602
BL51 BANKED LINKER/LOCATER V6.22.4.0                                                  03/17/2024  17:55:57  PAGE 10



*** WARNING L16: UNCALLED SEGMENT, IGNORED FOR OVERLAY PROCESS
    SEGMENT: ?PR?_LCD_SHOWHEXNUM?LCD1602

*** WARNING L16: UNCALLED SEGMENT, IGNORED FOR OVERLAY PROCESS
    SEGMENT: ?PR?_LCD_SHOWBINNUM?LCD1602

*** WARNING L16: UNCALLED SEGMENT, IGNORED FOR OVERLAY PROCESS
    SEGMENT: ?PR?_DELAY?DELAY

******************************************************************************
* RESTRICTED VERSION WITH 0800H BYTE CODE SIZE LIMIT; USED: 0462H BYTE (54%) *
******************************************************************************

Program Size: data=42.0 xdata=0 code=1414
LINK/LOCATE RUN COMPLETE.  5 WARNING(S),  0 ERROR(S)
