:100BAB005772697465204F4B002020202020202095
:0B0BBB00200052656164204F4B2000B9
:10080000120BF1750C05AB23AA227D017F01120B9F
:100810008E1209738F24E524B401150523E5237096
:10082000020522750C05FBAA227D017F01120B8EA9
:10083000E524B40216E523152370021522750C0574
:10084000AB23AA227D017F01120B8EE52464037085
:1008500040FCAD23FF120B0B7F057E00120BDCE585
:1008600022FD7C007F01120B0B7F057E00120BDC4A
:100870007BFF7A0B79AB7D017F02120B2F7FE87E25
:1008800003120BDC7BFF7A0B79B47D017F02120B24
:100890002FE52464046003020811FF120AB27522D6
:1008A000008F237F01120AB2EFFEEE4222750C0583
:1008B000AB23AA227D017F01120B8E7BFF7A0B797D
:1008C000BD7D017F02120B2F7FE87E03120BDC7BC4
:0F08D000FF7A0B79B47D017F02120B2F02081102
:100BDC00EF1FAC0670011E4C600A7D027CEFDCFE40
:040BEC00DDFC80ECC0
:010BF00022E2
:060C0500C2A58F80D2A7FA
:080C0B007F027EEFDEFEDFFC3C
:010C130022BE
:0A0C2C00C2A6120C05C2A7020C0BB1
:100B5200CFCDCFCECCCE12091E7C007D0A12091E4B
:040B6200ED2430FF4F
:0A0B6600D2A6120C05C2A7020C0B68
:100BC600AE07BE0104ED148006BE0209ED243F44C3
:060BD60080FF120C2C222E
:100BF1007F38120C2C7F0C120C2C7F06120C2C7FD0
:040C010001020C2CB4
:0A0C3600AC03120BC6AF04020B66FC
:060B2F008B088A09890A07
:100B3500120BC6E4FDAB08AA09A90A8D82758300CC
:0C0B45001208DFFF6006120B660D80E94D
:010B51002281
:0C0A7F007F0AEA24FFFDE434FFFC7E0047
:080A8B008E0D8F0E8C0F8D10F3
:100A93007F017E00E4FBEBC39510E50F6480F874DF
:0E0AA3008098500AAC0DAD0E12090C0B80E8C5
:010AB1002222
:040B8E008A0A8B0B39
:100B9200120BC6AA0CEAD39400400D120A7FAC0ACB
:080BA200AD0B120B521A80ED9D
:010BAA002228
:1009D400120BC6C3EA64809480400B7F2B120B6613
:1009E4008A168B17800E7F2D120B66C3E49BF517B6
:1009F400E49AF516AA15EAD39400400D120A7FACC6
:090A040016AD17120B521A80ED19
:010A0D0022C6
:040A0E008A1A8B1B9A
:100A1200120BC6AA1CEAD3940040297F10120A8145
:100A2200AC1AAD1BCFCDCFCECCCE12091EEF540FD8
:100A3200FEC3940AEE5004243080022437FF120BC6
:040A4200661A80D1DF
:010A4600228D
:040A47008A1F8B2057
:100A4B00120BC6AA21EAD394004028EA24FFFDE446
:100A5B0034FFFC7F027E00120A8BAC1FAD20CFCD82
:100A6B00CFCECCCE12091EEF54012430FF120B66F1
:030A7B001A80D20C
:010A7E002255
:10097300E4F50820B1137F14FE120BDC30B1FD7FC8
:10098300147E00120BDC75080120B0147F147E0066
:10099300120BDC30B0FD7F147E00120BDC750802F5
:1009A30020B2147F147E00120BDC30B2FD7F147E64
:1009B30000120BDC75080320B3147F147E00120BA6
:1009C300DC30B3FD7F147E00120BDC750804AF0826
:0109D3002201
:100B0B008F088C098D0A120C4A7FA0120AE2120C74
:100B1B0014AF08120AE2120C14AF0A120AE2120CFA
:040B2B0014020C5351
:020AB2008F08AB
:100AB400120C4A7FA0120AE2120C14AF08120AE2C6
:100AC400120C14120C4A7FA1120AE2120C14120B1B
:0D0AD400708F097F01120C40120C53AF0906
:010AE10022F2
:090C4A00D2A0D2A1C2A0C2A122D5
:070C5300C2A0D2A1D2A02231
:020AE200AD075E
:100AE400E4FB7E007480A803088006CEA2E713CE40
:100AF40013D8F8FFEDF582EF558224FF92A0D2A11E
:060B0400C2A10BBB08DCDE
:010B0A0022C8
:100B7000E4FFD2A0FED2A130A00DA80674800880A8
:0D0B800002C313D8FC4207C2A10EBE08E854
:010B8D002245
:0A0C4000EF24FF92A0D2A1C2A1226E
:0B0C1400D2A0D2A1A2A0E433FFC2A135
:010C1F0022B2
:03000000020C20CF
:0C0C2000787FE4F6D8FD758124020800FE
:1008DF00BB010CE58229F582E5833AF583E02250CE
:1008EF0006E92582F8E622BBFE06E92582F8E22218
:0D08FF00E58229F582E5833AF583E4932232
:10090C00EF8DF0A4A8F0CF8CF0A428CE8DF0A42EFF
:02091C00FE22B9
:10091E00BC000BBE0029EF8DF084FFADF022E4CCBD
:10092E00F875F008EF2FFFEE33FEEC33FCEE9DEC86
:10093E00984005FCEE9DFE0FD5F0E9E4CEFD22EDCC
:10094E00F8F5F0EE8420D21CFEADF075F008EF2F16
:10095E00FFED33FD4007985006D5F0F222C398FD07
:05096E000FD5F0EA22A4
:00000001FF
