BL51 BANKED LINKER/LOCATER V6.22.4.0                                                    04/15/2024  17:11:16  PAGE 1


BL51 BANKED LINKER/LOCATER V6.22.4.0, INVOKED BY:
C:\KEIL_V5\C51\BIN\BL51.EXE .\Objects\main.obj TO .\Objects\project PRINT (.\Listings\project.m51) RAMSIZE (256)


MEMORY MODEL: SMALL


INPUT MODULES INCLUDED:
  .\Objects\main.obj (MAIN)
  C:\KEIL_V5\C51\LIB\C51S.LIB (?C_STARTUP)
  C:\KEIL_V5\C51\LIB\C51S.LIB (?C_INIT)


LINK MAP OF MODULE:  .\Objects\project (MAIN)


            TYPE    BASE      LENGTH    RELOCATION   SEGMENT NAME
            -----------------------------------------------------

            * * * * * * *   D A T A   M E M O R Y   * * * * * * *
            REG     0000H     0008H     ABSOLUTE     "REG BANK 0"
            DATA    0008H     0002H     UNIT         ?DT?MAIN
            IDATA   000AH     0001H     UNIT         ?STACK

            * * * * * * *   C O D E   M E M O R Y   * * * * * * *
            CODE    0000H     0003H     ABSOLUTE     
                    0003H     0008H                  *** GAP ***
            CODE    000BH     0003H     ABSOLUTE     
                    000EH     07F2H                  *** GAP ***
            CODE    0800H     008CH     UNIT         ?C_C51STARTUP
            CODE    088CH     002CH     UNIT         ?PR?TIME0_INIT?MAIN
            CODE    08B8H     0023H     UNIT         ?PR?_DELAY?MAIN
            CODE    08DBH     001BH     UNIT         ?PR?MAIN?MAIN
            CODE    08F6H     0010H     UNIT         ?PR?COM_INIT?MAIN
            CODE    0906H     0007H     UNIT         ?C_INITSEG



OVERLAY MAP OF MODULE:   .\Objects\project (MAIN)


SEGMENT
  +--> CALLED SEGMENT
---------------------
?C_C51STARTUP
  +--> ?PR?MAIN?MAIN
  +--> ?C_INITSEG

?PR?MAIN?MAIN
  +--> ?PR?COM_INIT?MAIN
  +--> ?PR?_DELAY?MAIN



SYMBOL TABLE OF MODULE:  .\Objects\project (MAIN)

  VALUE           TYPE          NAME
  ----------------------------------
BL51 BANKED LINKER/LOCATER V6.22.4.0                                                  04/15/2024  17:11:16  PAGE 2



  -------         MODULE        MAIN
  C:0000H         SYMBOL        _ICE_DUMMY_
  D:0090H         PUBLIC        P1
  D:00B0H         PUBLIC        P3
  B:00A8H.7       PUBLIC        EA
  D:00A8H         PUBLIC        IE
  C:08F6H         PUBLIC        Com_Init
  D:00B8H         PUBLIC        IP
  C:08DBH         PUBLIC        main
  D:0008H         PUBLIC        count
  D:0098H         PUBLIC        SCON
  D:0089H         PUBLIC        TMOD
  D:0088H         PUBLIC        TCON
  C:088CH         PUBLIC        Time0_Init
  B:0090H.7       PUBLIC        SEV_PWM
  B:00A8H.1       PUBLIC        ET0
  D:008CH         PUBLIC        TH0
  D:008AH         PUBLIC        TL0
  B:0088H.4       PUBLIC        TR0
  D:00C8H         PUBLIC        T2CON
  C:08B8H         PUBLIC        _Delay
  D:00D0H         PUBLIC        PSW
  D:0009H         PUBLIC        SEV_conut
  -------         PROC          _DELAY
  D:0006H         SYMBOL        s
  -------         DO            
  D:0004H         SYMBOL        i
  -------         ENDDO         
  C:08B8H         LINE#         10
  C:08B8H         LINE#         11
  C:08B8H         LINE#         13
  C:08C9H         LINE#         14
  C:08DAH         LINE#         15
  -------         ENDPROC       _DELAY
  -------         PROC          COM_INIT
  C:08F6H         LINE#         18
  C:08F6H         LINE#         19
  C:08F6H         LINE#         20
  C:08F9H         LINE#         21
  C:08FCH         LINE#         22
  C:08FFH         LINE#         23
  C:0901H         LINE#         24
  C:0903H         LINE#         25
  C:0905H         LINE#         26
  -------         ENDPROC       COM_INIT
  -------         PROC          TIME0_INIT
  C:088CH         LINE#         29
  C:0890H         LINE#         31
  C:0892H         LINE#         32
  C:0895H         LINE#         33
  C:0898H         LINE#         34
  C:089AH         LINE#         35
  C:08A1H         LINE#         36
  C:08A1H         LINE#         37
  C:08A3H         LINE#         38
  C:08A5H         LINE#         40
BL51 BANKED LINKER/LOCATER V6.22.4.0                                                  04/15/2024  17:11:16  PAGE 3


  C:08A5H         LINE#         41
  C:08A7H         LINE#         42
  C:08A7H         LINE#         44
  C:08AEH         LINE#         45
  C:08AEH         LINE#         46
  C:08B1H         LINE#         47
  C:08B1H         LINE#         48
  C:08B3H         LINE#         49
  -------         ENDPROC       TIME0_INIT
  -------         PROC          MAIN
  C:08DBH         LINE#         51
  C:08DBH         LINE#         52
  C:08DBH         LINE#         53
  C:08DEH         LINE#         55
  C:08DEH         LINE#         56
  C:08DEH         LINE#         57
  C:08E1H         LINE#         58
  C:08E4H         LINE#         59
  C:08EBH         LINE#         60
  C:08EEH         LINE#         61
  C:08F1H         LINE#         62
  C:08F4H         LINE#         65
  -------         ENDPROC       MAIN
  -------         ENDMOD        MAIN

******************************************************************************
* RESTRICTED VERSION WITH 0800H BYTE CODE SIZE LIMIT; USED: 0083H BYTE ( 6%) *
******************************************************************************

Program Size: data=11.0 xdata=0 code=275
LINK/LOCATE RUN COMPLETE.  0 WARNING(S),  0 ERROR(S)
