:100D3F0020202D20202D20200020203A20203A2076
:020D4F00200082
:100A9700120D2B120D7E7BFF7A0D793F7D017F01B1
:100AA700120CA27BFF7A0D79487D017F02120CA2FE
:100AB70012080012097EE518FB7A00750C027D0109
:100AC7007F01120CE3E519FB7A00750C027D047FA8
:100AD70001120CE3E51AFB7A00750C027D077F0112
:100AE700120CE3E51BFB7A00750C027D017F0212F5
:100AF7000CE3E51CFB7A00750C027D047F02120CE7
:100B0700E3E51DFB7A00750C027D077F02120CE3FB
:020B170080A1BB
:060D5100C2A58F80D2A7AD
:080D57007F027EC7DEFEDFFC17
:010D5F002271
:0A0D6000C2A6120D51C2A7020D57E2
:100CC500CFCDCFCECCCE1209297C007D0A120929C1
:040CD500ED2430FFDB
:0A0CD900D2A6120D51C2A7020D575A
:100D0000AE07BE0104ED148006BE0209ED243F4487
:060D100080FF120D6022BD
:100D2B007F38120D607F0C120D607F06120D607FF5
:040D3B0001020D6044
:0A0D6A00AC03120D00AF04020CD917
:060CA2008B088A09890A93
:100CA800120D00E4FDAB08AA09A90A8D827583001C
:0C0CB8001208EAFF6006120CD90D80E95A
:010CC400220D
:0C0C6F007F0AEA24FFFDE434FFFC7E0055
:080C7B008E0D8F0E8C0F8D1001
:100C83007F017E00E4FBEBC39510E50F6480F874ED
:0E0C93008098500AAC0DAD0E1209170B80E8C8
:010CA1002230
:040CE3008A0A8B0BE3
:100CE700120D00AA0CEAD39400400D120C6FAC0A47
:080CF700AD0B120CC51A80EDD3
:010CFF0022D2
:100BC400120D00C3EA64809480400B7F2B120CD971
:100BD4008A168B17800E7F2D120CD9C3E49BF51750
:100BE400E49AF516AA15EAD39400400D120C6FACE2
:090BF40016AD17120CC51A80EDB4
:010BFD0022D5
:040BFE008A218B229B
:100C0200120D00AA23EAD3940040297F10120C711E
:100C1200AC21AD22CFCDCFCECCCE120929EF540FCD
:100C2200FEC3940AEE5004243080022437FF120CD3
:040C3200D91A80D17A
:010C3600229B
:040C37008A268B2757
:100C3B00120D00AA28EAD394004028EA24FFFDE411
:100C4B0034FFFC7F027E00120C7BAC26AD27CFCD90
:100C5B00CFCECCCE120929EF54012430FF120CD980
:030C6B001A80D21A
:010C6E002263
:090D7400071818031111373707A5
:050D7E00C2B5C2B6225F
:060B190025F0FDEC3EFC9E
:060B1F008C088D09AB07F4
:100B2500E4FDD2B57E007401A805088005C333CE67
:100B350033CED8F9FFEBF582EF558224FF92B4D27C
:100B4500B6C2B60DBD08DDE4FD7E007401A805083A
:100B55008005C333CE33CED8F9FFE5085EFEE5093F
:100B65005F4E24FF92B4D2B6C2B60DBD08DBC2B546
:010B7500225D
:020B7600AD07C9
:100B7800E4F9430501D2B5FB7E007401A80308809F
:100B880005C333CE33CED8F9FFEDF582EF55822475
:100B9800FF92B4C2B6D2B60BBB08DDE4FBD2B6C234
:100BA800B630B40DA8037401088002C333D8FC42E0
:0B0BB800010BBB08E8C2B5C2B4AF01DE
:010BC300220F
:10080000E4FDFC7F8E120B1FE51875F00A8475F06D
:1008100010A4FFAEF0E51875F00A84EF7F8C120B80
:1008200019E51975F00A8475F010A4FFAEF0E5190A
:1008300075F00A847C00EF7F88120B19E51A75F0B9
:100840000A8475F010A4FFAEF0E51A75F00A847CF6
:1008500000EF25F0FDEC3EFC7F86120B1FE51B75BB
:10086000F00A8475F010A4FFAEF0E51B75F00A8461
:100870007C00EF25F0FDEC3EFC7F84120B1FE51C95
:1008800075F00A8475F010A4FFAEF0E51C75F00A4F
:10089000847C00EF25F0FDEC3EFC7F82120B1FE50F
:1008A0001D75F00A8475F010A4FFAEF0E51D75F01B
:1008B0000A847C00EF25F0FDEC3EFC7F80120B1FCC
:1008C000E51E75F00A8475F010A4FFAEF0E51E7504
:1008D000F00A847C00EF25F0FDEC3EFC7F8A120BD1
:0A08E0001F7D807C007F8E020B1F3D
:10097E007F8C120B76EFC4540F75F00AA4FEEF5461
:10098E000F2EF5187F88120B76EFC4540F75F00AF0
:10099E00A4FEEF540F2EF5197F86120B76EFC4547A
:1009AE000F75F00AA4FEEF540F2EF51A7F84120B6A
:1009BE0076EFC4540F75F00AA4FEEF540F2EF51BFC
:1009CE007F82120B76EFC4540F75F00AA4FEEF541B
:1009DE000F2EF51C7F80120B76EFC4540F75F00AA4
:1009EE00A4FEEF540F2EF51D7F8A120B76EFC45422
:0C09FE000F75F00AA4FEEF540F2EF51E3A
:010A0A0022C9
:100D1600EF1FAC0670011E4C600A7D027CEFDCFE04
:040D2600DDFC80EC84
:010D2A0022A6
:03000000020A0BE6
:0C0A0B00787FE4F6D8FD758128020A52BD
:1008EA00BB010CE58229F582E5833AF583E02250C3
:1008FA0006E92582F8E622BBFE06E92582F8E2220D
:0D090A00E58229F582E5833AF583E4932226
:10091700EF8DF0A4A8F0CF8CF0A428CE8DF0A42EF4
:02092700FE22AE
:10092900BC000BBE0029EF8DF084FFADF022E4CCB2
:10093900F875F008EF2FFFEE33FEEC33FCEE9DEC7B
:10094900984005FCEE9DFE0FD5F0E9E4CEFD22EDC1
:10095900F8F5F0EE8420D21CFEADF075F008EF2F0B
:10096900FFED33FD4007985006D5F0F222C398FDFC
:050979000FD5F0EA2299
:100A1700020A97E493A3F8E493A34003F68001F254
:100A270008DFF48029E493A3F85407240CC8C333E0
:100A3700C4540F4420C8834004F456800146F6DFAF
:100A4700E4800B0102040810204080900D74E47EBE
:100A5700019360BCA3FF543F30E509541FFEE493A4
:100A6700A360010ECF54C025E060A840B8E493A36B
:100A7700FAE493A3F8E493A3C8C582C8CAC583CA96
:100A8700F0A3C8C582C8CAC583CADFE9DEE780BE4E
:010D7D000075
:00000001FF
