:10119800543A0054483A00544C3A004F563A4800E2
:0A11A8004F563A4C00202020200092
:100C5F0012125C7FE87E03121224E4FF120FF48F4E
:100C6F000F7F01120FF48F0AD3E50F648094FD50AC
:100C7F0016C3E50A64809449400DD3E50A6480F8F1
:100C8F00E50F6480985006750F14750A0F1212390C
:100C9F007BFF7A1179987D017F011210C57BFF7A56
:100CAF0011799B7D017F021210C57BFF7A11799F0D
:100CBF007D097F021210C5E50FFB3395E0FA751918
:100CCF00037D047F02120EDDE50AFB3395E0FA7512
:100CDF0019037D0C7F02120EDD1211CB1212AF8F92
:100CEF001012125C1210248F0E8E0D8D0C8C0BE4D3
:100CFF00FFFEFDFCAB0EAA0DA90CA80B1209A65006
:100D0F001E7B2D7D037F0112128BAF0EAE0DAD0C2E
:100D1F00AC0B120A1F8F148E138D128C1180157B42
:100D2F002B7D037F0112128B850E14850D13850CFD
:100D3F0012850B11AF14AE13AD12AC11120A6EABBC
:100D4F0007AA067519037D047F011211427B2E7DC0
:100D5F00077F0112128B7F007E407D1C7C46AB14F7
:100D6F00AA13A912A811120800120A6EE47B107AB6
:100D7F0027F9F8120BBF7519047D087F0112114274
:100D8F00E5107003020E2EB4010E050FD3E50F64AC
:100D9F008094FD4003750F7DE510B40211150FD33C
:100DAF00E50A6480F8E50F6480985002050FE5109E
:100DBF00B40311050AC3E50F6480F8E50A6480984F
:100DCF004002150AE510B4040E150AC3E50A648043
:100DDF0094495003750AC9E50FFB3395E0FA75196D
:100DEF00037D047F02120EDDE50AFB3395E0FA75F1
:100DFF0019037D0C7F02120EDDE50FFD3395E0FC2C
:100E0F00E4FF1210A17F057E00121224E50AFD33C4
:100E1F0095E0FC7F011210A17F057E00121224AC19
:100E2F000FEC120A3AAB0EAA0DA90CA80B1209A6C9
:100E3F00600A40087BFF7A1179A38019AC0AEC1283
:100E4F000A3AAB0EAA0DA90CA80B1209A650177BD4
:100E5F00FF7A1179A87D0D7F011210C57F327E00B8
:100E6F00121078020CEB7BFF7A1179AD7D0D7F01AB
:060E7F001210C5020CEB8D
:03000B00020E855D
:100E8500C0E0C0F0C083C082C0D075D000C000C033
:0D0E950001C002C003C004C005C006C007B4
:100EA200758A18758CFC0509E50970020508C3945A
:100EB20014E50894004009750800750900120F50E6
:100EC200D007D006D005D004D003D002D001D00084
:0B0ED200D0D0D082D083D0F0D0E0322E
:10122400EF1FAC0670011E4C600A7D027CEFDCFEF1
:04123400DDFC80EC71
:011238002293
:06124D00C2A58F80D2A7AC
:081253007F027EEFDEFEDFFCEE
:01125B002270
:0A128100C2A612124DC2A7021253BA
:1010E800CFCDCFCECCCE120B2E7C007D0A120B2E8C
:0410F800ED2430FFB4
:0A10FC00D2A612124DC2A702125331
:1011E200AE07BE0104ED148006BE0209ED243F44A1
:0611F20080FF12128122B1
:101239007F381212817F0C1212817F061212817F70
:04124900010212810B
:0A128B00AC031211E2AF040210FCE4
:0610C5008B158A16891745
:1010CB001211E2E4FDAB15AA16A9178D82758300E8
:0C10DB00120AEFFF60061210FC0D80E905
:0110E70022E6
:0C0FC1007F0AEA24FFFDE434FFFC7E0000
:080FCD008E1C8F1D8C1E8D1F70
:100FD5007F017E00E4FBEBC3951FE51E6480F8747A
:0E0FE5008098500AAC1CAD1D120B1C0B80E84E
:010FF30022DB
:041142008A178B1865
:101146001211E2AA19EAD39400400D120FC1AC178E
:08115600AD181210E81A80ED3B
:01115E00226E
:100EDD001211E2C3EA64809480400B7F2B1210FC48
:100EED008A1A8B1B800E7F2D1210FCC3E49BF51B01
:100EFD00E49AF51AAA19EAD39400400D120FC1AC69
:090F0D001AAD1B1210E81A80ED68
:010F160022B8
:040F17008A228B237C
:100F1B001211E2AA24EAD3940040297F10120FC3C6
:100F2B00AC22AD23CFCDCFCECCCE120B2EEF540FA8
:100F3B00FEC3940AEE5004243080022437FF1210B3
:040F4B00FC1A80D13B
:010F4F00227F
:040F89008A278B2800
:100F8D001211E2AA29EAD394004028EA24FFFDE4D5
:100F9D0034FFFC7F027E00120FCDAC27AD28CFCDE4
:100FAD00CFCECCCE120B2EEF54012430FF1210FCFD
:030FBD001A80D2C5
:010FC000220E
:1010A1008F158C168D1712129F7FA012104F1212DE
:1010B10069AF1512104F121269AF1712104F1212A9
:0410C100690212A806
:020FF4008F1557
:100FF60012129F7FA012104F121269AF1512104FD6
:1010060012126912129F7FA112104F121269121149
:0D101600068F167F011212951212A8AF1658
:0110230022AA
:09129F00D2A0D2A1C2A0C2A1227A
:0712A800C2A0D2A1D2A022D6
:02104F00AD07EB
:10105100E4FB7E007480A803088006CEA2E713CECD
:1010610013D8F8FFEDF582EF558224FF92A0D2A1AB
:06107100C2A10BBB08DC6C
:011077002256
:10110600E4FFD2A0FED2A130A00DA806748008800C
:0D11160002C313D8FC4207C2A10EBE08E8B8
:0111230022A9
:0A129500EF24FF92A0D2A1C2A12213
:0B126900D2A0D2A1A2A0E433FFC2A1DA
:011274002257
:0D125C001211247FCC1211B27F440211B296
:101024001211247FCC1211B27FBE1211B212115FC1
:101034008F1512115FEFFEE515FFFDAC06EC120AE9
:0B10440035E4FBFA79807841020909CD
:10112400C2AFD2B7C2B77FF7DFFED2B77F20DFFEF0
:0D113400A2B7E433FE7FF7DFFED2AFAF06B7
:01114100228B
:1011F800C2AFC2B77E04DEFEEF24FF92B77E18DED0
:05120800FED2B7D2AFD9
:01120D0022BE
:10117C00C2AFC2B77F02DFFED2B77F02DFFEA2B7DB
:0B118C00E433FE7F18DFFED2AFAF0699
:011197002235
:0211B200AD0787
:1011B400E4FCA8047401088002C333D8FC5DFF1268
:0611C40011F80CBC08EC60
:0111CA002202
:10115F00E4FDFC12117CEF600DA8047401088002FD
:0C116F00C333D8FC42050CBC08E9AF05F6
:01117B002251
:0512AF00E4AF2CF52C5A
:0112B4002217
:10120E00E4FF20B1010F20B0027F0220B2027F0363
:05121E0020B3027F0473
:0112230022A8
:100F5000852A2B12120E8F2AE52BB40107E52A7081
:100F600003752C01E52BB40207E52A7003752C02EA
:100F7000E52BB40307E52A7003752C03E52BB404B5
:080F800007E52A7003752C043B
:010F88002246
:1011CB005389F0438901758A18758CFCC28DD28CBA
:0711DB00D2A9D2AFC2B92274
:0512B500007FE3DFFEF5
:0112BA002211
:10107800AD07AC06E4F52DF52EED25E0FFEC33FECB
:10108800C3E52E9FE52D9E500FB2A51212B5052E71
:09109800E52E70E5052D80E12232
:10080000EC4D6011E8497017ED33EC3304600DE4F2
:10081000FCFFFEFD22E933E8330470F8020ADA1225
:100820000AA558046009E4CC248150062850090226
:100830000AE4284003020AE1C0E0EB4A7044B980B0
:1008400006D0E0FB020AD0EF4E701CBD8008EBFF23
:10085000EAFEE9FD80EBE98DF0A4FEE5F00208E98F
:10086000E9CDF9EAFEEBFFEF89F0A4FCE5F0CE89D3
:10087000F0A42EFFE435F0CD89F0A42DFEE435F090
:100880008067EF4E7005BD80D780C3EF8BF0A4ACBE
:10089000F0EE8BF0A42CFCE435F0F8EF8AF0A42CF9
:1008A000E5F038FCE433CB8DF0A42CFCE5F03BF80C
:1008B000EE8AF0A42CFCE5F038F8E433CF89F0A4FC
:1008C0002CFCE5F038CF3400CE89F0A42FFFE5F002
:1008D0003EFEE433C98DF0A42EFEE5F039CD8AF05A
:1008E000A42FFFE5F03EFEE43DFD33D0E0FB5007D2
:1008F0000BBB000F020AE4EC2CFCEF33FFEE33FEDF
:06090000ED33FD020ABC0C
:10090600020AE4EC5D046005E859047003020ADAA1
:10091600120AA5580460F6EC4860F2EC7004FDFE7D
:10092600FF22C860DB2481C85009C39860025006C4
:10093600020AE19850CAF582E9294B4A7005AB8252
:10094600020AD075F0007C1A7880C3EF9BEE9AED10
:1009560099400DC3EF9BFFEE9AFEED99FDE842F03C
:10096600DC23ACF0D0E0FFD0E0FED0E0FDAB82208F
:10097600E7101BEB60BAEC2CFCEF33FFEE33FEED19
:1009860033FD020ABCE803F830E705C0F075F00055
:10099600EF2FFFEE33FEED33FD40B830E7C280AAFD
:1009A60074F8CC6480CCC86480C8F58204604FC3F8
:1009B600EB9FF5F0EA9E42F0E99D42F0E89C45F097
:1009C600603C501DE5825FFFE582D313CB5BCBF421
:1009D6002B5582FB50280ABA002409B9002008804A
:1009E6001DE5825BFBE582D313CF5FCFF4C3132FE4
:1009F6005582FF50090EBE00050DBD00010CC3EB6C
:100A06009FF5F0EA9E42F0E99D42F0E89C45F060D1
:090A160007CC4820E701B3EC22F3
:100A1F00ED33EC33600A047003BD8004ECB2E7FCE5
:010A2F0022A4
:100A300075F020800E75F010800575F0087D007E41
:100A4000007F003392D530D503120C51EC334010A7
:100A5000EF33FFEE33FEED33FDEC33FCD5F0ED224A
:0E0A6000E5F0247EA2D513CC92E7CDCEFF2286
:100A6E00EDD2E7CD33EC3392D524814006E4FFFE80
:100A7E00FDFC22FCE4CFCECDCC24E0501174FF80DF
:100A8E00EDC3CC13CCCD13CDCE13CECF13CF04707C
:070A9E00F030D5DE020C511F
:100AA500E9D2E7C933E833F892D5EDD2E7CD33EC97
:070AB50033FC5002B2D52210
:100ABC00EC30E7100FBF000C0EBE00080DBD00049B
:100ACC000BEB6014A2D5EB13FCED92E7FD2274FF47
:100ADC00FCFDFEFF22E480F8A2D574FF13FC7D80A0
:030AEC00E480EFB4
:0300000002127574
:0C127500787FE4F6D8FD75812E020C5F36
:100AEF00BB010CE58229F582E5833AF583E02250BC
:100AFF0006E92582F8E622BBFE06E92582F8E22206
:0D0B0F00E58229F582E5833AF583E493221F
:100B1C00EF8DF0A4A8F0CF8CF0A428CE8DF0A42EED
:020B2C00FE22A7
:100B2E00BC000BBE0029EF8DF084FFADF022E4CCAB
:100B3E00F875F008EF2FFFEE33FEEC33FCEE9DEC74
:100B4E00984005FCEE9DFE0FD5F0E9E4CEFD22EDBA
:100B5E00F8F5F0EE8420D21CFEADF075F008EF2F04
:100B6E00FFED33FD4007985006D5F0F222C398FDF5
:050B7E000FD5F0EA2292
:100B830075F008758200EF2FFFEE33FECD33CDCC29
:100B930033CCC58233C5829BED9AEC99E5829840AC
:100BA3000CF582EE9BFEED9AFDEC99FC0FD5F0D689
:100BB300E4CEFBE4CDFAE4CCF9A88222B800C1B9B3
:100BC3000059BA002DEC8BF084CFCECDFCE5F0CBF1
:100BD300F97818EF2FFFEE33FEED33FDEC33FCEB2A
:100BE30033FB10D703994004EB99FB0FD8E5E4F9E5
:100BF300FA227818EF2FFFEE33FEED33FDEC33FCD2
:100C0300C933C910D7059BE99A4007EC9BFCE99AC5
:100C1300F90FD8E0E4C9FAE4CCFB2275F010EF2F0A
:100C2300FFEE33FEED33FDCC33CCC833C810D7070A
:100C33009BEC9AE899400AED9BFDEC9AFCE899F845
:0E0C43000FD5F0DAE4CDFBE4CCFAE4C8F922D8
:0E0C5100C3E49FFFE49EFEE49DFDE49CFC22B4
:00000001FF
