BL51 BANKED LINKER/LOCATER V6.22.4.0                                                    10/31/2023  17:54:45  PAGE 1


BL51 BANKED LINKER/LOCATER V6.22.4.0, INVOKED BY:
C:\KEIL_V5\C51\BIN\BL51.EXE .\Objects\main.obj TO .\Objects\project PRINT (.\Listings\project.m51) RAMSIZE (256)


MEMORY MODEL: SMALL


INPUT MODULES INCLUDED:
  .\Objects\main.obj (MAIN)


LINK MAP OF MODULE:  .\Objects\project (MAIN)


            TYPE    BASE      LENGTH    RELOCATION   SEGMENT NAME
            -----------------------------------------------------

            * * * * * * *   D A T A   M E M O R Y   * * * * * * *
            REG     0000H     0008H     ABSOLUTE     "REG BANK 0"

            * * * * * * *   C O D E   M E M O R Y   * * * * * * *
                    0000H     0800H                  *** GAP ***
            CODE    0800H     0018H     UNIT         ?PR?MIAN?MAIN
            CODE    0818H     0014H     UNIT         ?PR?_DELAY?MAIN



OVERLAY MAP OF MODULE:   .\Objects\project (MAIN)


SEGMENT
  +--> CALLED SEGMENT
---------------------


SYMBOL TABLE OF MODULE:  .\Objects\project (MAIN)

  VALUE           TYPE          NAME
  ----------------------------------

  -------         MODULE        MAIN
  C:0000H         SYMBOL        _ICE_DUMMY_
  B:00A0H.0       PUBLIC        P2_0
  B:00B0H.1       PUBLIC        P3_1
  C:0800H         PUBLIC        mian
  C:0818H         PUBLIC        _Delay
  -------         PROC          _DELAY
  D:0006H         SYMBOL        xms
  -------         DO            
  D:0005H         SYMBOL        i
  D:0004H         SYMBOL        j
  -------         ENDDO         
  C:0818H         LINE#         2
  C:0818H         LINE#         3
  C:0818H         LINE#         5
  C:081CH         LINE#         6
  C:081CH         LINE#         7
  C:081EH         LINE#         8
BL51 BANKED LINKER/LOCATER V6.22.4.0                                                  10/31/2023  17:54:45  PAGE 2


  C:0820H         LINE#         10
  C:0820H         LINE#         11
  C:0822H         LINE#         12
  C:0824H         LINE#         13
  C:0829H         LINE#         14
  C:082BH         LINE#         15
  -------         ENDPROC       _DELAY
  -------         PROC          MIAN
  C:0800H         LINE#         17
  C:0800H         LINE#         18
  C:0800H         LINE#         19
  C:0800H         LINE#         20
  C:0800H         LINE#         21
  C:0803H         LINE#         22
  C:0803H         LINE#         23
  C:080AH         LINE#         24
  C:080DH         LINE#         25
  C:0814H         LINE#         27
  C:0816H         LINE#         28
  C:0816H         LINE#         30
  -------         ENDPROC       MIAN
  -------         ENDMOD        MAIN

*** WARNING L16: UNCALLED SEGMENT, IGNORED FOR OVERLAY PROCESS
    SEGMENT: ?PR?MIAN?MAIN

*** WARNING L10: CANNOT DETERMINE ROOT SEGMENT

******************************************************************************
* RESTRICTED VERSION WITH 0800H BYTE CODE SIZE LIMIT; USED: 002CH BYTE ( 2%) *
******************************************************************************

Program Size: data=8.0 xdata=0 code=44
LINK/LOCATE RUN COMPLETE.  2 WARNING(S),  0 ERROR(S)
