:050A14001209D080FE74
:0300230002098946
:10098900C0E0C0F0C083C082C0D075D000C000C034
:1009990001C002C003C004C005C006C00730980CDE
:1009A900E599F4F5A0AF99120A0CC298D007D006C0
:1009B900D005D004D003D002D001D000D0D0D0824D
:0709C900D083D0F0D0E03232
:1009EB00EF1FAC0670011E4C600A7D027CEFDCFE33
:0409FB00DDFC80ECB3
:0109FF0022D5
:10080000E4F5097590FFC2932097137F64FE1209E7
:10081000EB3097FD7F647E001209EB75090120968D
:10082000147F647E001209EB3097FD7F647E001216
:1008300009EB7509052095147F647E001209EB30E1
:1008400097FD7F647E001209EB7509092094147FDF
:10085000647E001209EB3097FD7F647E001209EB85
:1008600075090D7590FFC2922097147F647E001267
:1008700009EB3097FD7F647E001209EB75090220B9
:1008800096147F647E001209EB3097FD7F647E0032
:100890001209EB7509062095147F647E001209EB9E
:1008A0003097FD7F647E001209EB75090A209414CD
:1008B0007F647E001209EB3097FD7F647E00120991
:1008C000EB75090E7590FFC2912097147F647E002E
:1008D0001209EB3097FD7F647E001209EB75090366
:1008E0002096147F647E001209EB3097FD7F647EB2
:1008F000001209EB7509072095147F647E00120928
:10090000EB3097FD7F647E001209EB75090B209494
:10091000147F647E001209EB3097FD7F647E001225
:1009200009EB75090F7590FFC2902097147F647EC4
:10093000001209EB3097FD7F647E001209EB750908
:10094000042096147F647E001209EB3097FD7F64CB
:100950007E001209EB7509082095147F647E001251
:1009600009EB3097FD7F647E001209EB75090C20BE
:1009700094147F647E001209EB3097FD7F647E0043
:080980001209EB750910AF0923
:01098800224C
:1009D000759850E4F58753890F438920758BFA7514
:0B09E0008DFAC2ABD28ED2AFD2AC2297
:080A0C008F993099FDC2992277
:03000000020A00F1
:0C0A0000787FE4F6D8FD758109020A1425
:00000001FF
