:1009B500120989AF081209D47FE87E031209A00540
:0309C5000880F0B7
:1009A000EF1FAC0670011E4C600A7D027CEFDCFE7E
:0409B000DDFC80ECFE
:0109B4002220
:10080000E4F5097590FFC2932097137F64FE1209E7
:10081000A03097FD7F647E001209A0750901209623
:10082000147F647E001209A03097FD7F647E001261
:1008300009A07509052095147F647E001209A03077
:1008400097FD7F647E001209A07509092094147F2A
:10085000647E001209A03097FD7F647E001209A01B
:1008600075090D7590FFC2922097147F647E001267
:1008700009A03097FD7F647E001209A0750902204F
:1008800096147F647E001209A03097FD7F647E007D
:100890001209A07509062095147F647E001209A034
:1008A0003097FD7F647E001209A075090A20941418
:1008B0007F647E001209A03097FD7F647E001209DC
:1008C000A075090E7590FFC2912097147F647E0079
:1008D0001209A03097FD7F647E001209A0750903FC
:1008E0002096147F647E001209A03097FD7F647EFD
:1008F000001209A07509072095147F647E00120973
:10090000A03097FD7F647E001209A075090B20942A
:10091000147F647E001209A03097FD7F647E001270
:1009200009A075090F7590FFC2902097147F647E0F
:10093000001209A03097FD7F647E001209A075099E
:10094000042096147F647E001209A03097FD7F6416
:100950007E001209A07509082095147F647E00129C
:1009600009A03097FD7F647E001209A075090C2054
:1009700094147F647E001209A03097FD7F647E008E
:080980001209A0750910AF096E
:01098800224C
:10098900759840E4F58753890F438920758BFA756B
:070999008DFAC2ABD28E22E1
:0809D4008F993099FDC29922B0
:030000000209C82A
:0C09C800787FE4F6D8FD7581090209B5BE
:00000001FF
