:1009FE00E4FDFC7F011208F61209748F17E51760EB
:100A0E00F7FD7C007F011208F67F647E001209D587
:020A1E0080E670
:100A2000EF1FAC0670011E4C600A7D027CEFDCFEFD
:040A3000DDFC80EC7D
:010A3400229F
:10097400E4F50820B1137F14FE120A2030B1FD7F84
:10098400147E00120A2075080120B0147F147E0022
:10099400120A2030B0FD7F147E00120A207508026E
:1009A40020B2147F147E00120A2030B2FD7F147E20
:1009B40000120A2075080320B3147F147E00120A63
:1009C4002030B3FD7F147E00120A20750804AF089E
:0109D4002200
:0A0A41003F065B4F666D7D077F6F77
:0608F6008F088C098D0A39
:1008FC00780B7C007D007BFF7A0A79417E007F0AB1
:10090C001208D0E50814B40800505490092575F06D
:10091C0003A4C58325F0C5837302093D0209410276
:10092C00094502094902094D02095502095D0209EE
:10093C0065D2A4800ED2A48012D2A48016D2A48038
:10094C001AC2A4D2A3D2A28016C2A4D2A3C2A280DD
:10095C000EC2A4C2A3D2A28006C2A4C2A3C2A27415
:07096C000B250AF8E6F580F7
:010973002261
:050A4B00007FE3DFFE67
:010A50002283
:1009D500AD07AC06E4F515F516ED25E0FFEC33FEA5
:1009E500C3E5169FE5159E500FB2A5120A4B0516D5
:0909F500E51670E5051580E1220C
:03000000020A35BC
:0C0A3500787FE4F6D8FD7581170209FEF9
:10080000E709F608DFFA8046E709F208DFFA803EDA
:1008100088828C83E709F0A3DFFA8032E309F608C7
:10082000DFFA8078E309F208DFFA807088828C832F
:10083000E309F0A3DFFA806489828A83E0A3F608E3
:10084000DFFA805889828A83E0A3F208DFFA804CBD
:1008500080D280FA80C680D4806980F28033801094
:1008600080A680EA809A80A880DA80E280CA8033FD
:1008700089828A83ECFAE493A3C8C582C8CCC58375
:10088000CCF0A3C8C582C8CCC583CCDFE9DEE78045
:100890000D89828A83E493A3F608DFF9ECFAA9F0C4
:1008A000EDFB2289828A83ECFAE0A3C8C582C8CC1A
:1008B000C583CCF0A3C8C582C8CCC583CCDFEADE33
:1008C000E880DB89828A83E493A3F208DFF980CC95
:1008D00088F0EF60010E4E60C388F0ED2402B4048E
:1008E0000050B9F582EB2402B4040050AF23234535
:0608F00082239008507302
:00000001FF
