BL51 BANKED LINKER/LOCATER V6.22.4.0                                                    05/05/2024  19:36:38  PAGE 1


BL51 BANKED LINKER/LOCATER V6.22.4.0, INVOKED BY:
C:\KEIL_V5\C51\BIN\BL51.EXE .\Objects\main.obj, .\Objects\Key.obj, .\Objects\Delay.obj, .\Objects\Nixie.obj TO .\Objects
>> \project PRINT (.\Listings\project.m51) RAMSIZE (256)


MEMORY MODEL: SMALL


INPUT MODULES INCLUDED:
  .\Objects\main.obj (MAIN)
  .\Objects\Key.obj (KEY)
  .\Objects\Delay.obj (DELAY)
  .\Objects\Nixie.obj (NIXIE)
  C:\KEIL_V5\C51\LIB\C51S.LIB (?C_STARTUP)
  C:\KEIL_V5\C51\LIB\C51S.LIB (?C_INIT)


LINK MAP OF MODULE:  .\Objects\project (MAIN)


            TYPE    BASE      LENGTH    RELOCATION   SEGMENT NAME
            -----------------------------------------------------

            * * * * * * *   D A T A   M E M O R Y   * * * * * * *
            REG     0000H     0008H     ABSOLUTE     "REG BANK 0"
            DATA    0008H     0016H     UNIT         ?DT?NIXIE
            DATA    001EH     0006H     UNIT         ?DT?MAIN
            DATA    0024H     0002H     UNIT         _DATA_GROUP_
            IDATA   0026H     0001H     UNIT         ?STACK

            * * * * * * *   C O D E   M E M O R Y   * * * * * * *
            CODE    0000H     0003H     ABSOLUTE     
                    0003H     0008H                  *** GAP ***
            CODE    000BH     0003H     ABSOLUTE     
                    000EH     07F2H                  *** GAP ***
            CODE    0800H     008CH     UNIT         ?C_C51STARTUP
            CODE    088CH     006FH     UNIT         ?PR?KEY?KEY
            CODE    08FBH     0066H     UNIT         ?PR?_NIXIE_SCAN?NIXIE
            CODE    0961H     0056H     UNIT         ?PR?MAIN?MAIN
            CODE    09B7H     002FH     UNIT         ?PR?TIME0_INIT?MAIN
            CODE    09E6H     0023H     UNIT         ?C_INITSEG
            CODE    0A09H     001BH     UNIT         ?PR?NIXIE_LOOP?NIXIE
            CODE    0A24H     0015H     UNIT         ?PR?_DELAY?DELAY
            CODE    0A39H     0010H     UNIT         ?PR?COM_INIT?MAIN
            CODE    0A49H     0009H     UNIT         ?PR?_NIXIE_SETBUF?NIXIE



OVERLAY MAP OF MODULE:   .\Objects\project (MAIN)


SEGMENT                           DATA_GROUP 
  +--> CALLED SEGMENT           START    LENGTH
-----------------------------------------------
?C_C51STARTUP                   -----    -----
  +--> ?PR?MAIN?MAIN
  +--> ?C_INITSEG

BL51 BANKED LINKER/LOCATER V6.22.4.0                                                  05/05/2024  19:36:38  PAGE 2


?PR?MAIN?MAIN                   -----    -----
  +--> ?PR?COM_INIT?MAIN
  +--> ?PR?KEY?KEY
  +--> ?PR?_NIXIE_SCAN?NIXIE

?PR?KEY?KEY                     0024H    0002H
  +--> ?PR?_DELAY?DELAY



SYMBOL TABLE OF MODULE:  .\Objects\project (MAIN)

  VALUE           TYPE          NAME
  ----------------------------------

  -------         MODULE        MAIN
  C:0000H         SYMBOL        _ICE_DUMMY_
  D:0090H         PUBLIC        P1
  D:00B0H         PUBLIC        P3
  B:00A8H.7       PUBLIC        EA
  D:00A8H         PUBLIC        IE
  B:0090H.0       PUBLIC        MOTOR
  D:001EH         PUBLIC        speed
  C:0A39H         PUBLIC        Com_Init
  D:00B8H         PUBLIC        IP
  C:0961H         PUBLIC        main
  D:0020H         PUBLIC        count
  D:0098H         PUBLIC        SCON
  D:0089H         PUBLIC        TMOD
  D:0088H         PUBLIC        TCON
  C:09B7H         PUBLIC        Time0_Init
  B:00A8H.1       PUBLIC        ET0
  D:0021H         PUBLIC        Compare
  D:008CH         PUBLIC        TH0
  D:008AH         PUBLIC        TL0
  B:0088H.4       PUBLIC        TR0
  D:0022H         PUBLIC        KeyNum
  D:00C8H         PUBLIC        T2CON
  D:00D0H         PUBLIC        PSW
  -------         PROC          COM_INIT
  C:0A39H         LINE#         11
  C:0A39H         LINE#         12
  C:0A39H         LINE#         13
  C:0A3CH         LINE#         14
  C:0A3FH         LINE#         15
  C:0A42H         LINE#         16
  C:0A44H         LINE#         17
  C:0A46H         LINE#         18
  C:0A48H         LINE#         19
  -------         ENDPROC       COM_INIT
  -------         PROC          TIME0_INIT
  C:09B7H         LINE#         22
  C:09BDH         LINE#         24
  C:09BFH         LINE#         25
  C:09C2H         LINE#         26
  C:09C5H         LINE#         27
  C:09C7H         LINE#         28
BL51 BANKED LINKER/LOCATER V6.22.4.0                                                  05/05/2024  19:36:38  PAGE 3


  C:09D0H         LINE#         29
  C:09D7H         LINE#         30
  C:09D7H         LINE#         31
  C:09D9H         LINE#         32
  C:09DBH         LINE#         34
  C:09DBH         LINE#         35
  C:09DDH         LINE#         36
  C:09DDH         LINE#         37
  C:09DFH         LINE#         38
  -------         ENDPROC       TIME0_INIT
  -------         PROC          MAIN
  C:0961H         LINE#         42
  C:0961H         LINE#         43
  C:0961H         LINE#         44
  C:0964H         LINE#         46
  C:0964H         LINE#         47
  C:0964H         LINE#         48
  C:096CH         LINE#         49
  C:0974H         LINE#         50
  C:0974H         LINE#         51
  C:097CH         LINE#         52
  C:0982H         LINE#         53
  C:098BH         LINE#         54
  C:0996H         LINE#         55
  C:09A1H         LINE#         56
  C:09ACH         LINE#         57
  C:09ACH         LINE#         58
  C:09B5H         LINE#         59
  -------         ENDPROC       MAIN
  -------         ENDMOD        MAIN

  -------         MODULE        KEY
  C:0000H         SYMBOL        _ICE_DUMMY_
  B:00B0H.0       PUBLIC        P3_0
  B:00B0H.1       PUBLIC        P3_1
  B:00B0H.2       PUBLIC        P3_2
  B:00B0H.3       PUBLIC        P3_3
  C:088CH         PUBLIC        Key
  -------         PROC          KEY
  -------         DO            
  D:0024H         SYMBOL        KeyNumber
  -------         ENDDO         
  C:088CH         LINE#         9
  C:088CH         LINE#         10
  C:088CH         LINE#         11
  C:0891H         LINE#         13
  C:08AAH         LINE#         14
  C:08C4H         LINE#         15
  C:08DEH         LINE#         16
  C:08F8H         LINE#         18
  C:08FAH         LINE#         19
  -------         ENDPROC       KEY
  -------         ENDMOD        KEY

  -------         MODULE        DELAY
  C:0000H         SYMBOL        _ICE_DUMMY_
  C:0A24H         PUBLIC        _Delay
BL51 BANKED LINKER/LOCATER V6.22.4.0                                                  05/05/2024  19:36:38  PAGE 4


  -------         PROC          _DELAY
  D:0006H         SYMBOL        xms
  -------         DO            
  D:0005H         SYMBOL        i
  D:0004H         SYMBOL        j
  -------         ENDDO         
  C:0A24H         LINE#         2
  C:0A24H         LINE#         3
  C:0A24H         LINE#         5
  C:0A2EH         LINE#         6
  C:0A2EH         LINE#         7
  C:0A30H         LINE#         8
  C:0A32H         LINE#         10
  C:0A32H         LINE#         11
  C:0A34H         LINE#         12
  C:0A36H         LINE#         13
  C:0A38H         LINE#         14
  -------         ENDPROC       _DELAY
  -------         ENDMOD        DELAY

  -------         MODULE        NIXIE
  C:0000H         SYMBOL        _ICE_DUMMY_
  D:0009H         PUBLIC        Nixie_Buf
  D:0080H         PUBLIC        P0
  B:00A0H.2       PUBLIC        P2_2
  B:00A0H.3       PUBLIC        P2_3
  B:00A0H.4       PUBLIC        P2_4
  C:0A49H         PUBLIC        _Nixie_SetBuf
  C:08FBH         PUBLIC        _Nixie_Scan
  D:0012H         PUBLIC        NixieTable
  C:0A09H         PUBLIC        Nixie_Loop
  -------         PROC          _NIXIE_SETBUF
  D:0007H         SYMBOL        Location
  D:0004H         SYMBOL        Number
  C:0A49H         LINE#         16
  C:0A49H         LINE#         17
  C:0A49H         LINE#         18
  C:0A51H         LINE#         19
  -------         ENDPROC       _NIXIE_SETBUF
  -------         PROC          _NIXIE_SCAN
  D:0007H         SYMBOL        Location
  D:0004H         SYMBOL        Number
  C:08FBH         LINE#         27
  C:08FBH         LINE#         28
  C:08FBH         LINE#         29
  C:08FEH         LINE#         30
  C:092BH         LINE#         31
  C:092BH         LINE#         32
  C:092FH         LINE#         33
  C:0933H         LINE#         34
  C:0937H         LINE#         35
  C:093BH         LINE#         36
  C:0943H         LINE#         37
  C:094BH         LINE#         38
  C:0953H         LINE#         39
  C:0959H         LINE#         40
  C:0959H         LINE#         41
BL51 BANKED LINKER/LOCATER V6.22.4.0                                                  05/05/2024  19:36:38  PAGE 5


  C:0960H         LINE#         42
  -------         ENDPROC       _NIXIE_SCAN
  -------         PROC          NIXIE_LOOP
  -------         DO            
  D:0008H         SYMBOL        i
  -------         ENDDO         
  C:0A09H         LINE#         49
  C:0A09H         LINE#         50
  C:0A09H         LINE#         52
  C:0A17H         LINE#         53
  C:0A19H         LINE#         54
  C:0A23H         LINE#         55
  -------         ENDPROC       NIXIE_LOOP
  -------         ENDMOD        NIXIE

*** WARNING L16: UNCALLED SEGMENT, IGNORED FOR OVERLAY PROCESS
    SEGMENT: ?PR?_NIXIE_SETBUF?NIXIE

*** WARNING L16: UNCALLED SEGMENT, IGNORED FOR OVERLAY PROCESS
    SEGMENT: ?PR?NIXIE_LOOP?NIXIE

******************************************************************************
* RESTRICTED VERSION WITH 0800H BYTE CODE SIZE LIMIT; USED: 01C8H BYTE (22%) *
******************************************************************************

Program Size: data=39.0 xdata=0 code=600
LINK/LOCATE RUN COMPLETE.  2 WARNING(S),  0 ERROR(S)
