:1008910000001B3CF8FC3B00001B3CFCFF3A000045
:1008A10000000B1C7C7E1B00001B3CFCFF3A00007F
:10080000E4F509F50A1208D2E4F508E5082509908F
:10081000089193FD3395E0FCAF0812086F0508E5D9
:1008200008C3940840E5050AE50AD3941440D9E4C6
:10083000F50A74082509F509D3941840CBE4F509A5
:0208400080C670
:1008B100EF1FAC0670011E4C600A7D027CEFDCFE6E
:0408C100DDFC80ECEE
:0108C5002210
:02084200AD0700
:10084400E4FB7E007480A803088006CEA2E713CEE2
:1008540013D8F8FFEDF582EF558224FF92B4D2B697
:0A086400C2B60BBB08DCD2B5C2B56A
:01086E002267
:10086F00AA07AF05120842AF02A8077480088002DA
:10087F00C313D8FCF4F5807F017E001208B1758098
:02088F00FF2246
:0508D200C2B6C2B52210
:030000000208C62D
:0C08C600787FE4F6D8FD75810A02080076
:00000001FF
