BL51 BANKED LINKER/LOCATER V6.22.4.0                                                    03/15/2024  18:18:42  PAGE 1


BL51 BANKED LINKER/LOCATER V6.22.4.0, INVOKED BY:
C:\KEIL_V5\C51\BIN\BL51.EXE .\Objects\main.obj, .\Objects\Delay.obj, .\Objects\MatrixLED.obj TO .\Objects\project PRINT 
>> (.\Listings\project.m51) RAMSIZE (256)


MEMORY MODEL: SMALL


INPUT MODULES INCLUDED:
  .\Objects\main.obj (MAIN)
  .\Objects\Delay.obj (DELAY)
  .\Objects\MatrixLED.obj (MATRIXLED)
  C:\KEIL_V5\C51\LIB\C51S.LIB (?C_STARTUP)


LINK MAP OF MODULE:  .\Objects\project (MAIN)


            TYPE    BASE      LENGTH    RELOCATION   SEGMENT NAME
            -----------------------------------------------------

            * * * * * * *   D A T A   M E M O R Y   * * * * * * *
            REG     0000H     0008H     ABSOLUTE     "REG BANK 0"
            DATA    0008H     0003H     UNIT         _DATA_GROUP_
            IDATA   000BH     0001H     UNIT         ?STACK

            * * * * * * *   C O D E   M E M O R Y   * * * * * * *
            CODE    0000H     0003H     ABSOLUTE     
                    0003H     07FDH                  *** GAP ***
            CODE    0800H     0042H     UNIT         ?PR?MAIN?MAIN
            CODE    0842H     002DH     UNIT         ?PR?__74HC595_WRITEBYTE?MATRIXLED
            CODE    086FH     0022H     UNIT         ?PR?_MATRIXLED_SHOWCOLUMN?MATRIXLED
            CODE    0891H     0020H     UNIT         ?CO?MAIN
            CODE    08B1H     0015H     UNIT         ?PR?_DELAY?DELAY
            CODE    08C6H     000CH     UNIT         ?C_C51STARTUP
            CODE    08D2H     0005H     UNIT         ?PR?MATRIXLED_INIT?MATRIXLED



OVERLAY MAP OF MODULE:   .\Objects\project (MAIN)


SEGMENT                                       DATA_GROUP 
  +--> CALLED SEGMENT                       START    LENGTH
-----------------------------------------------------------
?C_C51STARTUP                               -----    -----
  +--> ?PR?MAIN?MAIN

?PR?MAIN?MAIN                               0008H    0003H
  +--> ?PR?MATRIXLED_INIT?MATRIXLED
  +--> ?CO?MAIN
  +--> ?PR?_MATRIXLED_SHOWCOLUMN?MATRIXLED

?PR?_MATRIXLED_SHOWCOLUMN?MATRIXLED         -----    -----
  +--> ?PR?__74HC595_WRITEBYTE?MATRIXLED
  +--> ?PR?_DELAY?DELAY


BL51 BANKED LINKER/LOCATER V6.22.4.0                                                  03/15/2024  18:18:42  PAGE 2



SYMBOL TABLE OF MODULE:  .\Objects\project (MAIN)

  VALUE           TYPE          NAME
  ----------------------------------

  -------         MODULE        MAIN
  C:0000H         SYMBOL        _ICE_DUMMY_
  C:0891H         PUBLIC        Animation
  C:0800H         PUBLIC        main
  -------         PROC          MAIN
  -------         DO            
  D:0008H         SYMBOL        i
  D:0009H         SYMBOL        offset
  D:000AH         SYMBOL        Count
  -------         ENDDO         
  C:0800H         LINE#         19
  C:0800H         LINE#         20
  C:0800H         LINE#         21
  C:0805H         LINE#         23
  C:0808H         LINE#         24
  C:0808H         LINE#         25
  C:0808H         LINE#         26
  C:080BH         LINE#         27
  C:080BH         LINE#         28
  C:0826H         LINE#         29
  C:0828H         LINE#         30
  C:082FH         LINE#         31
  C:082FH         LINE#         32
  C:0832H         LINE#         33
  C:0838H         LINE#         34
  C:083DH         LINE#         35
  C:0840H         LINE#         36
  C:0840H         LINE#         37
  -------         ENDPROC       MAIN
  -------         ENDMOD        MAIN

  -------         MODULE        DELAY
  C:0000H         SYMBOL        _ICE_DUMMY_
  C:08B1H         PUBLIC        _Delay
  -------         PROC          _DELAY
  D:0006H         SYMBOL        xms
  -------         DO            
  D:0005H         SYMBOL        i
  D:0004H         SYMBOL        j
  -------         ENDDO         
  C:08B1H         LINE#         4
  C:08B1H         LINE#         5
  C:08B1H         LINE#         7
  C:08BBH         LINE#         8
  C:08BBH         LINE#         9
  C:08BDH         LINE#         10
  C:08BFH         LINE#         12
  C:08BFH         LINE#         13
  C:08C1H         LINE#         14
  C:08C3H         LINE#         15
  C:08C5H         LINE#         16
BL51 BANKED LINKER/LOCATER V6.22.4.0                                                  03/15/2024  18:18:42  PAGE 3


  -------         ENDPROC       _DELAY
  -------         ENDMOD        DELAY

  -------         MODULE        MATRIXLED
  C:0000H         SYMBOL        _ICE_DUMMY_
  D:0080H         PUBLIC        P0
  C:0842H         PUBLIC        __74HC595_WriteByte
  D:00B0H         PUBLIC        P3
  C:08D2H         PUBLIC        MatrixLED_Init
  C:086FH         PUBLIC        _MatrixLED_ShowColumn
  B:00B0H.5       PUBLIC        RCK
  B:00B0H.6       PUBLIC        SCK
  B:00B0H.4       PUBLIC        SER
  -------         PROC          __74HC595_WRITEBYTE
  D:0005H         SYMBOL        Byte
  -------         DO            
  D:0003H         SYMBOL        i
  -------         ENDDO         
  C:0842H         LINE#         15
  C:0844H         LINE#         16
  C:0844H         LINE#         18
  C:0846H         LINE#         19
  C:0846H         LINE#         20
  C:0862H         LINE#         21
  C:0864H         LINE#         22
  C:0866H         LINE#         23
  C:086AH         LINE#         24
  C:086CH         LINE#         25
  C:086EH         LINE#         26
  -------         ENDPROC       __74HC595_WRITEBYTE
  -------         PROC          _MATRIXLED_SHOWCOLUMN
  D:0002H         SYMBOL        Column
  D:0004H         SYMBOL        Data
  C:086FH         LINE#         33
  C:0871H         LINE#         34
  C:0871H         LINE#         35
  C:0876H         LINE#         36
  C:0886H         LINE#         37
  C:088DH         LINE#         38
  C:0890H         LINE#         39
  -------         ENDPROC       _MATRIXLED_SHOWCOLUMN
  -------         PROC          MATRIXLED_INIT
  C:08D2H         LINE#         41
  C:08D2H         LINE#         42
  C:08D2H         LINE#         43
  C:08D4H         LINE#         44
  C:08D6H         LINE#         45
  -------         ENDPROC       MATRIXLED_INIT
  -------         ENDMOD        MATRIXLED

******************************************************************************
* RESTRICTED VERSION WITH 0800H BYTE CODE SIZE LIMIT; USED: 00CBH BYTE ( 9%) *
******************************************************************************

Program Size: data=12.0 xdata=0 code=218
LINK/LOCATE RUN COMPLETE.  0 WARNING(S),  0 ERROR(S)
