BL51 BANKED LINKER/LOCATER V6.22.4.0                                                    03/18/2024  12:38:37  PAGE 1


BL51 BANKED LINKER/LOCATER V6.22.4.0, INVOKED BY:
C:\KEIL_V5\C51\BIN\BL51.EXE .\Objects\main.obj, .\Objects\timer0.obj, .\Objects\Delay.obj TO .\Objects\project PRINT (.\
>> Listings\project.m51) RAMSIZE (256)


MEMORY MODEL: SMALL


INPUT MODULES INCLUDED:
  .\Objects\main.obj (MAIN)
  .\Objects\timer0.obj (TIMER0)
  .\Objects\Delay.obj (DELAY)
  C:\KEIL_V5\C51\LIB\C51S.LIB (?C_STARTUP)
  C:\KEIL_V5\C51\LIB\C51S.LIB (?C_INIT)


LINK MAP OF MODULE:  .\Objects\project (MAIN)


            TYPE    BASE      LENGTH    RELOCATION   SEGMENT NAME
            -----------------------------------------------------

            * * * * * * *   D A T A   M E M O R Y   * * * * * * *
            REG     0000H     0008H     ABSOLUTE     "REG BANK 0"
            DATA    0008H     004CH     UNIT         ?DT?MAIN
            IDATA   0054H     0001H     UNIT         ?STACK

            * * * * * * *   C O D E   M E M O R Y   * * * * * * *
            CODE    0000H     0003H     ABSOLUTE     
                    0003H     0008H                  *** GAP ***
            CODE    000BH     0003H     ABSOLUTE     
                    000EH     07F2H                  *** GAP ***
            CODE    0800H     008CH     UNIT         ?C_C51STARTUP
            CODE    088CH     005BH     UNIT         ?CO?MAIN
            CODE    08E7H     004EH     UNIT         ?C_INITSEG
            CODE    0935H     0034H     UNIT         ?PR?MAIN?MAIN
            CODE    0969H     0034H     UNIT         ?PR?TIMER0_ROUTINE?MAIN
            CODE    099DH     0017H     UNIT         ?PR?TIMER0INIT?TIMER0
            CODE    09B4H     0015H     UNIT         ?PR?_DELAY?DELAY



OVERLAY MAP OF MODULE:   .\Objects\project (MAIN)


SEGMENT
  +--> CALLED SEGMENT
---------------------
?C_C51STARTUP
  +--> ?PR?MAIN?MAIN
  +--> ?C_INITSEG

?PR?MAIN?MAIN
  +--> ?PR?TIMER0INIT?TIMER0
  +--> ?CO?MAIN
  +--> ?PR?_DELAY?DELAY


BL51 BANKED LINKER/LOCATER V6.22.4.0                                                  03/18/2024  12:38:37  PAGE 2



SYMBOL TABLE OF MODULE:  .\Objects\project (MAIN)

  VALUE           TYPE          NAME
  ----------------------------------

  -------         MODULE        MAIN
  C:0000H         SYMBOL        _ICE_DUMMY_
  C:0969H         PUBLIC        Timer0_Routine
  D:00A0H         PUBLIC        P2
  C:088CH         PUBLIC        Music
  B:00A0H.5       PUBLIC        Buzzer
  C:0935H         PUBLIC        main
  D:008CH         PUBLIC        TH0
  D:008AH         PUBLIC        TL0
  B:0088H.4       PUBLIC        TR0
  D:0008H         PUBLIC        MusicSelect
  D:0009H         PUBLIC        FreqSelect
  D:000AH         PUBLIC        FreqTable
  -------         PROC          MAIN
  C:0935H         LINE#         130
  C:0935H         LINE#         131
  C:0935H         LINE#         132
  C:0938H         LINE#         133
  C:0938H         LINE#         134
  C:0938H         LINE#         135
  C:0942H         LINE#         136
  C:0942H         LINE#         137
  C:0944H         LINE#         138
  C:0946H         LINE#         139
  C:0953H         LINE#         140
  C:0955H         LINE#         141
  C:0957H         LINE#         142
  C:095EH         LINE#         143
  C:0960H         LINE#         144
  C:0962H         LINE#         146
  C:0962H         LINE#         147
  C:0964H         LINE#         148
  C:0967H         LINE#         150
  C:0967H         LINE#         151
  -------         ENDPROC       MAIN
  -------         PROC          TIMER0_ROUTINE
  C:0969H         LINE#         154
  C:0974H         LINE#         156
  C:0982H         LINE#         157
  C:0982H         LINE#         158
  C:098FH         LINE#         159
  C:0992H         LINE#         160
  C:0994H         LINE#         161
  C:0994H         LINE#         162
  -------         ENDPROC       TIMER0_ROUTINE
  -------         ENDMOD        MAIN

  -------         MODULE        TIMER0
  C:0000H         SYMBOL        _ICE_DUMMY_
  B:00A8H.7       PUBLIC        EA
  D:0089H         PUBLIC        TMOD
BL51 BANKED LINKER/LOCATER V6.22.4.0                                                  03/18/2024  12:38:37  PAGE 3


  B:00A8H.1       PUBLIC        ET0
  B:0088H.5       PUBLIC        TF0
  C:099DH         PUBLIC        Timer0Init
  D:008CH         PUBLIC        TH0
  D:008AH         PUBLIC        TL0
  B:00B8H.1       PUBLIC        PT0
  B:0088H.4       PUBLIC        TR0
  -------         PROC          TIMER0INIT
  C:099DH         LINE#         11
  C:099DH         LINE#         12
  C:099DH         LINE#         13
  C:09A0H         LINE#         14
  C:09A3H         LINE#         15
  C:09A6H         LINE#         16
  C:09A9H         LINE#         17
  C:09ABH         LINE#         18
  C:09ADH         LINE#         19
  C:09AFH         LINE#         20
  C:09B1H         LINE#         21
  C:09B3H         LINE#         22
  -------         ENDPROC       TIMER0INIT
  -------         ENDMOD        TIMER0

  -------         MODULE        DELAY
  C:0000H         SYMBOL        _ICE_DUMMY_
  C:09B4H         PUBLIC        _Delay
  -------         PROC          _DELAY
  D:0006H         SYMBOL        xms
  -------         DO            
  D:0005H         SYMBOL        i
  D:0004H         SYMBOL        j
  -------         ENDDO         
  C:09B4H         LINE#         4
  C:09B4H         LINE#         5
  C:09B4H         LINE#         7
  C:09BEH         LINE#         8
  C:09BEH         LINE#         9
  C:09C0H         LINE#         10
  C:09C2H         LINE#         12
  C:09C2H         LINE#         13
  C:09C4H         LINE#         14
  C:09C6H         LINE#         15
  C:09C8H         LINE#         16
  -------         ENDPROC       _DELAY
  -------         ENDMOD        DELAY

******************************************************************************
* RESTRICTED VERSION WITH 0800H BYTE CODE SIZE LIMIT; USED: 013FH BYTE (15%) *
******************************************************************************

Program Size: data=85.0 xdata=0 code=463
LINK/LOCATE RUN COMPLETE.  0 WARNING(S),  0 ERROR(S)
