:0A0D59004D61747269784B657900F2
:100C7900120D2A7BFF7A0D79597D017F01120CA192
:100C890012098A8F2FE52F60F7FB7A007519027D0B
:080C9900017F02120CE280E869
:100D1500EF1FAC0670011E4C600A7D027CEFDCFE05
:040D2500DDFC80EC85
:010D290022A7
:060D3E00C2A58F80D2A7C0
:080D44007F027EC7DEFEDFFC2A
:010D4C002284
:0A0D6300C2A6120D3EC2A7020D4405
:100CC400CFCDCFCECCCE1209357C007D0A120935AA
:040CD400ED2430FFDC
:0A0CD800D2A6120D3EC2A7020D4481
:100CFF00AE07BE0104ED148006BE0209ED243F4489
:060D0F0080FF120D6322BB
:100D2A007F38120D637F0C120D637F06120D637FED
:040D3A0001020D6342
:0A0D6D00AC03120CFFAF04020CD817
:060CA1008B158A1689176D
:100CA700120CFFE4FDAB15AA16A9178D82758300F8
:0C0CB7001208F6FF6006120CD80D80E950
:010CC300220E
:0C0C46007F0AEA24FFFDE434FFFC7E007E
:080C52008E1A8F1B8C1C8D1DF6
:100C5A007F017E00E4FBEBC3951DE51C6480F874FC
:0E0C6A008098500AAC1AAD1B1209230B80E8CB
:010C78002259
:040CE2008A178B18CA
:100CE600120CFFAA19EAD39400400D120C46AC1759
:080CF600AD18120CC41A80EDC8
:010CFE0022D3
:100B9B00120CFFC3EA64809480400B7F2B120CD89D
:100BAB008A238B24800E7F2D120CD8C3E49BF52453
:100BBB00E49AF523AA22EAD39400400D120C46AC1A
:090BCB0023AD24120CC41A80EDC4
:010BD40022FE
:040BD5008A278B28B8
:100BD900120CFFAA29EAD3940040297F10120C486D
:100BE900AC27AD28CFCDCFCECCCE120935EF540FDF
:100BF900FEC3940AEE5004243080022437FF120CFD
:040C0900D81A80D1A4
:010C0D0022C4
:040C0E008A2C8B2D74
:100C1200120CFFAA2EEAD394004028EA24FFFDE436
:100C220034FFFC7F027E00120C52AC2CAD2DCFCDD6
:100C3200CFCECCCE120935EF54012430FF120CD89E
:030C42001A80D243
:010C4500228C
:0A0D77003F065B4F666D7D077F6F3E
:060B13008F088C098D0A19
:100B1900780B7C007D007BFF7A0D79777E007F0A58
:100B29001208D0E50814B408005054900B4275F02F
:100B390003A4C58325F0C58373020B5A020B5E0219
:100B49000B62020B66020B6A020B72020B7A020B32
:100B590082D2A4800ED2A48012D2A48016D2A480FC
:100B69001AC2A4D2A3D2A28016C2A4D2A3C2A280BE
:100B79000EC2A4C2A3D2A28006C2A4C2A3C2A274F6
:100B89000B250AF8E6F5807F017E00120D15E4F5C4
:010B990080DB
:010B9A002238
:10098A00E4F5157590FFC2932097137F14FE120D9C
:10099A00153097FD7F147E00120D157515012096EE
:1009AA00147F147E00120D153097FD7F147E0012FD
:1009BA000D157515052095147F147E00120D15303E
:1009CA0097FD7F147E00120D157515092094147F6A
:1009DA00147E00120D153097FD7F147E00120D153E
:1009EA0075150D7590FFC2922097147F147E001220
:1009FA000D153097FD7F147E00120D157515022016
:100A0A0096147F147E00120D153097FD7F147E0018
:100A1A00120D157515062095147F147E00120D15FA
:100A2A003097FD7F147E00120D1575150A20941457
:100A3A007F147E00120D153097FD7F147E00120D73
:100A4A001575150E7590FFC2912097147F147E00BC
:100A5A00120D153097FD7F147E00120D15751503C2
:100A6A002096147F147E00120D153097FD7F147E98
:100A7A0000120D157515072095147F147E00120DAE
:100A8A00153097FD7F147E00120D1575150B2094F5
:100A9A00147F147E00120D153097FD7F147E00120C
:100AAA000D1575150F7590FFC2902097147F147E4F
:100ABA0000120D153097FD7F147E00120D15751565
:100ACA00042096147F147E00120D153097FD7F14B2
:100ADA007E00120D157515082095147F147E0012DC
:100AEA000D153097FD7F147E00120D1575150C201B
:100AFA0094147F147E00120D153097FD7F147E002A
:080B0A00120D15751510AF1551
:010B120022C0
:03000000020D4DA1
:0C0D4D00787FE4F6D8FD75812F020C7948
:10080000E709F608DFFA8046E709F208DFFA803EDA
:1008100088828C83E709F0A3DFFA8032E309F608C7
:10082000DFFA8078E309F208DFFA807088828C832F
:10083000E309F0A3DFFA806489828A83E0A3F608E3
:10084000DFFA805889828A83E0A3F208DFFA804CBD
:1008500080D280FA80C680D4806980F28033801094
:1008600080A680EA809A80A880DA80E280CA8033FD
:1008700089828A83ECFAE493A3C8C582C8CCC58375
:10088000CCF0A3C8C582C8CCC583CCDFE9DEE78045
:100890000D89828A83E493A3F608DFF9ECFAA9F0C4
:1008A000EDFB2289828A83ECFAE0A3C8C582C8CC1A
:1008B000C583CCF0A3C8C582C8CCC583CCDFEADE33
:1008C000E880DB89828A83E493A3F208DFF980CC95
:1008D00088F0EF60010E4E60C388F0ED2402B4048E
:1008E0000050B9F582EB2402B4040050AF23234535
:0608F00082239008507302
:1008F600BB010CE58229F582E5833AF583E02250B7
:1009060006E92582F8E622BBFE06E92582F8E22200
:0D091600E58229F582E5833AF583E493221A
:10092300EF8DF0A4A8F0CF8CF0A428CE8DF0A42EE8
:02093300FE22A2
:10093500BC000BBE0029EF8DF084FFADF022E4CCA6
:10094500F875F008EF2FFFEE33FEEC33FCEE9DEC6F
:10095500984005FCEE9DFE0FD5F0E9E4CEFD22EDB5
:10096500F8F5F0EE8420D21CFEADF075F008EF2FFF
:10097500FFED33FD4007985006D5F0F222C398FDF0
:050985000FD5F0EA228D
:00000001FF
