BL51 BANKED LINKER/LOCATER V6.22.4.0                                                    12/21/2023  20:05:34  PAGE 1


BL51 BANKED LINKER/LOCATER V6.22.4.0, INVOKED BY:
C:\KEIL_V5\C51\BIN\BL51.EXE .\Objects\main.obj, .\Objects\LCD1602.obj TO .\Objects\project PRINT (.\Listings\project.m51
>> ) RAMSIZE (256)


MEMORY MODEL: SMALL


INPUT MODULES INCLUDED:
  .\Objects\main.obj (MAIN)
  .\Objects\LCD1602.obj (LCD1602)
  C:\KEIL_V5\C51\LIB\C51S.LIB (?C_STARTUP)
  C:\KEIL_V5\C51\LIB\C51S.LIB (?C?CLDOPTR)
  C:\KEIL_V5\C51\LIB\C51S.LIB (?C?IMUL)
  C:\KEIL_V5\C51\LIB\C51S.LIB (?C?UIDIV)


LINK MAP OF MODULE:  .\Objects\project (MAIN)


            TYPE    BASE      LENGTH    RELOCATION   SEGMENT NAME
            -----------------------------------------------------

            * * * * * * *   D A T A   M E M O R Y   * * * * * * *
            REG     0000H     0008H     ABSOLUTE     "REG BANK 0"
            DATA    0008H     0007H     UNIT         ?DT?_LCD_SHOWSIGNEDNUM?LCD1602
            DATA    000FH     0005H     UNIT         ?DT?_LCD_SHOWNUM?LCD1602
            DATA    0014H     0005H     UNIT         ?DT?_LCD_SHOWHEXNUM?LCD1602
            DATA    0019H     0005H     UNIT         ?DT?_LCD_SHOWBINNUM?LCD1602
            DATA    001EH     0004H     UNIT         ?DT?_LCD_POW?LCD1602
            DATA    0022H     0003H     UNIT         _DATA_GROUP_
            IDATA   0025H     0001H     UNIT         ?STACK

            * * * * * * *   C O D E   M E M O R Y   * * * * * * *
            CODE    0000H     0003H     ABSOLUTE     
                    0003H     07FDH                  *** GAP ***
            CODE    0800H     0094H     UNIT         ?C?LIB_CODE
            CODE    0894H     003AH     UNIT         ?PR?_LCD_SHOWSIGNEDNUM?LCD1602
            CODE    08CEH     0039H     UNIT         ?PR?_LCD_SHOWHEXNUM?LCD1602
            CODE    0907H     0038H     UNIT         ?PR?_LCD_SHOWBINNUM?LCD1602
            CODE    093FH     0033H     UNIT         ?PR?_LCD_POW?LCD1602
            CODE    0972H     0023H     UNIT         ?PR?_LCD_SHOWSTRING?LCD1602
            CODE    0995H     001EH     UNIT         ?PR?_LCD_WRITEDATA?LCD1602
            CODE    09B3H     001DH     UNIT         ?PR?_LCD_SHOWNUM?LCD1602
            CODE    09D0H     0016H     UNIT         ?PR?_LCD_SETCURSOR?LCD1602
            CODE    09E6H     0014H     UNIT         ?PR?LCD_INIT?LCD1602
            CODE    09FAH     0010H     UNIT         ?PR?MAIN?MAIN
            CODE    0A0AH     0010H     UNIT         ?CO?MAIN
            CODE    0A1AH     000FH     UNIT         ?PR?LCD_DELAY?LCD1602
            CODE    0A29H     000CH     UNIT         ?C_C51STARTUP
            CODE    0A35H     000AH     UNIT         ?PR?_LCD_WRITECOMMAND?LCD1602
            CODE    0A3FH     000AH     UNIT         ?PR?_LCD_SHOWCHAR?LCD1602



OVERLAY MAP OF MODULE:   .\Objects\project (MAIN)


BL51 BANKED LINKER/LOCATER V6.22.4.0                                                  12/21/2023  20:05:34  PAGE 2


SEGMENT                                  DATA_GROUP 
  +--> CALLED SEGMENT                  START    LENGTH
------------------------------------------------------
?C_C51STARTUP                          -----    -----
  +--> ?PR?MAIN?MAIN

?PR?MAIN?MAIN                          -----    -----
  +--> ?PR?LCD_INIT?LCD1602
  +--> ?CO?MAIN
  +--> ?PR?_LCD_SHOWSTRING?LCD1602

?PR?LCD_INIT?LCD1602                   -----    -----
  +--> ?PR?_LCD_WRITECOMMAND?LCD1602

?PR?_LCD_WRITECOMMAND?LCD1602          -----    -----
  +--> ?PR?LCD_DELAY?LCD1602

?PR?_LCD_SHOWSTRING?LCD1602            0022H    0003H
  +--> ?PR?_LCD_SETCURSOR?LCD1602
  +--> ?PR?_LCD_WRITEDATA?LCD1602

?PR?_LCD_SETCURSOR?LCD1602             -----    -----
  +--> ?PR?_LCD_WRITECOMMAND?LCD1602

?PR?_LCD_WRITEDATA?LCD1602             -----    -----
  +--> ?PR?LCD_DELAY?LCD1602



SYMBOL TABLE OF MODULE:  .\Objects\project (MAIN)

  VALUE           TYPE          NAME
  ----------------------------------

  -------         MODULE        MAIN
  C:0000H         SYMBOL        _ICE_DUMMY_
  C:09FAH         PUBLIC        main
  -------         PROC          MAIN
  C:09FAH         LINE#         4
  C:09FAH         LINE#         5
  C:09FAH         LINE#         6
  C:09FDH         LINE#         8
  -------         ENDPROC       MAIN
  -------         ENDMOD        MAIN

  -------         MODULE        LCD1602
  C:0000H         SYMBOL        _ICE_DUMMY_
  D:0080H         PUBLIC        P0
  D:00A0H         PUBLIC        P2
  C:0A35H         PUBLIC        _LCD_WriteCommand
  C:09B3H         PUBLIC        _LCD_ShowNum
  C:0907H         PUBLIC        _LCD_ShowBinNum
  C:0A20H         PUBLIC        LCD_Delay
  C:08CEH         PUBLIC        _LCD_ShowHexNum
  C:09A9H         PUBLIC        _LCD_WriteData
  B:00A0H.7       PUBLIC        LCD_EN
  C:09E6H         PUBLIC        LCD_Init
BL51 BANKED LINKER/LOCATER V6.22.4.0                                                  12/21/2023  20:05:34  PAGE 3


  C:0972H         PUBLIC        _LCD_ShowString
  C:0A3FH         PUBLIC        _LCD_ShowChar
  B:00A0H.6       PUBLIC        LCD_RS
  B:00A0H.5       PUBLIC        LCD_RW
  C:09D0H         PUBLIC        _LCD_SetCursor
  C:0894H         PUBLIC        _LCD_ShowSignedNum
  C:094BH         PUBLIC        _LCD_Pow
  -------         PROC          L?0048
  -------         ENDPROC       L?0048
  -------         PROC          LCD_DELAY
  -------         DO            
  D:0007H         SYMBOL        i
  D:0006H         SYMBOL        j
  -------         ENDDO         
  C:0A20H         LINE#         15
  C:0A20H         LINE#         16
  C:0A20H         LINE#         18
  C:0A22H         LINE#         19
  C:0A24H         LINE#         21
  C:0A24H         LINE#         22
  C:0A26H         LINE#         23
  C:0A28H         LINE#         24
  -------         ENDPROC       LCD_DELAY
  -------         PROC          _LCD_WRITECOMMAND
  D:0007H         SYMBOL        Command
  C:0A35H         LINE#         30
  C:0A35H         LINE#         31
  C:0A35H         LINE#         32
  C:0A37H         LINE#         33
  C:0A37H         LINE#         34
  C:0A37H         LINE#         35
  C:0A37H         LINE#         36
  C:0A3AH         LINE#         37
  C:0A3CH         LINE#         38
  -------         ENDPROC       _LCD_WRITECOMMAND
  -------         PROC          L?0047
  -------         ENDPROC       L?0047
  -------         PROC          _LCD_WRITEDATA
  D:0007H         SYMBOL        Data
  C:09A9H         LINE#         46
  C:09A9H         LINE#         47
  C:09A9H         LINE#         48
  C:09ABH         LINE#         49
  C:09ABH         LINE#         50
  C:09ABH         LINE#         51
  C:09ABH         LINE#         52
  C:09AEH         LINE#         53
  C:09B0H         LINE#         54
  -------         ENDPROC       _LCD_WRITEDATA
  -------         PROC          _LCD_SETCURSOR
  D:0006H         SYMBOL        Line
  D:0005H         SYMBOL        Column
  C:09D0H         LINE#         63
  C:09D2H         LINE#         64
  C:09D2H         LINE#         65
  C:09D5H         LINE#         66
  C:09D5H         LINE#         67
BL51 BANKED LINKER/LOCATER V6.22.4.0                                                  12/21/2023  20:05:34  PAGE 4


  C:09D7H         LINE#         68
  C:09D9H         LINE#         69
  C:09DCH         LINE#         70
  C:09DCH         LINE#         71
  C:09E5H         LINE#         72
  C:09E5H         LINE#         73
  -------         ENDPROC       _LCD_SETCURSOR
  -------         PROC          LCD_INIT
  C:09E6H         LINE#         80
  C:09E6H         LINE#         81
  C:09E6H         LINE#         82
  C:09EBH         LINE#         83
  C:09F0H         LINE#         84
  C:09F5H         LINE#         85
  -------         ENDPROC       LCD_INIT
  -------         PROC          _LCD_SHOWCHAR
  D:0006H         SYMBOL        Line
  D:0005H         SYMBOL        Column
  D:0004H         SYMBOL        Char
  C:0A3FH         LINE#         95
  C:0A41H         LINE#         96
  C:0A41H         LINE#         97
  C:0A44H         LINE#         98
  -------         ENDPROC       _LCD_SHOWCHAR
  -------         PROC          _LCD_SHOWSTRING
  D:0007H         SYMBOL        Line
  D:0005H         SYMBOL        Column
  D:0022H         SYMBOL        String
  -------         DO            
  D:0005H         SYMBOL        i
  -------         ENDDO         
  C:0972H         LINE#         108
  C:0978H         LINE#         109
  C:0978H         LINE#         111
  C:097BH         LINE#         112
  C:098EH         LINE#         113
  C:098EH         LINE#         114
  C:0991H         LINE#         115
  C:0994H         LINE#         116
  -------         ENDPROC       _LCD_SHOWSTRING
  C:0941H         SYMBOL        L?0046
  -------         PROC          L?0045
  -------         ENDPROC       L?0045
  C:0941H         SYMBOL        L?0046
  -------         PROC          _LCD_POW
  D:001EH         SYMBOL        X
  D:0020H         SYMBOL        Y
  -------         DO            
  D:0003H         SYMBOL        i
  D:0006H         SYMBOL        Result
  -------         ENDDO         
  C:094BH         LINE#         121
  C:0953H         LINE#         122
  C:0953H         LINE#         124
  C:0957H         LINE#         125
  C:0967H         LINE#         126
  C:0967H         LINE#         127
BL51 BANKED LINKER/LOCATER V6.22.4.0                                                  12/21/2023  20:05:34  PAGE 5


  C:096EH         LINE#         128
  C:0971H         LINE#         129
  C:0971H         LINE#         130
  -------         ENDPROC       _LCD_POW
  -------         PROC          _LCD_SHOWNUM
  D:0007H         SYMBOL        Line
  D:0005H         SYMBOL        Column
  D:0011H         SYMBOL        Number
  D:0013H         SYMBOL        Length
  -------         DO            
  D:0002H         SYMBOL        i
  -------         ENDDO         
  C:09B3H         LINE#         140
  C:09B7H         LINE#         141
  C:09B7H         LINE#         143
  C:09BAH         LINE#         144
  C:09C2H         LINE#         145
  C:09C2H         LINE#         146
  C:09CCH         LINE#         147
  C:09CFH         LINE#         148
  -------         ENDPROC       _LCD_SHOWNUM
  -------         PROC          _LCD_SHOWSIGNEDNUM
  D:0007H         SYMBOL        Line
  D:0005H         SYMBOL        Column
  D:0002H         SYMBOL        Number
  D:000CH         SYMBOL        Length
  -------         DO            
  D:0002H         SYMBOL        i
  D:000DH         SYMBOL        Number1
  -------         ENDDO         
  C:0894H         LINE#         158
  C:0894H         LINE#         159
  C:0894H         LINE#         162
  C:0897H         LINE#         163
  C:089FH         LINE#         164
  C:089FH         LINE#         165
  C:08A4H         LINE#         166
  C:08A8H         LINE#         167
  C:08AAH         LINE#         169
  C:08AAH         LINE#         170
  C:08AFH         LINE#         171
  C:08B8H         LINE#         172
  C:08B8H         LINE#         173
  C:08C0H         LINE#         174
  C:08C0H         LINE#         175
  C:08CAH         LINE#         176
  C:08CDH         LINE#         177
  -------         ENDPROC       _LCD_SHOWSIGNEDNUM
  -------         PROC          _LCD_SHOWHEXNUM
  D:0007H         SYMBOL        Line
  D:0005H         SYMBOL        Column
  D:0016H         SYMBOL        Number
  D:0018H         SYMBOL        Length
  -------         DO            
  D:0002H         SYMBOL        i
  D:0006H         SYMBOL        SingleNumber
  -------         ENDDO         
BL51 BANKED LINKER/LOCATER V6.22.4.0                                                  12/21/2023  20:05:34  PAGE 6


  C:08CEH         LINE#         187
  C:08D2H         LINE#         188
  C:08D2H         LINE#         190
  C:08D5H         LINE#         191
  C:08DDH         LINE#         192
  C:08DDH         LINE#         193
  C:08F3H         LINE#         194
  C:08F9H         LINE#         195
  C:08F9H         LINE#         196
  C:08FBH         LINE#         197
  C:08FDH         LINE#         199
  C:08FDH         LINE#         200
  C:0903H         LINE#         201
  C:0903H         LINE#         202
  C:0906H         LINE#         203
  -------         ENDPROC       _LCD_SHOWHEXNUM
  -------         PROC          _LCD_SHOWBINNUM
  D:0007H         SYMBOL        Line
  D:0005H         SYMBOL        Column
  D:001BH         SYMBOL        Number
  D:001DH         SYMBOL        Length
  -------         DO            
  D:0002H         SYMBOL        i
  -------         ENDDO         
  C:0907H         LINE#         213
  C:090BH         LINE#         214
  C:090BH         LINE#         216
  C:090EH         LINE#         217
  C:0916H         LINE#         218
  C:0916H         LINE#         219
  C:093BH         LINE#         220
  C:093EH         LINE#         221
  -------         ENDPROC       _LCD_SHOWBINNUM
  -------         ENDMOD        LCD1602

  -------         MODULE        ?C?CLDOPTR
  C:0800H         PUBLIC        ?C?CLDOPTR
  -------         ENDMOD        ?C?CLDOPTR

  -------         MODULE        ?C?IMUL
  C:082DH         PUBLIC        ?C?IMUL
  -------         ENDMOD        ?C?IMUL

  -------         MODULE        ?C?UIDIV
  C:083FH         PUBLIC        ?C?UIDIV
  -------         ENDMOD        ?C?UIDIV

*** WARNING L16: UNCALLED SEGMENT, IGNORED FOR OVERLAY PROCESS
    SEGMENT: ?PR?_LCD_SHOWCHAR?LCD1602

*** WARNING L16: UNCALLED SEGMENT, IGNORED FOR OVERLAY PROCESS
    SEGMENT: ?PR?_LCD_SHOWNUM?LCD1602

*** WARNING L16: UNCALLED SEGMENT, IGNORED FOR OVERLAY PROCESS
    SEGMENT: ?PR?_LCD_SHOWSIGNEDNUM?LCD1602

*** WARNING L16: UNCALLED SEGMENT, IGNORED FOR OVERLAY PROCESS
BL51 BANKED LINKER/LOCATER V6.22.4.0                                                  12/21/2023  20:05:34  PAGE 7


    SEGMENT: ?PR?_LCD_SHOWHEXNUM?LCD1602

*** WARNING L16: UNCALLED SEGMENT, IGNORED FOR OVERLAY PROCESS
    SEGMENT: ?PR?_LCD_SHOWBINNUM?LCD1602

******************************************************************************
* RESTRICTED VERSION WITH 0800H BYTE CODE SIZE LIMIT; USED: 01A9H BYTE (20%) *
******************************************************************************

Program Size: data=38.0 xdata=0 code=588
LINK/LOCATE RUN COMPLETE.  5 WARNING(S),  0 ERROR(S)
