BL51 BANKED LINKER/LOCATER V6.22.4.0                                                    05/05/2024  18:50:46  PAGE 1


BL51 BANKED LINKER/LOCATER V6.22.4.0, INVOKED BY:
C:\KEIL_V5\C51\BIN\BL51.EXE .\Objects\mian.obj TO .\Objects\project PRINT (.\Listings\project.m51) RAMSIZE (256)


MEMORY MODEL: SMALL


INPUT MODULES INCLUDED:
  .\Objects\mian.obj (MIAN)
  C:\KEIL_V5\C51\LIB\C51S.LIB (?C_STARTUP)


LINK MAP OF MODULE:  .\Objects\project (MIAN)


            TYPE    BASE      LENGTH    RELOCATION   SEGMENT NAME
            -----------------------------------------------------

            * * * * * * *   D A T A   M E M O R Y   * * * * * * *
            REG     0000H     0008H     ABSOLUTE     "REG BANK 0"
            IDATA   0008H     0001H     UNIT         ?STACK

            * * * * * * *   C O D E   M E M O R Y   * * * * * * *
            CODE    0000H     0003H     ABSOLUTE     
                    0003H     07FDH                  *** GAP ***
            CODE    0800H     0044H     UNIT         ?PR?MAIN?MIAN
            CODE    0844H     0015H     UNIT         ?PR?_DELAY?MIAN
            CODE    0859H     000CH     UNIT         ?C_C51STARTUP



OVERLAY MAP OF MODULE:   .\Objects\project (MIAN)


SEGMENT
  +--> CALLED SEGMENT
---------------------
?C_C51STARTUP
  +--> ?PR?MAIN?MIAN

?PR?MAIN?MIAN
  +--> ?PR?_DELAY?MIAN



SYMBOL TABLE OF MODULE:  .\Objects\project (MIAN)

  VALUE           TYPE          NAME
  ----------------------------------

  -------         MODULE        MIAN
  C:0000H         SYMBOL        _ICE_DUMMY_
  D:00A0H         PUBLIC        P2
  C:0852H         PUBLIC        _delay
  C:0800H         PUBLIC        main
  B:00A0H.0       PUBLIC        LED
  -------         PROC          L?0023
  -------         ENDPROC       L?0023
BL51 BANKED LINKER/LOCATER V6.22.4.0                                                  05/05/2024  18:50:46  PAGE 2


  -------         PROC          _DELAY
  D:0007H         SYMBOL        i
  C:0852H         LINE#         5
  C:0852H         LINE#         6
  C:0852H         LINE#         7
  C:0858H         LINE#         8
  -------         ENDPROC       _DELAY
  -------         PROC          MAIN
  -------         DO            
  D:0002H         SYMBOL        time
  D:0004H         SYMBOL        i
  -------         ENDDO         
  C:0800H         LINE#         10
  C:0800H         LINE#         11
  C:0800H         LINE#         13
  C:0800H         LINE#         14
  C:0800H         LINE#         15
  C:0803H         LINE#         16
  C:0803H         LINE#         17
  C:0806H         LINE#         18
  C:0806H         LINE#         19
  C:0806H         LINE#         20
  C:0806H         LINE#         21
  C:0806H         LINE#         22
  C:0809H         LINE#         23
  C:0814H         LINE#         24
  C:081FH         LINE#         25
  C:082CH         LINE#         26
  C:082CH         LINE#         27
  C:082FH         LINE#         28
  C:082FH         LINE#         29
  C:082FH         LINE#         30
  C:082FH         LINE#         31
  C:082FH         LINE#         32
  C:0832H         LINE#         33
  C:083DH         LINE#         34
  -------         ENDPROC       MAIN
  -------         ENDMOD        MIAN

******************************************************************************
* RESTRICTED VERSION WITH 0800H BYTE CODE SIZE LIMIT; USED: 0059H BYTE ( 4%) *
******************************************************************************

Program Size: data=9.0 xdata=0 code=104
LINK/LOCATE RUN COMPLETE.  0 WARNING(S),  0 ERROR(S)
