BL51 BANKED LINKER/LOCATER V6.22.4.0                                                    03/17/2024  19:49:41  PAGE 1


BL51 BANKED LINKER/LOCATER V6.22.4.0, INVOKED BY:
C:\KEIL_V5\C51\BIN\BL51.EXE .\Objects\main.obj, .\Objects\LCD1602.obj, .\Objects\DS1302.obj, .\Objects\Delay.obj, .\Obje
>> cts\Key.obj, .\Objects\timer0.obj TO .\Objects\project PRINT (.\Listings\project.m51) RAMSIZE (256) DISABLEWARNING (1
>> 6)


MEMORY MODEL: SMALL


INPUT MODULES INCLUDED:
  .\Objects\main.obj (MAIN)
  .\Objects\LCD1602.obj (LCD1602)
  .\Objects\DS1302.obj (DS1302)
  .\Objects\Delay.obj (DELAY)
  .\Objects\Key.obj (KEY)
  .\Objects\timer0.obj (TIMER0)
  C:\KEIL_V5\C51\LIB\C51S.LIB (?C_STARTUP)
  C:\KEIL_V5\C51\LIB\C51S.LIB (?C?SCDIV)
  C:\KEIL_V5\C51\LIB\C51S.LIB (?C?CLDOPTR)
  C:\KEIL_V5\C51\LIB\C51S.LIB (?C?IMUL)
  C:\KEIL_V5\C51\LIB\C51S.LIB (?C?UIDIV)
  C:\KEIL_V5\C51\LIB\C51S.LIB (?C_INIT)


LINK MAP OF MODULE:  .\Objects\project (MAIN)


            TYPE    BASE      LENGTH    RELOCATION   SEGMENT NAME
            -----------------------------------------------------

            * * * * * * *   D A T A   M E M O R Y   * * * * * * *
            REG     0000H     0008H     ABSOLUTE     "REG BANK 0"
            DATA    0008H     0009H     UNIT         _DATA_GROUP_
            DATA    0011H     0007H     UNIT         ?DT?_LCD_SHOWSIGNEDNUM?LCD1602
            DATA    0018H     0007H     UNIT         ?DT?DS1302
            DATA    001FH     0006H     UNIT         ?DT?MAIN
            DATA    0025H     0005H     UNIT         ?DT?_LCD_SHOWHEXNUM?LCD1602
            DATA    002AH     0005H     UNIT         ?DT?_LCD_SHOWBINNUM?LCD1602
            IDATA   002FH     0001H     UNIT         ?STACK

            * * * * * * *   C O D E   M E M O R Y   * * * * * * *
            CODE    0000H     0003H     ABSOLUTE     
                    0003H     0008H                  *** GAP ***
            CODE    000BH     0003H     ABSOLUTE     
                    000EH     07F2H                  *** GAP ***
            CODE    0800H     02CFH     UNIT         ?PR?TIMESET?MAIN
            CODE    0ACFH     017AH     UNIT         ?PR?DS1302_SETTIME?DS1302
            CODE    0C49H     00B6H     UNIT         ?C?LIB_CODE
            CODE    0CFFH     008DH     UNIT         ?PR?DS1302_READTIME?DS1302
            CODE    0D8CH     008CH     UNIT         ?C_C51STARTUP
            CODE    0E18H     0069H     UNIT         ?PR?TIMESHOW?MAIN
            CODE    0E81H     0061H     UNIT         ?PR?KEY?KEY
            CODE    0EE2H     005CH     UNIT         ?PR?_DS1302_WRITEBYTE?DS1302
            CODE    0F3EH     0058H     UNIT         ?PR?MAIN?MAIN
            CODE    0F96H     004EH     UNIT         ?PR?_DS1302_READBYTE?DS1302
            CODE    0FE4H     003AH     UNIT         ?PR?_LCD_SHOWSIGNEDNUM?LCD1602
            CODE    101EH     0039H     UNIT         ?PR?TIMER0_ROUTINE?MAIN
            CODE    1057H     0039H     UNIT         ?PR?_LCD_SHOWHEXNUM?LCD1602
BL51 BANKED LINKER/LOCATER V6.22.4.0                                                  03/17/2024  19:49:41  PAGE 2


            CODE    1090H     0038H     UNIT         ?PR?_LCD_SHOWBINNUM?LCD1602
            CODE    10C8H     0033H     UNIT         ?PR?_LCD_POW?LCD1602
            CODE    10FBH     0023H     UNIT         ?PR?_LCD_SHOWSTRING?LCD1602
            CODE    111EH     001EH     UNIT         ?PR?_LCD_WRITEDATA?LCD1602
            CODE    113CH     001DH     UNIT         ?PR?_LCD_SHOWNUM?LCD1602
            CODE    1159H     0017H     UNIT         ?PR?TIMER0INIT?TIMER0
            CODE    1170H     0016H     UNIT         ?PR?_LCD_SETCURSOR?LCD1602
            CODE    1186H     0015H     UNIT         ?CO?MAIN
            CODE    119BH     0015H     UNIT         ?PR?_DELAY?DELAY
            CODE    11B0H     0014H     UNIT         ?PR?LCD_INIT?LCD1602
            CODE    11C4H     000FH     UNIT         ?PR?LCD_DELAY?LCD1602
            CODE    11D3H     000AH     UNIT         ?PR?_LCD_WRITECOMMAND?LCD1602
            CODE    11DDH     000AH     UNIT         ?PR?_LCD_SHOWCHAR?LCD1602
            CODE    11E7H     000AH     UNIT         ?C_INITSEG
            CODE    11F1H     0005H     UNIT         ?PR?DS1302_INIT?DS1302



OVERLAY MAP OF MODULE:   .\Objects\project (MAIN)


SEGMENT                                  DATA_GROUP 
  +--> CALLED SEGMENT                  START    LENGTH
------------------------------------------------------
?C_C51STARTUP                          -----    -----
  +--> ?PR?MAIN?MAIN
  +--> ?C_INITSEG

?PR?MAIN?MAIN                          -----    -----
  +--> ?PR?LCD_INIT?LCD1602
  +--> ?PR?DS1302_INIT?DS1302
  +--> ?PR?TIMER0INIT?TIMER0
  +--> ?CO?MAIN
  +--> ?PR?_LCD_SHOWSTRING?LCD1602
  +--> ?PR?DS1302_SETTIME?DS1302
  +--> ?PR?KEY?KEY
  +--> ?PR?TIMESHOW?MAIN
  +--> ?PR?TIMESET?MAIN

?PR?LCD_INIT?LCD1602                   -----    -----
  +--> ?PR?_LCD_WRITECOMMAND?LCD1602

?PR?_LCD_WRITECOMMAND?LCD1602          -----    -----
  +--> ?PR?LCD_DELAY?LCD1602

?PR?_LCD_SHOWSTRING?LCD1602            0008H    0003H
  +--> ?PR?_LCD_SETCURSOR?LCD1602
  +--> ?PR?_LCD_WRITEDATA?LCD1602

?PR?_LCD_SETCURSOR?LCD1602             -----    -----
  +--> ?PR?_LCD_WRITECOMMAND?LCD1602

?PR?_LCD_WRITEDATA?LCD1602             -----    -----
  +--> ?PR?LCD_DELAY?LCD1602

?PR?DS1302_SETTIME?DS1302              -----    -----
  +--> ?PR?_DS1302_WRITEBYTE?DS1302
BL51 BANKED LINKER/LOCATER V6.22.4.0                                                  03/17/2024  19:49:41  PAGE 3



?PR?_DS1302_WRITEBYTE?DS1302           0008H    0002H

?PR?KEY?KEY                            0008H    0001H
  +--> ?PR?_DELAY?DELAY

?PR?TIMESHOW?MAIN                      -----    -----
  +--> ?PR?DS1302_READTIME?DS1302
  +--> ?PR?_LCD_SHOWNUM?LCD1602

?PR?DS1302_READTIME?DS1302             -----    -----
  +--> ?PR?_DS1302_READBYTE?DS1302

?PR?_LCD_SHOWNUM?LCD1602               0008H    0005H
  +--> ?PR?_LCD_SETCURSOR?LCD1602
  +--> ?PR?_LCD_POW?LCD1602
  +--> ?PR?_LCD_WRITEDATA?LCD1602

?PR?_LCD_POW?LCD1602                   000DH    0004H

?PR?TIMESET?MAIN                       -----    -----
  +--> ?CO?MAIN
  +--> ?PR?_LCD_SHOWSTRING?LCD1602
  +--> ?PR?_LCD_SHOWNUM?LCD1602



SYMBOL TABLE OF MODULE:  .\Objects\project (MAIN)

  VALUE           TYPE          NAME
  ----------------------------------

  -------         MODULE        MAIN
  C:0000H         SYMBOL        _ICE_DUMMY_
  C:101EH         PUBLIC        Timer0_Routine
  D:0021H         PUBLIC        TimeSetSelect
  D:0022H         PUBLIC        MODE
  C:0F3EH         PUBLIC        main
  D:0023H         PUBLIC        TimeSetFlashFlag
  C:0E18H         PUBLIC        TimeShow
  C:0800H         PUBLIC        TimeSet
  D:008CH         PUBLIC        TH0
  D:008AH         PUBLIC        TL0
  D:0024H         PUBLIC        KeyNum
  -------         PROC          TIMESHOW
  C:0E18H         LINE#         10
  C:0E18H         LINE#         11
  C:0E18H         LINE#         12
  C:0E1BH         LINE#         13
  C:0E2CH         LINE#         14
  C:0E3DH         LINE#         15
  C:0E4EH         LINE#         16
  C:0E5FH         LINE#         17
  C:0E70H         LINE#         18
  -------         ENDPROC       TIMESHOW
  -------         PROC          TIMESET
  C:0800H         LINE#         21
BL51 BANKED LINKER/LOCATER V6.22.4.0                                                  03/17/2024  19:49:41  PAGE 4


  C:0800H         LINE#         22
  C:0800H         LINE#         23
  C:0805H         LINE#         24
  C:0805H         LINE#         25
  C:0807H         LINE#         27
  C:0810H         LINE#         28
  C:0810H         LINE#         29
  C:0819H         LINE#         30
  C:0819H         LINE#         31
  C:081FH         LINE#         32
  C:082BH         LINE#         33
  C:0837H         LINE#         35
  C:0860H         LINE#         36
  C:0860H         LINE#         37
  C:0869H         LINE#         38
  C:086BH         LINE#         39
  C:0882H         LINE#         40
  C:0882H         LINE#         41
  C:088BH         LINE#         42
  C:088DH         LINE#         43
  C:0892H         LINE#         44
  C:0892H         LINE#         45
  C:089FH         LINE#         46
  C:089FH         LINE#         47
  C:08A8H         LINE#         48
  C:08AAH         LINE#         50
  C:08AAH         LINE#         51
  C:08B6H         LINE#         52
  C:08B6H         LINE#         53
  C:08B6H         LINE#         56
  C:08C2H         LINE#         57
  C:08CEH         LINE#         58
  C:08DAH         LINE#         61
  C:08DAH         LINE#         62
  C:08E3H         LINE#         63
  C:08E3H         LINE#         64
  C:08E9H         LINE#         66
  C:08F5H         LINE#         67
  C:0901H         LINE#         69
  C:092AH         LINE#         70
  C:092AH         LINE#         71
  C:0936H         LINE#         72
  C:093FH         LINE#         73
  C:0941H         LINE#         74
  C:0958H         LINE#         75
  C:0958H         LINE#         76
  C:0964H         LINE#         77
  C:096DH         LINE#         78
  C:096FH         LINE#         79
  C:0975H         LINE#         80
  C:0975H         LINE#         81
  C:0982H         LINE#         82
  C:0982H         LINE#         83
  C:098EH         LINE#         84
  C:0997H         LINE#         85
  C:0999H         LINE#         87
  C:0999H         LINE#         88
BL51 BANKED LINKER/LOCATER V6.22.4.0                                                  03/17/2024  19:49:41  PAGE 5


  C:09A5H         LINE#         89
  C:09B1H         LINE#         90
  C:09B1H         LINE#         91
  C:09B1H         LINE#         94
  C:09BDH         LINE#         95
  C:09C9H         LINE#         96
  C:09D5H         LINE#         97
  C:09D5H         LINE#         98
  C:09EDH         LINE#         99
  C:09FEH         LINE#         101
  C:0A17H         LINE#         102
  C:0A28H         LINE#         104
  C:0A41H         LINE#         105
  C:0A52H         LINE#         107
  C:0A6BH         LINE#         108
  C:0A7CH         LINE#         110
  C:0A95H         LINE#         111
  C:0AA6H         LINE#         113
  C:0ABDH         LINE#         114
  C:0ACEH         LINE#         116
  -------         ENDPROC       TIMESET
  -------         PROC          MAIN
  C:0F3EH         LINE#         119
  C:0F3EH         LINE#         120
  C:0F3EH         LINE#         121
  C:0F41H         LINE#         122
  C:0F44H         LINE#         123
  C:0F47H         LINE#         124
  C:0F54H         LINE#         125
  C:0F61H         LINE#         127
  C:0F64H         LINE#         128
  C:0F64H         LINE#         129
  C:0F64H         LINE#         130
  C:0F69H         LINE#         131
  C:0F6EH         LINE#         132
  C:0F6EH         LINE#         133
  C:0F79H         LINE#         134
  C:0F84H         LINE#         136
  C:0F84H         LINE#         138
  C:0F8CH         LINE#         139
  C:0F8CH         LINE#         140
  C:0F91H         LINE#         141
  -------         ENDPROC       MAIN
  -------         PROC          TIMER0_ROUTINE
  -------         DO            
  D:001FH         SYMBOL        T0Count
  -------         ENDDO         
  C:101EH         LINE#         147
  C:1027H         LINE#         150
  C:102AH         LINE#         151
  C:102DH         LINE#         152
  C:1035H         LINE#         153
  C:103EH         LINE#         154
  C:103EH         LINE#         155
  C:1044H         LINE#         156
  C:1050H         LINE#         157
  C:1050H         LINE#         159
BL51 BANKED LINKER/LOCATER V6.22.4.0                                                  03/17/2024  19:49:41  PAGE 6


  -------         ENDPROC       TIMER0_ROUTINE
  -------         ENDMOD        MAIN

  -------         MODULE        LCD1602
  C:0000H         SYMBOL        _ICE_DUMMY_
  D:0080H         PUBLIC        P0
  D:00A0H         PUBLIC        P2
  C:11D3H         PUBLIC        _LCD_WriteCommand
  C:113CH         PUBLIC        _LCD_ShowNum
  C:1090H         PUBLIC        _LCD_ShowBinNum
  C:11CAH         PUBLIC        LCD_Delay
  C:1057H         PUBLIC        _LCD_ShowHexNum
  C:1132H         PUBLIC        _LCD_WriteData
  B:00A0H.7       PUBLIC        LCD_EN
  C:11B0H         PUBLIC        LCD_Init
  C:10FBH         PUBLIC        _LCD_ShowString
  C:11DDH         PUBLIC        _LCD_ShowChar
  B:00A0H.6       PUBLIC        LCD_RS
  B:00A0H.5       PUBLIC        LCD_RW
  C:1170H         PUBLIC        _LCD_SetCursor
  C:0FE4H         PUBLIC        _LCD_ShowSignedNum
  C:10D4H         PUBLIC        _LCD_Pow
  -------         PROC          L?0048
  -------         ENDPROC       L?0048
  -------         PROC          LCD_DELAY
  -------         DO            
  D:0007H         SYMBOL        i
  D:0006H         SYMBOL        j
  -------         ENDDO         
  C:11CAH         LINE#         15
  C:11CAH         LINE#         16
  C:11CAH         LINE#         18
  C:11CCH         LINE#         19
  C:11CEH         LINE#         21
  C:11CEH         LINE#         22
  C:11D0H         LINE#         23
  C:11D2H         LINE#         24
  -------         ENDPROC       LCD_DELAY
  -------         PROC          _LCD_WRITECOMMAND
  D:0007H         SYMBOL        Command
  C:11D3H         LINE#         30
  C:11D3H         LINE#         31
  C:11D3H         LINE#         32
  C:11D5H         LINE#         33
  C:11D5H         LINE#         34
  C:11D5H         LINE#         35
  C:11D5H         LINE#         36
  C:11D8H         LINE#         37
  C:11DAH         LINE#         38
  -------         ENDPROC       _LCD_WRITECOMMAND
  -------         PROC          L?0047
  -------         ENDPROC       L?0047
  -------         PROC          _LCD_WRITEDATA
  D:0007H         SYMBOL        Data
  C:1132H         LINE#         46
  C:1132H         LINE#         47
  C:1132H         LINE#         48
BL51 BANKED LINKER/LOCATER V6.22.4.0                                                  03/17/2024  19:49:41  PAGE 7


  C:1134H         LINE#         49
  C:1134H         LINE#         50
  C:1134H         LINE#         51
  C:1134H         LINE#         52
  C:1137H         LINE#         53
  C:1139H         LINE#         54
  -------         ENDPROC       _LCD_WRITEDATA
  -------         PROC          _LCD_SETCURSOR
  D:0006H         SYMBOL        Line
  D:0005H         SYMBOL        Column
  C:1170H         LINE#         63
  C:1172H         LINE#         64
  C:1172H         LINE#         65
  C:1175H         LINE#         66
  C:1175H         LINE#         67
  C:1177H         LINE#         68
  C:1179H         LINE#         69
  C:117CH         LINE#         70
  C:117CH         LINE#         71
  C:1185H         LINE#         72
  C:1185H         LINE#         73
  -------         ENDPROC       _LCD_SETCURSOR
  -------         PROC          LCD_INIT
  C:11B0H         LINE#         80
  C:11B0H         LINE#         81
  C:11B0H         LINE#         82
  C:11B5H         LINE#         83
  C:11BAH         LINE#         84
  C:11BFH         LINE#         85
  -------         ENDPROC       LCD_INIT
  -------         PROC          _LCD_SHOWCHAR
  D:0006H         SYMBOL        Line
  D:0005H         SYMBOL        Column
  D:0004H         SYMBOL        Char
  C:11DDH         LINE#         95
  C:11DFH         LINE#         96
  C:11DFH         LINE#         97
  C:11E2H         LINE#         98
  -------         ENDPROC       _LCD_SHOWCHAR
  -------         PROC          _LCD_SHOWSTRING
  D:0007H         SYMBOL        Line
  D:0005H         SYMBOL        Column
  D:0008H         SYMBOL        String
  -------         DO            
  D:0005H         SYMBOL        i
  -------         ENDDO         
  C:10FBH         LINE#         108
  C:1101H         LINE#         109
  C:1101H         LINE#         111
  C:1104H         LINE#         112
  C:1117H         LINE#         113
  C:1117H         LINE#         114
  C:111AH         LINE#         115
  C:111DH         LINE#         116
  -------         ENDPROC       _LCD_SHOWSTRING
  C:10CAH         SYMBOL        L?0046
  -------         PROC          L?0045
BL51 BANKED LINKER/LOCATER V6.22.4.0                                                  03/17/2024  19:49:41  PAGE 8


  -------         ENDPROC       L?0045
  C:10CAH         SYMBOL        L?0046
  -------         PROC          _LCD_POW
  D:000DH         SYMBOL        X
  D:000FH         SYMBOL        Y
  -------         DO            
  D:0003H         SYMBOL        i
  D:0006H         SYMBOL        Result
  -------         ENDDO         
  C:10D4H         LINE#         121
  C:10DCH         LINE#         122
  C:10DCH         LINE#         124
  C:10E0H         LINE#         125
  C:10F0H         LINE#         126
  C:10F0H         LINE#         127
  C:10F7H         LINE#         128
  C:10FAH         LINE#         129
  C:10FAH         LINE#         130
  -------         ENDPROC       _LCD_POW
  -------         PROC          _LCD_SHOWNUM
  D:0007H         SYMBOL        Line
  D:0005H         SYMBOL        Column
  D:000AH         SYMBOL        Number
  D:000CH         SYMBOL        Length
  -------         DO            
  D:0002H         SYMBOL        i
  -------         ENDDO         
  C:113CH         LINE#         140
  C:1140H         LINE#         141
  C:1140H         LINE#         143
  C:1143H         LINE#         144
  C:114BH         LINE#         145
  C:114BH         LINE#         146
  C:1155H         LINE#         147
  C:1158H         LINE#         148
  -------         ENDPROC       _LCD_SHOWNUM
  -------         PROC          _LCD_SHOWSIGNEDNUM
  D:0007H         SYMBOL        Line
  D:0005H         SYMBOL        Column
  D:0002H         SYMBOL        Number
  D:0015H         SYMBOL        Length
  -------         DO            
  D:0002H         SYMBOL        i
  D:0016H         SYMBOL        Number1
  -------         ENDDO         
  C:0FE4H         LINE#         158
  C:0FE4H         LINE#         159
  C:0FE4H         LINE#         162
  C:0FE7H         LINE#         163
  C:0FEFH         LINE#         164
  C:0FEFH         LINE#         165
  C:0FF4H         LINE#         166
  C:0FF8H         LINE#         167
  C:0FFAH         LINE#         169
  C:0FFAH         LINE#         170
  C:0FFFH         LINE#         171
  C:1008H         LINE#         172
BL51 BANKED LINKER/LOCATER V6.22.4.0                                                  03/17/2024  19:49:41  PAGE 9


  C:1008H         LINE#         173
  C:1010H         LINE#         174
  C:1010H         LINE#         175
  C:101AH         LINE#         176
  C:101DH         LINE#         177
  -------         ENDPROC       _LCD_SHOWSIGNEDNUM
  -------         PROC          _LCD_SHOWHEXNUM
  D:0007H         SYMBOL        Line
  D:0005H         SYMBOL        Column
  D:0027H         SYMBOL        Number
  D:0029H         SYMBOL        Length
  -------         DO            
  D:0002H         SYMBOL        i
  D:0006H         SYMBOL        SingleNumber
  -------         ENDDO         
  C:1057H         LINE#         187
  C:105BH         LINE#         188
  C:105BH         LINE#         190
  C:105EH         LINE#         191
  C:1066H         LINE#         192
  C:1066H         LINE#         193
  C:107CH         LINE#         194
  C:1082H         LINE#         195
  C:1082H         LINE#         196
  C:1084H         LINE#         197
  C:1086H         LINE#         199
  C:1086H         LINE#         200
  C:108CH         LINE#         201
  C:108CH         LINE#         202
  C:108FH         LINE#         203
  -------         ENDPROC       _LCD_SHOWHEXNUM
  -------         PROC          _LCD_SHOWBINNUM
  D:0007H         SYMBOL        Line
  D:0005H         SYMBOL        Column
  D:002CH         SYMBOL        Number
  D:002EH         SYMBOL        Length
  -------         DO            
  D:0002H         SYMBOL        i
  -------         ENDDO         
  C:1090H         LINE#         213
  C:1094H         LINE#         214
  C:1094H         LINE#         216
  C:1097H         LINE#         217
  C:109FH         LINE#         218
  C:109FH         LINE#         219
  C:10C4H         LINE#         220
  C:10C7H         LINE#         221
  -------         ENDPROC       _LCD_SHOWBINNUM
  -------         ENDMOD        LCD1602

  -------         MODULE        DS1302
  C:0000H         SYMBOL        _ICE_DUMMY_
  C:0ACFH         PUBLIC        DS1302_SetTime
  D:00B0H         PUBLIC        P3
  B:00B0H.5       PUBLIC        DS1302_CE
  C:0CFFH         PUBLIC        DS1302_ReadTime
  D:0018H         PUBLIC        DS1302_Time
BL51 BANKED LINKER/LOCATER V6.22.4.0                                                  03/17/2024  19:49:41  PAGE 10


  C:0F96H         PUBLIC        _DS1302_ReadByte
  C:11F1H         PUBLIC        DS1302_Init
  B:00B0H.4       PUBLIC        DS1302_IO
  C:0EE7H         PUBLIC        _DS1302_WriteByte
  B:00B0H.6       PUBLIC        DS1302_SCLK
  -------         PROC          DS1302_INIT
  C:11F1H         LINE#         26
  C:11F1H         LINE#         27
  C:11F1H         LINE#         28
  C:11F3H         LINE#         29
  C:11F5H         LINE#         30
  -------         ENDPROC       DS1302_INIT
  -------         PROC          L?0027
  -------         ENDPROC       L?0027
  -------         PROC          _DS1302_WRITEBYTE
  D:0003H         SYMBOL        Command
  D:0008H         SYMBOL        Data
  -------         DO            
  D:0005H         SYMBOL        i
  -------         ENDDO         
  C:0EE7H         LINE#         37
  C:0EEDH         LINE#         38
  C:0EEDH         LINE#         39
  C:0EEFH         LINE#         40
  C:0EF1H         LINE#         41
  C:0EF1H         LINE#         42
  C:0EF1H         LINE#         43
  C:0F0CH         LINE#         44
  C:0F0EH         LINE#         46
  C:0F10H         LINE#         47
  C:0F14H         LINE#         48
  C:0F16H         LINE#         49
  C:0F16H         LINE#         50
  C:0F33H         LINE#         51
  C:0F35H         LINE#         53
  C:0F37H         LINE#         54
  C:0F3BH         LINE#         55
  C:0F3DH         LINE#         56
  -------         ENDPROC       _DS1302_WRITEBYTE
  -------         PROC          _DS1302_READBYTE
  D:0005H         SYMBOL        Command
  -------         DO            
  D:0003H         SYMBOL        i
  D:0001H         SYMBOL        Data
  -------         ENDDO         
  C:0F96H         LINE#         62
  C:0F98H         LINE#         63
  C:0F98H         LINE#         64
  C:0F9AH         LINE#         65
  C:0F9DH         LINE#         66
  C:0F9FH         LINE#         67
  C:0FA0H         LINE#         68
  C:0FA0H         LINE#         69
  C:0FBBH         LINE#         70
  C:0FBDH         LINE#         71
  C:0FBFH         LINE#         73
  C:0FC3H         LINE#         74
BL51 BANKED LINKER/LOCATER V6.22.4.0                                                  03/17/2024  19:49:41  PAGE 11


  C:0FC5H         LINE#         75
  C:0FC5H         LINE#         76
  C:0FC7H         LINE#         77
  C:0FC9H         LINE#         78
  C:0FD9H         LINE#         79
  C:0FDDH         LINE#         80
  C:0FDFH         LINE#         81
  C:0FE1H         LINE#         83
  C:0FE3H         LINE#         84
  -------         ENDPROC       _DS1302_READBYTE
  -------         PROC          DS1302_SETTIME
  C:0ACFH         LINE#         90
  C:0ACFH         LINE#         91
  C:0ACFH         LINE#         92
  C:0AD7H         LINE#         93
  C:0B07H         LINE#         94
  C:0B37H         LINE#         95
  C:0B6CH         LINE#         96
  C:0BA1H         LINE#         97
  C:0BD6H         LINE#         98
  C:0C0BH         LINE#         99
  C:0C40H         LINE#         100
  -------         ENDPROC       DS1302_SETTIME
  -------         PROC          DS1302_READTIME
  -------         DO            
  D:0007H         SYMBOL        Tmp
  -------         ENDDO         
  C:0CFFH         LINE#         108
  C:0CFFH         LINE#         109
  C:0CFFH         LINE#         111
  C:0D04H         LINE#         112
  C:0D13H         LINE#         114
  C:0D18H         LINE#         115
  C:0D27H         LINE#         117
  C:0D2CH         LINE#         118
  C:0D3BH         LINE#         120
  C:0D40H         LINE#         121
  C:0D4FH         LINE#         123
  C:0D54H         LINE#         124
  C:0D63H         LINE#         126
  C:0D68H         LINE#         127
  C:0D77H         LINE#         129
  C:0D7CH         LINE#         130
  C:0D8BH         LINE#         132
  -------         ENDPROC       DS1302_READTIME
  -------         ENDMOD        DS1302

  -------         MODULE        DELAY
  C:0000H         SYMBOL        _ICE_DUMMY_
  C:119BH         PUBLIC        _Delay
  -------         PROC          _DELAY
  D:0006H         SYMBOL        xms
  -------         DO            
  D:0005H         SYMBOL        i
  D:0004H         SYMBOL        j
  -------         ENDDO         
  C:119BH         LINE#         4
BL51 BANKED LINKER/LOCATER V6.22.4.0                                                  03/17/2024  19:49:41  PAGE 12


  C:119BH         LINE#         5
  C:119BH         LINE#         7
  C:11A5H         LINE#         8
  C:11A5H         LINE#         9
  C:11A7H         LINE#         10
  C:11A9H         LINE#         12
  C:11A9H         LINE#         13
  C:11ABH         LINE#         14
  C:11ADH         LINE#         15
  C:11AFH         LINE#         16
  -------         ENDPROC       _DELAY
  -------         ENDMOD        DELAY

  -------         MODULE        KEY
  C:0000H         SYMBOL        _ICE_DUMMY_
  B:00B0H.0       PUBLIC        P3_0
  B:00B0H.1       PUBLIC        P3_1
  B:00B0H.2       PUBLIC        P3_2
  B:00B0H.3       PUBLIC        P3_3
  C:0E81H         PUBLIC        Key
  -------         PROC          KEY
  -------         DO            
  D:0008H         SYMBOL        KeyNumber
  -------         ENDDO         
  C:0E81H         LINE#         9
  C:0E81H         LINE#         10
  C:0E81H         LINE#         11
  C:0E84H         LINE#         13
  C:0E9AH         LINE#         14
  C:0EB1H         LINE#         15
  C:0EC8H         LINE#         16
  C:0EDFH         LINE#         18
  C:0EE1H         LINE#         19
  -------         ENDPROC       KEY
  -------         ENDMOD        KEY

  -------         MODULE        TIMER0
  C:0000H         SYMBOL        _ICE_DUMMY_
  B:00A8H.7       PUBLIC        EA
  D:0089H         PUBLIC        TMOD
  B:00A8H.1       PUBLIC        ET0
  B:0088H.5       PUBLIC        TF0
  C:1159H         PUBLIC        Timer0Init
  D:008CH         PUBLIC        TH0
  D:008AH         PUBLIC        TL0
  B:00B8H.1       PUBLIC        PT0
  B:0088H.4       PUBLIC        TR0
  -------         PROC          TIMER0INIT
  C:1159H         LINE#         11
  C:1159H         LINE#         12
  C:1159H         LINE#         13
  C:115CH         LINE#         14
  C:115FH         LINE#         15
  C:1162H         LINE#         16
  C:1165H         LINE#         17
  C:1167H         LINE#         18
  C:1169H         LINE#         19
BL51 BANKED LINKER/LOCATER V6.22.4.0                                                  03/17/2024  19:49:41  PAGE 13


  C:116BH         LINE#         20
  C:116DH         LINE#         21
  C:116FH         LINE#         22
  -------         ENDPROC       TIMER0INIT
  -------         ENDMOD        TIMER0

  -------         MODULE        ?C?SCDIV
  C:0C49H         PUBLIC        ?C?SCDIV
  -------         ENDMOD        ?C?SCDIV

  -------         MODULE        ?C?CLDOPTR
  C:0C6BH         PUBLIC        ?C?CLDOPTR
  -------         ENDMOD        ?C?CLDOPTR

  -------         MODULE        ?C?IMUL
  C:0C98H         PUBLIC        ?C?IMUL
  -------         ENDMOD        ?C?IMUL

  -------         MODULE        ?C?UIDIV
  C:0CAAH         PUBLIC        ?C?UIDIV
  -------         ENDMOD        ?C?UIDIV

******************************************************************************
* RESTRICTED VERSION WITH 0800H BYTE CODE SIZE LIMIT; USED: 08B6H BYTE (108%) *
******************************************************************************

Program Size: data=48.0 xdata=0 code=2556
LINK/LOCATE RUN COMPLETE.  0 WARNING(S),  0 ERROR(S)

*** FATAL ERROR L250: CODE SIZE LIMIT IN RESTRICTED VERSION EXCEEDED
    MODULE:  C:\KEIL_V5\C51\LIB\C51S.LIB (-----)
    LIMIT:   0800H BYTES