:080914001208D912088C80FBC7
:1008F000EF1FAC0670011E4C600A7D027CEFDCFE2F
:04090000DDFC80ECAE
:0109040022D0
:0E090500480000080C040602030109010A075D
:10088C00E4F508F509F509E4F50874002508F58286
:10089C00E43400F583E0F5907F647E001208F005E7
:1008AC0008E508C3940740E20509E509C39405402F
:0108BC00D665
:0108BD002218
:1008BE007400250AF582E43400F583E0F590150AFC
:0A08CE00E50AC394015003750A0700
:0108D80022FD
:1008D9005389F0438901758A18758CFCC28DD28CB5
:0708E900D2A9D2AFC2B9226F
:03000000020800F3
:0C080000787FE4F6D8FD75810A020847F5
:10080C00020914E493A3F8E493A34003F68001F2E5
:10081C0008DFF48029E493A3F85407240CC8C333ED
:10082C00C4540F4420C8834004F456800146F6DFBC
:10083C00E4800B0102040810204080900905E47E3E
:10084C00019360BCA3FF543F30E509541FFEE493B1
:10085C00A360010ECF54C025E060A840B8E493A378
:10086C00FAE493A3F8E493A3C8C582C8CAC583CAA3
:10087C00F0A3C8C582C8CAC583CADFE9DEE780BE5B
:0109130000E3
:00000001FF
